:100000000C946B040C94B2040C94B2040C94CE17B0
:100010000C94B2040C94B2040C94B2040C94B20488
:100020000C94B2040C94B2040C94E72A0C94B92BEF
:100030000C94AB250C94B2040C94B2040C94B2044E
:100040000C94B2040C94B2040C94B2040C94B20458
:100050000C94B2040C94F8250C94B2040C94B204E1
:100060000C94B2040C94B2040C94B2040C94B20438
:100070000C94B2040C94B2040C94B2040C94B20428
:100080000C94B2040C94B2040C94B2040C94B20418
:100090000C94B2040C94B2040C94B2040C94B20408
:1000A0000C94B2040C94B2040C94B2045614591477
:1000B0005E1465146A146F14741479147E14831416
:1000C00088148D148F149214951498149B149E14F4
:1000D000A014A514BD1BBD1BEF1BEF1B5A1D5A1D01
:1000E0005A1D5A1D3C1CD91CEA1CEA1C4A1D5A1DEB
:1000F0005A1D531DEA1DEA1DFC1DFC1DF31DFC1DB0
:10010000FC1DFC1DEA1DEA1DF81DFC1DFC1DF81D53
:10011000262C4D2C3F2D4D2C3F2D992CBC2C3F2DAA
:10012000122D212D29001E001F0020002100220079
:100130002C002C002B0014001A00080015001700DA
:100140002C002C00E00004001600070009000A0043
:100150002C002C00E1001D001B000600190005000A
:100160004C002C002C002C002C0050004F002C00C8
:10017000E0002C002C00230024002500260027008E
:100180002D0035002C001C0018000C00120013007C
:100190002F0031002C000B000D000E000F0033006B
:1001A00034002800E300110010003600370038004A
:1001B0002E00E50028002A00510052002C002C00DF
:1001C00030002A0044454255473A20646973616211
:1001D0006C65642E0A0044454255473A20656E61BD
:1001E000626C65642E0A000A0025303862003A20ED
:1001F0000025303258000A722F63203031323334F8
:100200003536370A007267626C6967687420616E00
:10021000696D6174696F6E207469636B20726570BB
:100220006F727420746F20736C6176650A00726758
:10023000626C696768742074696D657220646973A3
:1002400061626C652E0A007267626C69676874206F
:1002500074696D657220656E61626C65642E0A005A
:100260007267626C6967687420736574206873765E
:10027000205B4E4F454550524F4D5D3A2025752C21
:1002800025752C25750A007267626C696768742091
:1002900073657420687376205B454550524F4D5D01
:1002A0003A2025752C25752C25750A007267626C1D
:1002B00069676874207261696E626F772073657414
:1002C000206873763A2025642C25642C25642C251F
:1002D000750A007267626C6967687420646973618B
:1002E000626C65205B4E4F454550524F4D5D3A2044
:1002F0007267626C696768745F636F6E6669672EA8
:10030000656E61626C65203D2025750A007267622A
:100310006C696768742064697361626C65205B4511
:100320004550524F4D5D3A207267626C6967687440
:100330005F636F6E6669672E656E61626C65203DF6
:100340002025750A007267626C6967687420656EA3
:1003500061626C65205B4E4F454550524F4D5D3A92
:10036000207267626C696768745F636F6E66696745
:100370002E656E61626C65203D2025750A007267EE
:10038000626C6967687420656E61626C65205B45AC
:100390004550524F4D5D3A207267626C69676874D0
:1003A0005F636F6E6669672E656E61626C65203D86
:1003B0002025750A007267626C6967687420746F23
:1003C00067676C65205B454550524F4D5D3A207222
:1003D00067626C696768745F636F6E6669672E65D4
:1003E0006E61626C65203D2025750A007267626C43
:1003F00069676874206D6F6465205B4E4F4545509A
:10040000524F4D5D3A2025750A007267626C69672C
:100410006874206D6F6465205B454550524F4D5D9B
:100420003A2025750A007267626C696768745F69B3
:100430006E6974207267626C696768745F636F6E5F
:100440006669672E6D6F6465203D20302E205772DF
:100450006974652064656661756C742076616C757D
:10046000657320746F20454550524F4D2E0A00721F
:1004700067626C696768745F696E6974206565633B
:100480006F6E666967206973206E6F7420656E6198
:10049000626C65642E0A007267626C696768745FDB
:1004A000696E6974207374617274210A00726762E4
:1004B0006C696768745F696E69742063616C6C65F0
:1004C000642E0A007267626C696768745F636F6E9E
:1004D0006669672E7370656564203D2025640A0097
:1004E0007267626C696768745F636F6E6669672EB6
:1004F00076616C203D2025640A007267626C696732
:1005000068745F636F6E6669672E736174203D2047
:1005100025640A007267626C696768745F636F6E56
:100520006669672E687565203D2025640A0072673C
:10053000686C696768745F636F6E6669672E6D6F5C
:100540006465203D2025640A007267626C696768F3
:10055000745F636F6E6669672E656E61626C65209D
:100560003D2025640A007267626C696768745F6386
:100570006F6E66696720454550524F4D3A0A00320A
:10058000190A00047F3F1F643214643214783C1E41
:100590001E140A052223252628292A2C2D2F303225
:1005A000333536383A3B3D3E4042434547494A4C55
:1005B0004E5051535557595A5C5E60626466686983
:1005C0006B6D6F71737577797B7D7F81838587898B
:1005D0008A8C8E90929496989A9C9E9FA1A3A5A790
:1005E000A8AAACAEAFB1B3B4B6B8B9BBBCBEBFC1BC
:1005F000C2C3C5C6C7C9CACBCCCDCED0D1D2D2D347
:10060000D4D5D6D7D7D8D9D9DADADBDBDBDCDCDC5A
:10061000DCDCDDDDDDDDDCDCDCDCDCDBDBDBDADA1D
:10062000D9D9D8D7D7D6D5D4D3D2D2D1D0CECDCC94
:10063000CBCAC9C7C6C5C3C2C1BFBEBCBBB9B8B6A9
:10064000B4B3B1AFAEACAAA8A7A5A3A19F9E9C9A34
:1006500098969492908E8C8A89878583817F7D7B02
:1006600079777573716F6D6B6968666462605E5CE3
:100670005A5957555351504E4C4A494745434240A9
:100680003E3D3B3A3836353332302F2D2C2A29283F
:1006900026252322FFAA7F55400001010101010107
:1006A0000101010202020202020202020303030329
:1006B00003030303040404040404040505050505F9
:1006C00006060606060707070707080808080909B7
:1006D00009090A0A0A0B0B0B0C0C0C0D0D0D0E0E62
:1006E0000E0F0F0F101011111112121313141415F5
:1006F0001516161717181819191A1A1B1B1C1D1D69
:100700001E1E1F20202122222324242526262728BE
:1007100029292A2B2C2D2D2E2F30313232333435EE
:10072000363738393A3B3C3D3E3F404142434445F1
:10073000464748494A4C4D4E4F50515354555658D0
:10074000595A5B5D5E5F616264656668696B6C6D7A
:100750006F7072737577787A7B7D7E8082838587F0
:10076000888A8C8E8F91939596989A9C9EA0A2A32E
:10077000A5A7A9ABADAFB1B3B5B7BABCBEC0C2C433
:10078000C6C9CBCDCFD1D4D6D8DBDDDFE2E4E7E9F3
:10079000EBEEF0F3F5F8FAFDFF0A002530325820B1
:1007A000006B6579626F6172645F7265706F7274FD
:1007B0003A20000A0025303258006B6579626F617B
:1007C00072645F7365745F6C65643A20005B735D8F
:1007D000004B6579626F6172642073746172742E6C
:1007E0000A005B575D005B535D005B525D005B443C
:1007F0005D005B435D001203570069006C006C00F4
:100800006F007700360034000000100348006100DC
:100810006E006100630068006900000004030904C1
:1008200009024200020100A0FA09040000010301CC
:100830000100092111010001224000070581030880
:10084000000A09040100020300000009211101004F
:100850000122220007058203200001070502032070
:100860000001120110010000000801BB010002009C
:10087000010200010631FF0974A101097515002666
:10088000FF009520750881020976150026FF009566
:100890002075089102C005010906A101050719E0AC
:1008A00029E7150025019508750181029501750854
:1008B00081010507190029FF150026FF009506751F
:1008C0000881000508190129059505750191029512
:1008D0000175039101C011241FBECFEFDAE0DEBF26
:1008E000CDBF04B603FE27C080919F049091A00461
:1008F000A091A104B091A2048730904BA740B04BC7
:10090000D1F410929F041092A0041092A1041092AE
:10091000A20414BE84B7877F84BF0FB6F894A8954D
:1009200080916000886180936000109260000FBE2B
:10093000E0E0F8E3099511E0A0E0B1E0EEEBFDE5C1
:1009400002C005900D92A237B107D9F724E0A2E7C3
:10095000B1E001C01D92AF39B207E1F70E9415283E
:100960000C94DD2E0C940000FF93EF93E091720144
:10097000F0917301309709F00995EF91FF91089577
:10098000FC018591803011F0EFDFFBCF0895FF2748
:10099000E0E230E247FF0CC0419597FF09C0EDE26D
:1009A0006095709580959095611D711D811D911DBB
:1009B00027FF02C0219530E350E2AA27660F771F78
:1009C000881F991FAA1FA41710F0A41B63955A959E
:1009D000A9F7AA3008F0A95FA05DAF93F395611560
:1009E00071058105910541F7ED3211F4EF93F3950F
:1009F000F21718F43F93F395FBCF8F91B5DFFA957B
:100A0000E1F70895E991F9918591803021F08532DF
:100A100019F0AADFF9CF089520E0E89455915532F6
:100A2000C1F3503311F4689455915A3348F450533C
:100A300090F3220F022E220F220F200D250FF4CF4C
:100A40000EF4219589919991533619F3533729F171
:100A5000533559F1BC0188279927E8945C3621F475
:100A60008991999168945591543639F446EF7EF006
:100A700077FF0DC08FEF9FEF0AC055374AE039F07E
:100A8000583540E121F0523642E009F00895FF93D5
:100A9000EF937DDFEF91FF91B7CFFF93EF93FC01D1
:100AA00081918030B9F360DFFBCFFF93EF9368DF74
:100AB000F1CFDF93CF93CDB7DEB72596A3DFCF91EC
:100AC000DF91089583E20E94F41180918E0381608A
:100AD000826080938E03089581E0089581E00895F7
:100AE0000C946E0508950C9472051F93CF93DF93B9
:100AF00000D000D01F92CDB7DEB749835A83309122
:100B00000E0389819A81311114C0662359F0222382
:100B100049F00E94F822182F682F89819A810E943B
:100B20009D2203C00E94CC22182F69817A81812FD7
:100B300004C00E94F82269817A810F900F900F9073
:100B40000F900F90DF91CF911F910C944806FC01FC
:100B5000262F408151816281738184810C947505B7
:100B6000CF93DF93EC0160E00E94A705BE01DF9107
:100B7000CF910C9473050E944324811102C00E94FE
:100B8000EA240C943B080C943E0808950E94DA1D58
:100B90000E94C5052FEF84E39CE0215080409040E7
:100BA000E1F700C000000C941E260F931F93CF9313
:100BB000DF93EC0161E00E94A7058C01BE010E9459
:100BC0007005882309F449C0BE01C8010E9465155B
:100BD000882309F442C0BE01C8010E94B7158823CA
:100BE000E1F1BE01C8010E94E2168823B1F1BE0105
:100BF000C8010E944014882381F18A81882331F141
:100C000001308CE5180751F00F3D8CE51807D9F03D
:100C100001151C45D9F40E94C6051FC080918E03A2
:100C2000C82FC095C170C0FB80F980938E03CC2380
:100C300029F086ED91E00E94C0040FC084EC91E0A1
:100C40000E94C0040BC00E94EA2407C0CE01DF91BD
:100C5000CF911F910F910C946C05C0E08C2FDF9108
:100C6000CF911F910F91089508950C94340681E05F
:100C700008950C943706CF93C82F0E9435068C2F09
:100C80000E943906CF91089580E090E0089508957C
:100C9000E72FF0E09AE0899FE00DF11D112483E039
:100CA000EE0FFF1F8A95E1F7E60FF11DEE0FFF1F14
:100CB000EC5DFE4F859194910895880F991FFC017A
:100CC000E951FE4F859194910895CF93DF930E944F
:100CD00048060E946307EC01811521E59207A0F503
:100CE000811560E5960708F087C0C11580E2D80736
:100CF000F0F4C11591E0D90708F0E1C0C03ED1057C
:100D000088F4C03CD10508F063C0C130D10509F4B6
:100D1000D6C008F4D2C0CE010497813A910508F4F8
:100D2000CEC0CBC0C83ED10508F4C9C0C6C0C115ED
:100D300020E4D20708F05DC0C11560E3D60708F0D3
:100D40004EC0CE019F7047C0C11585E5D807A0F4FD
:100D5000C11594E5D90708F096C0C11523E5D2075F
:100D600008F07BC0C11562E5D60708F060C0DC2F33
:100D7000CC27C16FD06AA3C0C11589E5D807A0F4FC
:100D8000C11598E5D90708F083C0C11526E5D2073B
:100D900008F093C08C2F0E94F7078F71C82FD0E006
:100DA000DC2FCC27D0628BC0C1156AE5D60708F4CA
:100DB00074C0CE0190568115904208F07EC08D2FF0
:100DC0008F710E94F707DD27D0628F71D82B77C013
:100DD000CE01805C91090E945D06EC0170C0CE01DD
:100DE0009927D3FF03C0EC01D86C69C0EC01D06C2B
:100DF00066C0DF70D06A63C0837021E030E002C05B
:100E0000220F331F8A95E2F73C68CE0174E0969575
:100E100087957A95E1F78370382BCF70C695C69584
:100E200060E2C69FE0011124C22BD32B48C04C2F97
:100E30004695469580E2489FA0011124C370DD27A6
:100E400021E030E0C90102C0880F991FCA95E2F77E
:100E5000EC01C42BD52BDC6832C04C2F469546954F
:100E600080E2489FA0011124C370DD2721E030E01B
:100E7000C90102C0880F991FCA95E2F7EC01C42B83
:100E8000D52BDA681CC0DC2FCC27C46FD06A17C002
:100E9000DC2FCC27C06FD06A12C08C2F8F700E94BD
:100EA000F70794E0D695C7959A95E1F7CF70D0E013
:100EB000DC2FCC27D069C82B02C0C0E0D0E0CE0127
:100EC000DF91CF9108958238910569F1B0F48133B3
:100ED000910509F46DC048F48932910509F463C0A5
:100EE0008A32910509F469C008958533910509F4A2
:100EF00055C089339105B9F00895833E910569F194
:100F000038F4803E9105B1F0823E910509F10895D3
:100F1000863E9105A9F1873E9105B9F1843E910580
:100F200009F064C023C02091900420FD4FC021FD32
:100F30004DC008958091900480FD44C0809191043B
:100F400080FF44C08091900484FD42C083EE4DC078
:100F50008091900482FF38C0F5CF8091900482FD8B
:100F600033C08091910480FD31C0ECCF8091910419
:100F700081FF32C08091900484FD2AC087EE35C085
:100F80008091900483FF26C0F5CF8091900483FD6B
:100F900021C08091910481FD1FC0ECCF809190040D
:100FA00085FD1CC01DC08091900485FD19C016C030
:100FB0008091900486FD16C017C08091900486FD34
:100FC00013C010C089E311C082EE0FC080EE0DC0C7
:100FD00080E00BC086EE09C084EE07C089E205C040
:100FE00085E303C08AE201C081E390E00895909117
:100FF000900492FF0DC0282F2871283019F4877FA4
:10100000846006C0282F2471243011F48B7F8860FF
:1010100093FF0DC0282F2871283119F4877E846131
:1010200006C0282F2471243111F48B7E8861209111
:10103000910420FF0DC0382F3871383019F4877FA4
:10104000816006C0382F3171313011F48E7F886095
:1010500021FF0DC0282F2871283119F4877E816166
:1010600006C0282F2171213111F48E7E886194FDF4
:10107000877E089508950C943A0808950C943D08CD
:10108000E82FF0E0E755FC4F80810895CF92DF9282
:10109000EF92FF920F931F93CF93DF9386EF91E030
:1010A0000E94C00489EAE82E83E0F82EC0E0D0E078
:1010B00091EFC92E91E0D92E09EE11E0DF93CF9385
:1010C000DF92CF920E9459058EEE91E00E94C004FB
:1010D000F70181917F010E942D241F928F931F930E
:1010E0000F930E94590587EE91E00E94C00421965B
:1010F0008DB79EB708960FB6F8949EBF0FBE8DBFF2
:10110000CA30D105D9F6DF91CF911F910F91FF9091
:10111000EF90DF90CF90089580EA8A95F1F70895D7
:10112000F894E82FE295EF70F0E031A1282F2F70AE
:1011300081E090E001C0880F2A95EAF7982F9095FA
:10114000932391A392A1892B82A378940895089563
:101150001F93CF93DF930E94EE0980910401809149
:101160000401811102C095E001C090E09093B403A6
:1011700085E0891B8093B30384E90E94900886E68A
:101180000E94900887E90E94900886EC0E949008CF
:1011900084E30E949008C5E3D1E01C2F185F899179
:1011A0000E9490081C13FBCFA9EAB3E0EFE9F3E03B
:1011B0008AE08E0F11921D928E13FCCF85E00E9463
:1011C00098090E94BB05DF91CF911F910C94020AF0
:1011D0000E94CF09882321F18091B30390E08755C5
:1011E0009C4F0E94320A811117C0809174018F5F59
:1011F00080937401863090F02091B30380E090E0FA
:1012000030E0FC01E20FF31FE755FC4F108201961E
:1012100085309105B1F702C0109274010C94C3059A
:101220008091B40390E087559C4F0E94510A0C9422
:10123000A7089F92AF92BF92CF92DF92EF92FF9258
:101240000F931F93CF93DF938FE9C82E83E0D82E9F
:10125000CDE3D1E0B12C01E010E0AC2E85E0A80E8A
:101260007E018881F894E82FE295EF70F0E091A17B
:101270008F70A80101C0440F8A95EAF7892F842B4B
:1012800081A382A14095482342A378940E948C08B0
:10129000E5E3F1E020E030E0912C4191A42FA2950C
:1012A000AF70B0E090968C9190E04F7002C0959531
:1012B00087954A95E2F780FD07C0802F022E01C076
:1012C000880F0A94EAF701C080E0982A2F5F3F4F09
:1012D0002830310511F72196F70180810E9490088E
:1012E000F6018081891519F0908281E001C080E0CB
:1012F000B82AFFEFCF1ADF0AAC12B2CF6091B40365
:1013000070E067557C4F2B2D45E08FE993E00E94FC
:1013100099090E94E8088B2DDF91CF911F910F91C1
:10132000FF90EF90DF90CF90BF90AF909F90089587
:101330000895FF920F931F93CF93DF938C01F62EA6
:10134000D72FC42F222349F081E0809377010E9498
:10135000DD25909376018093750180917701882334
:10136000C1F080917501909176010E94E925069760
:1013700080F0EF2DFD2FD8014C2F50E0CD01801BC8
:10138000910B841795071CF48D918193F7CF1092E0
:101390007701DF91CF911F910F91FF900895809178
:1013A0007801811112C08091D80080618093D800AB
:1013B0008AE18A95F1F700C08091D90080FD02C0D2
:1013C00082E001C081E08093780181E09091780112
:1013D000913009F080E008950C94CF090E94EC0947
:1013E000809304018091040163E2882311F080E07E
:1013F00001C083E20E94060B0E94CF0981110C9468
:10140000090A08950E94CF09811102C00C940F0AA5
:10141000089562E070E085E091E00C94731762E05B
:1014200070E085E091E00C947C170E9420118823E5
:1014300061F080E891E00E94261181E090E00E9436
:101440005E18892B11F40C942311089580917F016B
:10145000883039F460E080E891E00E941013109227
:101460007F010895CF93DF93D82FC92F0E94150ACB
:1014700080E090E00E945E18892B79F4ED2FFC2F1C
:1014800080E090E0DC01A658BE4F2C91219301969C
:1014900085309105B9F781E001C080E0DF91CF91FF
:1014A0000895CF93DF9300D0CDB7DEB789839A83B9
:1014B0000E94260A8981E82F9A81F92F80E090E026
:1014C0002191DC01A658BE4F2C93019685309105E1
:1014D000B9F70F900F90DF91CF910895CF92DF92DF
:1014E000EF92FF920F931F93CF93DF938B01982F6F
:1014F00011110BC0442329F0E82FF0E0E756F94F13
:101500009491692F792F892F73C0212F30E0E82F14
:10151000F0E0442321F0E756F94FE491F0E046E093
:10152000049FC0011124CFEFD0E0BE010E948C2D9A
:10153000DB014BEA4603C001479F900D1124800F49
:10154000911D800F911D982F990F890FAE01421B9D
:10155000530BE49F7001E59FF00CF49FF00C1124F5
:101560004F2D819FB0011124672F77278E01061B15
:10157000170BB801E69F8001E79F100DF69F100D35
:101580001124712F6E01C81AD108C29EC001C39EDA
:10159000900DD29E900D1124892F9927C81BD90B2D
:1015A000EC9F9001ED9F300DFC9F300D1124932F87
:1015B000A230B10569F02CF41097B9F0119751F0F1
:1015C00012C0A430B10559F03CF0169761F40DC07B
:1015D0007F2D432F9E2F0AC0912F7F2D02C0732F86
:1015E0009F2D4E2F03C09F2D412F7E2F692F842FBB
:1015F000DF91CF911F910F91FF90EF90DF90CF90EF
:10160000089541E00E946E0A08950895E8E1F1E02E
:101610008083618308950E94010B0895CF93DF9327
:10162000762FE901682F842F0E940B0B7983688342
:101630008A83DF91CF910895453608F044E60C94F3
:101640000E0B8091B503282F269530E0211531052A
:1016500019F48170826005C02B32310524F081704D
:1016600084658093B5038091B803853618F084E6CD
:101670008093B803089588E090E00C947E2ECF9379
:10168000DF9300D000D0CDB7DEB7AB01BC014983FA
:101690005A836B837C830E94210B49815A816B8121
:1016A0007C8188E090E00F900F900F900F90DF9179
:1016B000CF910C949C2EE5EBF3E083E080831182C4
:1016C0008FEF828384E683831482A3EFB2E01296C5
:1016D0008C911297836012968C93608171818281C4
:1016E00093810C943F0B80918E0380FF08C086E6A7
:1016F00095E09F938F930E9459050F900F908091D2
:101700008E0380FF0FC08091B50381701F928F936D
:1017100089E495E09F938F930E9459050F900F9055
:101720000F900F9080918E0380FF0FC08091B503C2
:1017300086951F928F938EE295E09F938F930E94E0
:1017400059050F900F900F900F9080918E0380FF9E
:101750000EC08091B6031F928F9384E195E09F9312
:101760008F930E9459050F900F900F900F908091CA
:101770008E0380FF0EC08091B7031F928F938AEF74
:1017800094E09F938F930E9459050F900F900F90B4
:101790000F9080918E0380FF0EC08091B8031F923E
:1017A0008F9380EE94E09F938F930E9459050F9042
:1017B0000F900F900F9080918E0380FF0EC080914C
:1017C000B9031F928F9384EC94E09F938F930E94B0
:1017D00059050F900F900F900F9008958091B503C9
:1017E00080FF02C08695089580E008959091B90326
:1017F000933018F49F5F9093B903882351F0609160
:10180000B5037091B6038091B7039091B8030C941F
:101810003F0B089581E00C94F60B9091B903992346
:1018200019F091509093B903882351F06091B5035A
:101830007091B6038091B7039091B8030C943F0B5D
:10184000089581E00C940D0C70E00C94AF1460913D
:1018500019018091B50380FF0AC08091180123E02F
:10186000829FC001112486549C4F0C94240C8091BB
:101870001A0190911B01891780F7E82FF0E09F0172
:10188000220F331FE20FF31FE654FC4F1182108228
:1018900012828F5FF0CF9091B50390FF16C09091A8
:1018A0001A0120911B01921770F4E92FF0E0DF017B
:1018B000AA0FBB1FEA0FFB1FE654FC4F8183608316
:1018C00042839F5FF0CF0C94270C0895CF93DF9352
:1018D00000D01F92CDB7DEB79091B50390FF0AC03C
:1018E0009E012F5F3F4F0E941C0B4B8169818A81B3
:1018F0000E944B0C0F900F900F90DF91CF910895A5
:10190000CF93DF93EC01EC81F0E0EC56FA4F449179
:10191000E5EBF3E0628181810E94660C8C818F5F30
:101920008C83DF91CF910895CF93DF93EC01E5EBAA
:10193000F3E0438162818C810E94660C8C818F5F11
:101940008C83DF91CF9108950F931F93CF93DF93F3
:1019500000D01F92CDB7DEB78C0180918801811134
:101960000AC09E012F5F3F4F44E66FEF0E941C0BA1
:101970008A8180938801F8018481813051F028F0B8
:10198000823061F4409188010AC08091880140E072
:1019900007C06091880140E080E003C040E080E043
:1019A00060E00E944B0CF801248130E0C9010196EF
:1019B00063E070E00E94A02D84830F900F900F9041
:1019C000DF91CF911F910F9108956F927F928F9227
:1019D0009F92AF92BF92CF92DF92EF92FF920F93BE
:1019E0001F93CF93DF9300D000D0CDB7DEB7182F71
:1019F000F62E042FB22E9091B50390FFC3C0E92FAD
:101A0000E695AE2FB0E0A95BBE4F8C918093F302B8
:101A10009E7F923061F49E012F5F3F4F812F0E9485
:101A20001C0B4B8169818A810E944B0C60C0823003
:101A300019F40091B8035BC0863019F41091B60315
:101A400056C08930D9F3893109F051C0E9518E2F40
:101A500080958170E82EE695F0E0EC56F94FC59040
:101A6000D490A12CDD242CEA822E22E0922E6091CB
:101A70001C01A616D0F56A2C712C6C9CC0016D9CC3
:101A8000900D7C9C900D112470E00E948C2D812F74
:101A9000EE2011F0860F01C0861B90918E0390FFFF
:101AA00013C0DF92CF921F92EF921F928F931F92DB
:101AB000AF929F928F928C830E9459050FB6F89433
:101AC000DEBF0FBECDBF8C8190911A01690E711CD3
:101AD0009301220F331F260D371D26543C4F402FF4
:101AE0006F2D0E941C0BA394C2CF0E94270C8091E3
:101AF000B603811308C08091B7038F1104C0809191
:101B0000B803801729F08091F50282608093F50276
:101B10001093B603F092B7030093B803BB20E9F02B
:101B20006091B5037091B6038091B7039091B803AB
:101B30000E943F0B80918E0380FF24C08091B803E8
:101B40001F928F938091B7031F928F938091B6035A
:101B50001F928F9387E892E00CC080918E0380FFE4
:101B600011C01F920F931F92FF921F921F9380E646
:101B700092E09F938F930E9459050FB6F894DEBFB1
:101B80000FBECDBF0F900F900F900F90DF91CF91B0
:101B90001F910F91FF90EF90DF90CF90BF90AF908B
:101BA0009F908F907F906F900895E5EBF3E0918187
:101BB000282F4381628188E0890F0C94E50C81E035
:101BC0000C94D50DE5EBF3E09181282F43816281E0
:101BD00088EF890F0C94E50C81E00C94E20DE5EBA5
:101BE000F3E0628128E0620F08F46FEF282F438151
:101BF00081810C94E50C81E00C94EF0DE5EBF3E0B2
:101C0000628128E0621B08F460E0282F4381818113
:101C10000C94E50C81E00C94FE0DE5EBF3E04381C0
:101C200028E0420F08F44FEF282F628181810C9445
:101C3000E50C81E00C940D0EE5EBF3E0438128E028
:101C4000421B08F440E0282F628181810C94E50C4E
:101C500081E00C941C0E20E00C94E50CFF920F9395
:101C60001F93CF93DF93EC01F12C0FEF10E0609105
:101C70001C01F616E8F420911A0130E02F0D311DF9
:101C8000C901880F991F280F391F26543C4F70E057
:101C9000C8010E94A02D962F8C814091B8036091BD
:101CA000B703F99E800D11240E941C0BF394DFCF23
:101CB0000E94270C9A818C8190FF02C08F5F01C027
:101CC00081508C83DF91CF911F910F91FF900895E8
:101CD0008F929F92AF92BF92CF92DF92EF92FF923C
:101CE0000F931F93CF93DF93EC018A8180FF03C092
:101CF000BB24BA9402C0BB24B3948C8181110DC063
:101D000081E0B81206C080911C01815080938A0145
:101D100002C010928A0181E08C83A12C46E4942EAB
:101D200080911C01A81608F044C0CA2CD12C8091C7
:101D30001A018601080F111DC801880F991F080F8D
:101D4000191F06541C4FF80111821082128234E0D0
:101D5000E32EF12C812C90918A01980D97342CF070
:101D6000892F692D0E947E2D05C097FF03C08091A9
:101D70001C01980F492F990F550BC416D50691F4E5
:101D80008091B8038E9DA0018F9D500D1124559513
:101D900047955595479598016091B7038091B60393
:101DA0000E941C0B8B0CF1E0EF1AF108A1F6A39432
:101DB000B7CF0E94270C20918A0181E0B8120EC093
:101DC000211107C080911C01815080938A011C82DF
:101DD00010C0215020938A01BC820BC030E0C901A1
:101DE000019660911C0170E00E94A02D80938A01F1
:101DF0008C83DF91CF911F910F91FF90EF90DF9037
:101E0000CF90BF90AF909F908F9008951F93CF93E6
:101E1000DF93EC018C81811109C081E08C831092E9
:101E2000890192E0909317018093160180911A0125
:101E300090911B01891770F4E82FF0E09F01220FA9
:101E4000331FE20FF31FE654FC4F118210821282FF
:101E50008F5FF0CF10E060911C011617B8F5E12FED
:101E6000F0E070E0CF010E94A02D40911A01480FD0
:101E700080918901082E000C990B50E0E817F907B2
:101E8000C4F020911701022E000C330B2E173F07D0
:101E900084F09A01220F331F240F351F26543C4F24
:101EA0004091B8036091B7038091B6030E941C0B68
:101EB0000BC0FA01EE0FFF1F4E0F5F1FFA01E65431
:101EC000FC4F1182108212821F5FC5CF0E94270C27
:101ED0008091160120918901280F2093890190910A
:101EE0001701980F9093170119165CF4022E000C3D
:101EF000330B40911C0150E0415051092417350724
:101F000034F0819580931601813009F41C82DF91B1
:101F1000CF911F9108958F929F92AF92BF92CF92CF
:101F2000DF92EF92FF920F931F93CF93DF93EC0119
:101F30004C81042F10E09801D8010E94E42D9B01F0
:101F4000AC010E94FA2D6B017C01E0E2F0E0E01BA5
:101F5000F10BA5E5B0E09B01AC010E94FA2D4B010D
:101F60005C019F01DF010E94DC2D9B01AC010E94FE
:101F7000052E9B01AC012C0D3D1D4E1D5F1DC501A5
:101F8000B4010E94B42D822F022F2A3228F493E04C
:101F9000299F900111240DC025E530E0281B31094F
:101FA000C901880F991F280F391F37FF02C02F5F03
:101FB0003F4F35952795122F1095F12C85E5E82E8A
:101FC000E01A80911C01F816C0F4F1FC02C08E2DBD
:101FD00001C0802F20911A0130E02F0D311DA90181
:101FE000440F551F240F351F26543C4F412F60913D
:101FF000B7030E941C0BF394E4CF0E94270C8C8142
:10200000811102C091E003C0803219F49FEF9093D8
:10201000150190911501890F8C83DF91CF911F914C
:102020000F91FF90EF90DF90CF90BF90AF909F9077
:102030008F9008950F931F93CF93DF93EC0100E0EF
:1020400010E080911C01282F30E00217130724F5BF
:1020500090911A019801290F311DA901440F551FB4
:10206000240F351F26543C4F869590E04C8108176D
:1020700019071CF4442331F002C0411103C0409100
:10208000B80301C040E06091B7038091B6030E949D
:102090001C0B0F5F1F4FD5CF0E94270C2C8130E007
:1020A0002F5F3F4F217033272C83DF91CF911F91FA
:1020B0000F9108957F928F929F92AF92BF92CF928D
:1020C000DF92EF92FF920F931F93CF93DF93FC0168
:1020D000BB24B3948281833008F4B12C948081E0D6
:1020E000848300E015E05BE4A52E88248394EE242D
:1020F000EA94F12C7BE4C72ED12CECE47E2E809167
:102100001C01081708F08DC0C02FD0E01C9FF00103
:102110001D9FF00D1124E257FE4F911003C0138252
:10212000128265C08381882389F12FEF280F2383D2
:102130003481332321F0972D981B892F01C0822FE2
:102140009091B8031C9FF0011D9FF00D1124E257E0
:10215000FE4F899FC0011124B6010E948C2D62831D
:10216000211104C0332311F01482A382B1103FC0A7
:102170001C9FF0011D9FF00D1124E257FE4F80912E
:10218000B60380838091B703818331C00E94592EAA
:102190008230914064F5BB2031F00E94592EB70186
:1021A0000E94A02D02C08091B6031C9FF0011D9FCC
:1021B000F00D1124E257FE4F8083BB2059F00E949E
:1021C000592E2091B7032695622F70E00E94A02D12
:1021D000820F02C08091B7031C9FF0011D9FF00D7C
:1021E0001124E257FE4F81831282A3828482809160
:1021F0001A019E01280F311DC901880F991F280F50
:10220000391F26543C4F1C9FF0011D9FF00D1124D7
:10221000E257FE4F4281618180810E941C0B0F5F5B
:102220006ECFDF91CF911F910F91FF90EF90DF90D4
:10223000CF90BF90AF909F908F907F900C94270C81
:102240008091F50208951092F502089525E0E5EBDE
:10225000F3E0DC0101900D922A95E1F72091F30261
:102260003091F4024091F502FC01258336834783C7
:102270000895E3EFF2E01182828184608283089501
:102280006091B503669570E04BE050E08DE191E020
:102290000E94692E892B19F481E08093F4020E9438
:1022A000DD259093ED028093EC028091F50284602D
:1022B0008093F50280918E0380FF08C087E492E04E
:1022C0009F938F930E9459050F900F90089510923D
:1022D000F4028091F50284608093F50280918E0370
:1022E00080FF08C08EE292E09F938F930E94590571
:1022F0000F900F9008959091B50390FF59C0917081
:10230000811102C0926006C08B3210F0946502C049
:10231000880F982B9093B5038091F502816080938C
:10232000F5026623B1F06091B5037091B603809118
:10233000B7039091B8030E943F0B80918E0380FFFA
:102340001BC08091B50386951F928F938AE094E01D
:102350000BC080918E0380FF0FC08091B5038695DE
:102360001F928F938CEE93E09F938F930E94590559
:102370000F900F900F900F906091B503669570E0ED
:102380004BE050E08DE191E00E94692E892B19F01D
:102390000E94671102C00E94401181E08093EF0209
:1023A0004091B8036091B7038091B6030C942B0E53
:1023B0000895682F9091B503969581E0890F8B322F
:1023C00008F081E00C947B1181E00C94D911682F06
:1023D0009091B50396958FEF890F09F48AE20C94DA
:1023E0007B1181E00C94E71161E00C947B118091EA
:1023F000B50381608093B50380918E0380FF0DC08B
:102400001F9281E08F938EE793E09F938F930E94BA
:1024100059050F900F900F900F908091B5038695FE
:102420000C94F41160E00C947B118091F202811104
:1024300065C080918E0380FF08C08DEA94E09F9371
:102440008F930E9459050F900F9080918E0380FF0B
:1024500008C087E994E09F938F930E9459050F90DD
:102460000F900E944324811110C080918E0380FF41
:1024700008C08FE694E09F938F930E9459050F90B8
:102480000F900E94EA240E945B0B0E943B0B60931A
:10249000B5037093B6038093B7039093B80380910C
:1024A000F50283608093F5026E7FC1F480918E0304
:1024B00080FF08C086E294E09F938F930E945905A5
:1024C0000F900F900E945B0B0E943B0B6093B50333
:1024D0007093B6038093B7039093B8030E94210BC7
:1024E0000E94730B0E9439118091B50380FF03C0D5
:1024F00086950E94121281E08093F20208958091E5
:10250000B50381608093B50380918E0380FF0DC079
:102510001F9281E08F9385E493E09F938F930E94B5
:1025200059050F900F900F900F908091B5038695ED
:102530000C9412128091B5038E7F8093B503609145
:10254000B5037091B6038091B7039091B8030E94D0
:102550003F0B80918E0380FF0FC08091B503817087
:102560001F928F938DE093E09F938F930E94590564
:102570000F900F900F900F900E9467118091F502BD
:1025800081608093F5022FEF80E792E02150804038
:102590009040E1F700C000000C94270C80918E035E
:1025A00080FF10C08091B503809581701F928F933A
:1025B00085EB93E09F938F930E9459050F900F90A6
:1025C0000F900F908091B50380FD0C949A120C949B
:1025D000F7118091B5038E7F8093B50380918E03B0
:1025E00080FF0CC01F921F9283ED92E09F938F9308
:1025F0000E9459050F900F900F900F900E94671145
:102600008091F50281608093F5022FEF80E792E0E0
:10261000215080409040E1F700C000000C94270C4E
:102620001F93CF93DF93EC01162F8F8180FF0FC094
:10263000888180FF0AC08091B50381608093B503D3
:10264000888186950E947B1102C00E94E9128F81C9
:1026500081FF06C0212F4B816A8189810E94E50C90
:102660008F8182FF08C08E81882319F00E9440115B
:1026700002C00E9467118F8183FF03C081E08093B5
:10268000EF02DF91CF911F910895EF92FF920F9388
:102690001F93CF93DF938091F402882309F4CEC077
:1026A0008091F302E091B503E695E81BE093EE021A
:1026B000823049F4F0E0E057FA4FE491CE2FD0E0B9
:1026C00000E81CE059C0863049F4F0E0E357FA4FC7
:1026D000E491CE2FD0E004E91CE04EC0893051F4E3
:1026E000E695F0E0E657FA4FE491CE2FD0E00EE207
:1026F0001EE042C08F3051F4E695F0E0E957FA4F02
:10270000E491CE2FD0E008E61EE036C0853149F4D2
:10271000F0E0EC57FA4FE491CE2FD0E006E01FE056
:102720002BC08831D9F0833239F4E2E8F5E0C59165
:10273000D49104EA1CE020C08432A9F08532C1F4AF
:102740008E2F63E00E94722DE92FF0E0E158FA4FDE
:10275000E491CE2FD0E00AE510E10EC0C8E2D0E04F
:102760000BE81FE009C0C4EFD1E00AE110E104C0AA
:10277000C0EDD7E005E01BE08091EF02882389F0EF
:102780001092EF020E94DD259E0120953095820F68
:10279000931F9093ED028093EC021092F10210923D
:1027A000F0028091EC029091ED020E94E9258C17D5
:1027B0009D0708F443C080918D01882311F1109288
:1027C0008D0180918B0190918C010E94E9258033CD
:1027D0009547B8F00E94DD2590938C0180938B0182
:1027E00080918E0380FF08C085E092E09F938F93D5
:1027F0000E9459050F900F908091F5028860809398
:10280000F502E090F002F090F102E091EC02F0911C
:10281000ED02CE0FDF1FD093ED02C093EC028CEEE1
:1028200092E0F80109958091F0029091F102892BD4
:1028300029F4EF2819F081E080938D01DF91CF9189
:102840001F910F91FF90EF900895882311F0FA01E6
:1028500001C0FB010994CF93DF93C82FD62F0E94AC
:10286000EE0B8C1740F00E94EE0B8D1720F4DF91D9
:10287000CF910C94E4118C2FDF91CF910C94F41133
:102880001F93CF93DF93FB011281111163C0EC0101
:102890000E9478238272FE01E35CFC45E431F1057D
:1028A00008F057C0EA5AFF4F0C94D62D0E94CE1262
:1028B00051C041EF51E164EE71E104C044EE51E1D9
:1028C00061EF71E10E94251445C04CEE5DE06FEDB3
:1028D0007DE0F8CF4FED5DE06CEE7DE0F3CF4AE0B8
:1028E0005EE06BEF7DE0EECF4BEF5DE06AE07EE017
:1028F000E9CF48E25EE069E17EE0E4CF49E15EE0F5
:1029000068E27EE0DFCF41E25CE06AE07CE0DACFC3
:102910004AE05CE061E27CE0D5CF81E017C065E091
:1029200082E010C068E086E00DC06EE089E00AC079
:1029300064E18FE007C067E185E104C088E106C07B
:1029400062E289E10E942B1405C083E20E94F41127
:1029500001C011E0812FDF91CF911F910895539A0B
:102960002BB1277F3BB138604FB7F894FC01CB0106
:10297000880F991F680F791F6E0F7F1FE617F707E3
:1029800089F0819198E03BB9000000C087FF2BB926
:10299000880F000000C000C000C02BB900C09A958D
:1029A00091F7ECCF4FBF8FE594E00197F1F700C0AE
:1029B00000000895AF92BF92CF92DF92EF92FF9204
:1029C0000F931F93CF93DF937C015B01C42FD22F12
:1029D000FC0182818823F9F04093F8020E94DD25F2
:1029E0009093F7028093F60280E28C0F883008F013
:1029F00061C0C77081E001C0880FCA95EAF7DF9116
:102A0000CF911F910F91FF90EF90DF90CF90BF90EB
:102A1000AF900C94791B1091F802141335C080917B
:102A2000F6029091F7020E94E9256C01B701C501F9
:102A30000E946A20C816D90638F5C0E2CD0F1D17CE
:102A4000B9F080E2810F883040F4177081E001C056
:102A5000880F1A95EAF70E94801BC83048F481E07D
:102A60009D2F977001C0880F9A95EAF70E94791BF5
:102A7000802F0E94661BC830E8F4D77081E001C047
:102A8000880FDA95EAF70AC080E28C0F883090F45C
:102A9000C77081E001C0880FCA95EAF7DF91CF9136
:102AA0001F910F91FF90EF90DF90CF90BF90AF906C
:102AB0000C94801BDF91CF911F910F91FF90EF90AD
:102AC000DF90CF90BF90AF9008950F939C01CB0102
:102AD000243F4CE5340731F188F4293DFCE53F07FC
:102AE000D9F02A3D4CE5340779F1283D3C45A9F55C
:102AF00006E221EE41EE68ED7CE52BC0263FFCE5C9
:102B00003F07E1F0A8F0273F3C4539F507E225EE05
:102B100046EE67EF7CE51DC007E225EE45EE69ED68
:102B20007CE517C006E221EE40EE64EF7CE511C0C3
:102B300007E225EE44EE65EF7CE50BC006E221EEF0
:102B400042EE66EF7CE505C008E221E045EE6AED65
:102B50007CE50E94DA1480E008C0FC0182818823B1
:102B600019F01092F80201C081E00F910895CF93FF
:102B7000DF93EC01FB018281882309F41FC1C2307D
:102B8000FCE5DF0708F41BC1C6319CE5D90738F026
:102B90009E012B5F3C452930310508F010C10E9491
:102BA00056249093910480939004C031ECE5DE07A5
:102BB00009F4C3C008F041C0C8308CE5D80709F457
:102BC0009AC0F0F4C430ECE5DE0709F487C068F47D
:102BD000C2308CE5D80709F477C0C330DC4509F072
:102BE000E3C080919004826076C0C630ECE5DE07D9
:102BF00009F46EC008F07BC08091900488606BC0BF
:102C0000CC308CE5D80709F485C068F4CA30ECE50F
:102C1000DE0709F474C008F079C00E94DA1D8091C3
:102C20009004806858C0CE308CE5D80709F476C08F
:102C300008F07FC0809190048BC0CC3FECE5DE07AC
:102C400009F44FC018F5C3318CE5D80709F47DC0ED
:102C500078F4C131ECE5DE0709F473C0C231DC451C
:102C600009F0A2C00E94DA1D809190048F7733C0D2
:102C7000C5318CE5D80709F472C008F486C0CB3F93
:102C8000DC4509F091C0809191043EC0C115FDE57D
:102C9000DF0709F45FC058F4CE3F9CE5D90709F47B
:102CA00044C008F43FC08091910482602DC0C230BE
:102CB000FDE5DF0709F475C008F45DC0C330DD45EC
:102CC00009F072C080E06EC080919004816003C002
:102CD0008091900480618093900466C080919004FC
:102CE00011C0809191048260809391045DC08091B5
:102CF00090048062F0CF809190048064ECCF80914A
:102D0000900488608460E7CF8160EECF809190046A
:102D10008E7FE1CF809190048D7FDDCF80919004F4
:102D2000877FD9CF8091910418C0809191048D7FC5
:102D3000DBCF809190048F7ECECF809190048F7DE9
:102D4000CACF809190048F7BC6CF80919004877FFB
:102D50008B7FC1CF809191048D7F8E7FC5CF809175
:102D6000900482FB222720F991E0922790FB82F9C0
:102D700090FB83F9B0CF80919104982F909591703A
:102D80008E7F892B90FB81F9AFCF0E94DA1D809155
:102D9000900487FB222720F991E0922790FB87F986
:102DA0009ACF81E00E94EC2480919004909191044C
:102DB0000E9467240E94DA1D80E001C081E0DF915B
:102DC000CF910895CF93DF9386319C4541F5EB0178
:102DD0000E947823282F8A8140912801509129014F
:102DE000882379F02A7A91E009F490E09093F9022F
:102DF000911102C069E201C065E3CA010E94322557
:102E00000AC08091F902811102C069E201C065E344
:102E1000CA010E9434250E94C42380E001C081E0E1
:102E2000DF91CF9108958EE14A9B02C08150E1F776
:102E30004A9BFECF08955A9880E28A95F1F75A9AF4
:102E40000895FC014AE04A95F1F730E090E080E017
:102E500021E0961779F040E14A95F1F7880F4A9BF7
:102E600002C08160322700C0000040E14A95F1F7BE
:102E70009F5FEFCF90E19A95F1F729B100C0000074
:102E800040E14A95F1F722FB992790F99327208199
:102E9000920F90830895EF92FF920F931F93CF9319
:102EA000DF931F92CDB7DEB7F62E1982E82E8C0184
:102EB000802F8E198F1558F40E94131768E0CE01E9
:102EC00001960E942117F80181938F01F1CF81E0D3
:102ED0009981911180E00F90DF91CF911F910F9117
:102EE000FF90EF9008959093FC028093FB02609313
:102EF000FA02529A5A9A08959093FC028093FB0228
:102F00006093FA0252985A9AEA9AE9E6F0E08081D0
:102F10008F7C80830895615091E001C0990F6A957C
:102F2000EAF720E031E0992361F0492F482319F0B6
:102F30005A9A232701C05A9840E24A95F1F796958C
:102F4000F2CF222311F05A9A01C05A9880E28A9552
:102F5000F1F75A980895EF92FF920F931F93CF9332
:102F6000DF931F92CDB7DEB7162F082F7C018E2D71
:102F7000801B811758F4F70181917F0189830E949A
:102F80001B1768E089810E948B17F1CF0F90DF91AA
:102F9000CF911F910F91FF90EF9008951F920F9284
:102FA0000FB60F9211240F931F932F933F934F93BC
:102FB0005F936F937F938F939F93AF93BF93EF93A1
:102FC000FF93CF93DF931F92CDB7DEB719820E9494
:102FD000131767E0CE0101960E942117382F36950E
:102FE00036953695932F96959570232F2570920FD1
:102FF000292F2370969596958770920F891348C054
:103000008981811145C08091FA02831708F440C07C
:1030100080E18A95F1F75A9A529AA2E0AA95F1F7BF
:1030200000C00091FB021091FC02B8E03B9F000D34
:10303000111D11245A98F8016581662321F08681BB
:1030400097810E94AB170E941B17F0E1FA95F1F7E8
:103050005A9852985A9A80E18A95F1F7D8011296B7
:103060006C911297662369F013968D919C91149739
:103070000E944B17D801ED91FC91811105C082E0AF
:1030800004C0D801ED91FC9188E080830E94131761
:103090000F90DF91CF91FF91EF91BF91AF919F91F1
:1030A0008F917F916F915F914F913F912F911F91E0
:1030B0000F910F900FBE0F901F9018950F931F93B5
:1030C000CF93DF932091FA0230E0281739070CF4F0
:1030D00071C09C0193E0220F331F9A95E1F7C091D4
:1030E000FB02D091FC02C20FD31FF894529A5A9857
:1030F00045E04A95F1F70000982F969595708570F8
:10310000890F982F937086958695890F8901082BD2
:103110000E941B1784E08A95F1F700C067E0802FBA
:103120000E948B1740E14A95F1F752985A9A4A99B2
:1031300002C000C0FCCF87E090E04A9B0EC0019720
:1031400051F4529A5A9AE881F98181E08083789407
:1031500081E090E031C000C0F0CF6D81662381F046
:103160008E819F810E944B1781110AC0529A5A9AF0
:10317000E881F98182E08083789482E090E01CC04D
:103180000E94131780E28A95F1F75A98529A40E10B
:103190004A95F1F76A81662321F08B819C810E9418
:1031A000AB170E941B17E881F9811082789480E0A8
:1031B00090E002C084E090E0DF91CF911F910F91E9
:1031C000089590930203809301030895E091010311
:1031D000F0910203309721F00190F081E02D0994E5
:1031E00080E00895EF92FF920F931F93CF93DF93A8
:1031F000E0910103F09102033097B1F18C0102805C
:10320000F381E02D099580918E0382FF2DC080FF10
:1032100004C081EA97E00E94C004E80118E08BE94D
:10322000E82E87E0F82E80918E0380FF0BC0888106
:103230001F928F93FF92EF920E9459050F900F906B
:103240000F900F90115021961111EDCF80918E03A8
:1032500080FF0AC089E997E0DF91CF911F910F911C
:10326000FF90EF900C94C004DF91CF911F910F91CC
:10327000FF90EF9008952091FF0230910003821794
:10328000930771F0909300038093FF02E091010394
:10329000F0910203309721F00680F781E02D099428
:1032A00008952091FD023091FE028217930771F07C
:1032B0009093FE028093FD02E0910103F0910203DE
:1032C000309721F00084F185E02D0994089585B7A9
:1032D000806885BF85B7806885BF08950895089583
:1032E0000C946F190C9462050E9467190E946E1964
:1032F0000C9470190C94CF09089508950E94D42558
:103300000E94A8080E942F260E9415120C94721980
:10331000CF93C82F80918E0382FF1EC080FF04C010
:103320008AEB97E00E94C00480918E0380FF0CC05E
:103330001F92CF9385EB97E09F938F930E9459053F
:103340000F900F900F900F9080918E0380FF04C01C
:1033500083EB97E00E94C0048C2FCF910C943B0626
:10336000BF92CF92DF92EF92FF920F931F93CF9372
:10337000DF93CDB7DEB72B970FB6F894DEBF0FBE45
:10338000CDBF0E947C190E947D190E9419090E94DC
:103390007A19811111C08FEF89838A831B820E9461
:1033A000DD258160782F9D838C8349815A816B81D3
:1033B0008D810E944B1A42C084E0C82E83E0D82E33
:1033C00000E010E0B02E802F0E944008F601E1904E
:1033D0006F01E82631F40F5F1F4F0A30110591F796
:1033E000DACF90918E0391FF04C08B870E9446082C
:1033F0008B8590E0FF24F3942F2D2E21D1F09E8316
:10340000BF828F2191E009F490E098870E94DD252A
:103410008160782F9A8789874E815F8168858A8548
:103420000E944B1AF801EC5FFC4F8081F826F08275
:1034300005C09F5FFF0C9830F9F6CDCF0E94451371
:10344000109103030E94E6181817A9F00E94E618CD
:10345000809303032B960FB6F894DEBF0FBECDBF4B
:10346000DF91CF911F910F91FF90EF90DF90CF9060
:10347000BF900C9488192B960FB6F894DEBF0FBE40
:10348000CDBFDF91CF911F910F91FF90EF90DF9013
:10349000CF90BF900895CF93DF93CDB7DEB72B9732
:1034A0000FB6F894DEBF0FBECDBF4F835887698734
:1034B0007A878B87DE01119686E0FD0111928A954D
:1034C000E9F785E0FE01379601900D928A95E1F7C4
:1034D00049815A816B817C818D819E810E946D2002
:1034E0002B960FB6F894DEBF0FBECDBFDF91CF9104
:1034F0000895FC01808191810E9439230895CF9322
:10350000882309F482C0C82F8238C1F40E94E618CB
:1035100081FD7BC069E380912801909129010E947F
:1035200032250E94C4232FEF81EE94E02150804089
:103530009040E1F700C0000069E319C08338F1F45E
:103540000E94E61880FD61C063E58091280190919A
:1035500029010E9432250E94C4232FEF81EE94E0BE
:10356000215080409040E1F700C0000063E5809169
:103570002801909129010E94342544C08438C1F467
:103580000E94E61882FD41C067E480912801909175
:1035900029010E9432250E94C4232FEF81EE94E07E
:1035A000215080409040E1F700C0000067E4DFCF89
:1035B0008CEF8C0F813AD0F46C2F80912801909180
:1035C00029010E94FD24882349F06C2F8091280155
:1035D000909129010E9434250E94C4236C2F809170
:1035E0002801909129010E9432250CC080E28C0FA5
:1035F000883058F4C77081E001C0880FCA95EAF797
:103600000E947B23CF910C94C423CF9108958823EB
:1036100009F45BC0682F823879F40E94E61881FFB4
:1036200054C069E380912801909129010E943225BC
:103630000E94C42369E310C08338B1F40E94E618E5
:1036400080FF43C063E580912801909129010E9489
:1036500032250E94C42363E58091280190912901BD
:103660000E9434250C94C423843879F40E94E6180F
:1036700082FF2BC067E480912801909129010E946C
:1036800032250E94C42367E4E7CF8CEF860F813A8E
:1036900018F380E2860F883048F4677081E001C03B
:1036A000880F6A95EAF70E948123DCCF8BE5860FAD
:1036B000833020F480E090E00C943B19685A673125
:1036C00020F480E090E00C9451190895CF93C82F16
:1036D0000E947F1AC93349F42FEF87EE93E02150FF
:1036E00080409040E1F700C000008C2FCF910C94F7
:1036F000071B882321F00E947B230C94C423089588
:10370000882321F00E9481230C94C4230895BF9242
:10371000CF92DF92EF92FF920F931F93CF93DF939D
:103720007C01062FC72FFC01D581D295DF70128155
:1037300011110E9498230E947123882399F011236C
:1037400089F08C2F807F803421F080E2800F8830D8
:1037500048F082E00E940F240E94712391E0B82E6D
:10376000B92601C0B12CCC2EC2948FE0C822D12C36
:10377000F601E659FF4F0C94D62D8C2F807FCF7029
:10378000882311F0C295C07F112399F0CC2309F44E
:103790006CC180E2800F883010F0011104C08C2FC2
:1037A0000E947B2303C08C2F0E948B230E94C42382
:1037B0005CC1802F0E94071BCC2309F47BC180E2EF
:1037C000800F883010F0011104C08C2F0E948123DB
:1037D00003C08C2F0E9491230E94C4236BC18C2FA5
:1037E000807FCF70803211F0C295C07F002319F026
:1037F0000130C9F022C0112371F0DD2341F0D13036
:1038000031F40E94AB238C2B0E94B12353C10E9440
:10381000AB238C2B1DC0DD2319F0D13009F44AC134
:103820000E94BA2325C0112321F0D63008F042C1EE
:103830000EC0D53008F03EC11BC0112361F0DD235E
:1038400031F0F701858180FF10C18F7085838C2F47
:103850000E94791B2FC1DD2359F0093309F016C1ED
:10386000FFEF27EE83E0F15020408040E1F70CC1EC
:103870008C2F0E94801B1EC18C2F837009F049C0C1
:1038800011111FC1402F429546954770440F440FB8
:10389000602F6F70862F90E0A0E0B0E0042E04C08F
:1038A000880F991FAA1FBB1F0A94D2F704FF10C0EC
:1038B0000FE010E020E030E004C0000F111F221FD5
:1038C000331F4A95D2F7009510952095309503C087
:1038D00000E010E09801C695C695C370D0E0BC0129
:1038E000CD01602B712B822B932BC230D10559F067
:1038F000C330D10559F0219719F00E94B221E1C0DF
:103900000E94A021DEC00E94C421DBC00E949E2133
:10391000D8C0112319F08C2F817001C0869588239F
:1039200009F4CFC0402F429546954770440F440F8D
:10393000602F6F70862F90E0A0E0B0E0042E04C0EE
:10394000880F991FAA1FBB1F0A94D2F704FF10C04B
:103950000FE010E020E030E004C0000F111F221F34
:10396000331F4A95D2F7009510952095309503C0E6
:1039700000E010E09801C695C695C370D0E0BC0188
:10398000CD01602B712B822B932BC230D10559F0C6
:10399000C330D10559F0219719F00E94782291C0C7
:1039A0000E9466228EC00E948A228BC00E94D9216A
:1039B00088C0CF70112339F08C2F0E94FF21802FF7
:1039C0000E94791B7EC0802F0E94801B8C2F0E943A
:1039D000202277C0023F01F128F4003F41F0013F6F
:1039E000A1F03FC0033FF9F0043F39F13AC0112381
:1039F00041F0D53008F05EC08C2F8F710E944522B7
:103A000059C0D63008F056C0F7CF112339F08C2FAB
:103A10008F710E94FF214EC01123C9F38C2F8F712B
:103A20000E94202247C0112329F08C2F8F710E9401
:103A3000EA2140C00E94E5213DC0112349F0CF7129
:103A40008C2F0E94FF2163E08C2F0E94FA2332C04A
:103A500081E00E940F24D23068F182E00E940F249E
:103A600029C0112331F0DD2391F2802F0E947F1AAB
:103A700021C0DD2399F2093349F49FEFE7EEF3E02B
:103A80009150E040F040E1F700C00000802F0E941C
:103A9000071B10C04C2F4F70602FC7010E944406B7
:103AA0000E94112112C04C2F4F70602FC7010E943D
:103AB00047060BC028E0C21AD10884E0C816D1041A
:103AC00020F40E94E6180E943B06BB20D1F00E9421
:103AD0006D2380FD16C0F70112820E9467230E94A9
:103AE000FF21C7010E94A31D0E946723DF91CF9190
:103AF0001F910F91FF90EF90DF90CF90BF900C94AB
:103B00002022DF91CF911F910F91FF90EF90DF90D6
:103B1000CF90BF9008950F931F93CF93DF93EC0145
:103B2000688179818A810E9444238C010E949C22B1
:103B30000E949D21B801CE010E94871BDF91CF9189
:103B40001F910F910895CF93DF93EC0188819981A4
:103B50002B813C81232BE9F09F3F11F48F3FC9F06B
:103B6000CE010E94D50581110CC00E9471238823CB
:103B700081F08A81882369F082E0DF91CF910C94F3
:103B80000F24CE010E948B1DCE01DF91CF910C94AA
:103B9000B005DF91CF9108950E9498230E94A82339
:103BA0000C94C42380912801909129010E9436250C
:103BB0000C94CC1D0E9488230C94D21DE92FE29511
:103BC000EF70F0E03297EE30F105B0F4E658FF4FB9
:103BD0000C94D62D803F91F018F4883E68F40EC006
:103BE000843F51F40BC0883E48F0813F29F406C061
:103BF00093FB882780F9089580E0089581E0089577
:103C00000E9439230E94DE1D0895CF93DF9300D0D8
:103C100000D01F92CDB7DEB70F900F900F900F908E
:103C20000F90DF91CF910895CF93DF9300D000D014
:103C300000D0CDB7DEB726960FB6F894DEBF0FBE24
:103C4000CDBFDF91CF9108951F93CF93DF93C091A4
:103C50000F0316E080911003C81799F0D0E01C9F65
:103C6000F0011D9FF00D1124EF5EFC4F408151814A
:103C700062817381848195810E94141E2196C77090
:103C8000E9CFDF91CF911F91089540914103509169
:103C900042036091430370914403809145039091E6
:103CA00046030C94141ECF93DF93809146038295B4
:103CB0008F7009F051C080914303882309F44CC0F0
:103CC00080910F03C0911003409141035091420332
:103CD0006091440370914503D6E08C17E9F190E0C0
:103CE00061157105B1F15F3F11F44F3F91F1D89F1C
:103CF000F001D99FF00D1124DF01AF5EBC4F11968A
:103D00002C911197521325C02C91421322C0129668
:103D10002C91129721111DC013962D913C9114974F
:103D2000261B370B283C3105A0F4809146038F7089
:103D3000806180934603EA5EFC4F80818F708061D2
:103D4000808381E493E00E94A31DDF91CF910C94C6
:103D5000241E01968770C1CFDF91CF910895AF9255
:103D6000BF92CF92DF92FF920F931F93CF93DF9377
:103D7000CDB7DEB762970FB6F894DEBF0FBECDBFEA
:103D80008C0185E0F801DE011D9601900D928A9567
:103D9000E1F7D8014C9111965C91119712966C91B4
:103DA00012971396AD90BC90149790914103209177
:103DB0004203E0914403F0914503309709F435C183
:103DC0002F3F19F49F3F09F430C181E4C82E83E0EE
:103DD000D82EF0904303D501AE1BBF0BFF2009F492
:103DE000D2C080914603382F307FA83CB10508F03F
:103DF0008FC0311144C0251312C0941310C061113B
:103E00000EC08F708061809346030E94451EC601DC
:103E10000E94A31D80914603F80185832EC0AB2824
:103E200019F15F3F11F44F3FF9F0D62E61111CC01C
:103E300080910F032091100336E0821709F413C11B
:103E400090E0389FF001399FF00D1124EF5EFC4F98
:103E50007181571306C07081471303C072817111BD
:103E600003C001968770E9CFF62E662309F421C1BD
:103E700080914603816080934603F12C1AC125137B
:103E800006C0941304C0611102C0F8019BC04D87A5
:103E90005E878D859E856A8B0E94001E6A898823B5
:103EA00089F1662379F120914603822F82958F70E4
:103EB00090E0029774F080914103909142039887BB
:103EC0008F831986BB86AA862C87CE0107960E940F
:103ED000A31D86E0F801A1E4B3E001900D928A955C
:103EE000E1F70E94531E0E94451E0FC0251721F1C5
:103EF0004D875E878D859E856A8B0E94001E6A892C
:103F0000811129C0C8010E94A31DFF24F394D1C0D0
:103F10003111ECCF7A2DB98AA88A89890E94051EB1
:103F200081E493E00E94A31D86E0D6011D928A954C
:103F3000E9F70E94451EA1CF9413DACF6111D8CFC3
:103F4000F8018583C8010E94A31D86E0D6011D9259
:103F50008A95E9F7AEC06623A9F220914603822F25
:103F600082958F7090E002970CF4B3CF809141035B
:103F7000909142039A8389831B82BD82AC822E83F7
:103F8000CE010196A4CFA83CB10508F042C0F62EA0
:103F9000662309F4B7CF25132BC0941329C02091B1
:103FA000460320FD1CC0822F82958F70C1F0F8015E
:103FB00025838F3041F08F5F982F9295907F822FCD
:103FC0008F70892B8583C8010E94A31D86E0F801AC
:103FD000A1E4B3E001900D928A95E1F741C086E03B
:103FE000F801A1E4B3E001900D928A95E1F761C078
:103FF0004D875E878D859E850E94001E811169CF49
:1040000080914603816080934603C8010E94A31DEE
:1040100050C07A2DB98AA88A89890E94051E86E037
:10402000D6011D928A95E9F71BC0662309F46ACF71
:104030004D875E878D859E850E94001EF82E882301
:1040400009F460CF86E0F801A1E4B3E001900D929D
:104050008A95E1F781E493E00E94791A0E94531E49
:104060000E94451E26C04D875E878D859E850E94D5
:104070003923292F22952F7030E0223031052CF47E
:104080009F7041F0811106C00CC0243031052CF422
:104090009F7049F4805E883020F0C8010E94A31D03
:1040A000DF2CFD2C06C0D80115969C91907F91F7CE
:1040B000F8CF8F2D62960FB6F894DEBF0FBECDBF3E
:1040C000DF91CF911F910F91FF90DF90CF90BF9024
:1040D000AF90089588EC90E008951F93CF93DF93FD
:1040E000CDB7DEB72C970FB6F894DEBF0FBECDBFAD
:1040F0004F83588769877A878B879C87CE0107967D
:104100000E94AF1E882369F08F8198852A853B85A0
:10411000232BF1F19F3F09F063C08F3F09F060C08E
:1041200037C086E0FE013796DE01119601900D92B0
:104130008A95E1F76F817885EA85FB85309741F1B3
:104140007F3F11F46F3F21F12091100330E0C9014E
:1041500001968770992740910F0350E084179507C7
:1041600009F447C069837A83FD83EC8396E0929FCC
:10417000D001939FB00D1124AF5EBC4FFE0131966C
:1041800001900D929A95E1F7809310030E94241EEE
:1041900016E080910F03909110038917C1F1189FC9
:1041A000C00111248F5E9C4F0E94AF1E882379F1BD
:1041B000E0910F031E9FF0011124EF5EFC4F408140
:1041C000518162817381848195810E94141E809146
:1041D0000F0390E001968770992780930F03D9CF42
:1041E0004F81588569857A858B859C850E94141E30
:1041F000CFCF0E94DA1D1092100310920F03E1E45A
:10420000F3E086E0DF011D928A95E9F7C1CF2C9695
:104210000FB6F894DEBF0FBECDBFDF91CF911F91D7
:104220000895EF92FF920F931F93CF93DF938C012A
:10423000892B09F46CC0F12CEE24E394E80121965B
:10424000F8018491843740F4843008F051C0813003
:1042500081F0823019F15BC0853709F444C0A8F1C0
:104260009CE7980F903708F052C08F770E94071B89
:1042700041C00E5F1F4FFE01C49180E28C0F883059
:1042800048F4C7708E2D01C0880FCA95EAF70E94C6
:104290009B2314C08C2F0E947F1A2DC00E5F1F4FCE
:1042A000FE01C49180E28C0F883058F4C7708E2DC7
:1042B00001C0880FCA95EAF70E94A1230E94C42377
:1042C0001AC08C2F0E94071B16C00E5F1F4FFE01E5
:1042D000C491CC2381F08FE99FE00197F1F700C0F2
:1042E0000000C150F6CF0E5F1F4FFE01F49003C0D7
:1042F0000E947F1A8E018F2D882309F49FCFEFE94A
:10430000FFE03197F1F700C000008150F5CFDF9159
:10431000CF911F910F91FF90EF90089508950C9405
:104320008E210E948F2160937D0370937E03809382
:104330007F03909380030C94CC1D08950C949121DD
:104340000F931F9300917D0310917E0320917F03B3
:1043500030918003602B712B822B932B1F910F9137
:104360000C9491210F931F9300917D0310917E0374
:1043700020917F0330918003602371238223932354
:104380001F910F910C9491210F931F9300917D0326
:1043900010917E0320917F03309180036027712765
:1043A000822793271F910F910C94912108950C94CB
:1043B000D6210E94D7216093790370937A0380936A
:1043C0007B0390937C030C94CC1D60E070E0CB01E8
:1043D0000C94D9210F931F9341E050E060E070E00E
:1043E0008A019B0104C0000F111F221F331F8A95F1
:1043F000D2F7C901B8011F910F910C94D9210F93E5
:104400001F9341E050E060E070E004C0440F551F8E
:10441000661F771F8A95D2F78091790390917A036E
:10442000A0917B03B0917C038A019B01082B192B7F
:104430002A2B3B2BC901B8011F910F910C94D92154
:104440000F931F9341E050E060E070E004C0440F20
:10445000551F661F771F8A95D2F740955095609536
:1044600070958091790390917A03A0917B03B0912C
:104470007C038A019B01082319232A233B23C901BA
:10448000B8011F910F910C94D9210F931F9341E014
:1044900050E060E070E004C0440F551F661F771FB6
:1044A0008A95D2F78091790390917A03A0917B034A
:1044B000B0917C038A019B01082719272A273B27F3
:1044C000C901B8011F910F910C94D9210F931F932B
:1044D0000091790310917A0320917B0330917C0342
:1044E000602B712B822B932B1F910F910C94D92150
:1044F0000F931F930091790310917A0320917B030E
:1045000030917C0360237123822393231F910F91A9
:104510000C94D9210F931F930091790310917A0382
:1045200020917B0330917C0360277127822793279A
:104530001F910F910C94D921089528E0929F800D2E
:104540001124A82FA695A695A695877051E001C0C5
:10455000550F8A95EAF785E0A89FD001112420E045
:1045600030E070E0F901EA0FFB1FE95BFC4F40818E
:10457000CB01022E02C0969587950A94E2F78170CE
:104580009927819584278523842780832F5F3F4F38
:104590002530310539F7089528E0929F800D1124C8
:1045A000682F669566956695982F977085E0689F49
:1045B000B001112440E050E080E0FA01E60FF71F5F
:1045C000E95BFC4F208130E0092E02C0369527952B
:1045D0000A94E2F721703327042E01C0220F0A94B7
:1045E000EAF7822B4F5F5F4F4530510531F7089551
:1045F000BF92CF92DF92EF92FF920F931F93CF93D0
:10460000DF938C01C0907D03D0907E03E0907F0308
:10461000F09080038091790390917A03A0917B03BD
:10462000B0917C03C82AD92AEA2AFB2ACFE1D0E03C
:10463000D701C6010C2E04C0B695A795979587950E
:104640000A94D2F780FF07C0BC2EB8018C2F0E94BD
:104650006506019719F4219758F7B12C8B2DDF913E
:10466000CF911F910F91FF90EF90DF90CF90BF906F
:104670000895CF93DF93EC010E94F822BE010E94BF
:104680006506DF91CF9108951F93CF93DF93EB01E0
:1046900090910E03992321F0CB010E94392313C07E
:1046A000882349F0CB010E94F822182F682FCE01F1
:1046B0000E949D2204C0CB010E94CC22182FBE0173
:1046C000812F0E946506DF91CF911F9108958091FF
:1046D00081038595859585950895809181038770DF
:1046E000089590918103977081E009F480E0089526
:1046F00080918D03089590918D03892B80938D0374
:104700000895809590918D03892380938D0308955A
:1047100010928D03089590918C03892B80938C03C4
:104720000895809590918C03892380938C0308953C
:1047300010928C03089590918B03892B80938B03A7
:104740000895809590918B03892380938B0308951E
:1047500010928B03089580918203089508950C941C
:10476000AE2390918203981721F0809382030C94DA
:10477000AF23089580918203882329F01092820349
:1047800080E00C94AF230895E0912801F091290175
:1047900080918D038083E0912801F091290190811F
:1047A00080918C03892B8083E0912801F09129016D
:1047B000908180918B03892B808380918203882351
:1047C00081F0E0912801F09129019081892B80836B
:1047D00080912801909129010E94F12481110E9469
:1047E000BA2380912801909129010C94F218089520
:1047F0000C94F72398E0899F90011124262B209395
:1048000081030E94FF21809181038595859585957F
:104810000C94F8231092810380E00C94F8232091EB
:1048200081038095822380938103982F977079F478
:1048300030E0482F082E000C550B2417350739F0AF
:104840008595859585950E9420220C940A240895CB
:10485000909373018093720108958295982F9C7CA8
:10486000392F36953695282F237344E0249FC001B5
:104870001124932F982B292F2A7A2695892F857515
:10488000880F822B089580E090E00E94842E21E022
:104890008C3E9E4F09F020E0822F089582E090E048
:1048A0000C94762E83E090E00C94762ECF9384E0E7
:1048B00090E00E94762EC82F81E290E00E94762E32
:1048C0002C2F30E0A901582BCA01CF910895CF9326
:1048D000C92F682F84E090E00E948A2E6C2F81E21D
:1048E00090E0CF910C948A2EAB01BC018FE090E058
:1048F0000C949C2EAB01BC0183E190E00C949C2EA7
:1049000060E070E0CB010C947A2460E070E0CB01B1
:104910000E9474240C9480246CEE7EEF80E090E082
:104920000E94A82E60E082E090E00E948A2E60E063
:1049300083E090E00E948A2E10927D0310927E0305
:1049400010927F031092800360E084E090E00E9468
:104950008A2E60E081E290E00E948A2E60E085E08D
:1049600090E00E948A2E60E086E090E00E948A2E0D
:104970006FEF87E090E00E948A2E40E050E0BA019D
:1049800088E090E00E949C2E60E08DE090E00E9424
:104990008A2E40E050E0BA0188E190E00E949C2E0F
:1049A00060E087E190E00E948A2E40E050E0BA018A
:1049B0008CE190E00E949C2E60E080E290E00E94FA
:1049C0008A2E40E050E0BA0188E190E00E949C2EDF
:1049D0000C9485240C948C24682F8EE090E00C9429
:1049E0008A2EFC01329697E080E0915029F02191C7
:1049F0002223D9F38F5FF9CF0895662349F0FC0194
:104A0000329608962191261729F0E817F907D1F771
:104A100080E0089581E008959C01FC0132969FEFAB
:104A200080E04191461789F09F3F19F4411101C080
:104A3000982F8F5F8630A9F79F3F39F0F901E90F72
:104A4000F11D97FDFA95628308950895FC01329651
:104A500008962081261301C010823196E817F907C5
:104A6000C1F708950C940C250C942625029626E097
:104A7000FC0111922A95E9F7089508950C943D25BB
:104A80000E943E2580919604843009F439C010922A
:104A90008F0320E488E190E00FB6F894A895809306
:104AA00060000FBE2093600080E00E943B060E94E1
:104AB00067118091900381110AC081E08093900377
:104AC0008091B5038170809391030E94E9120E9446
:104AD0003E2583B7817F846083BF83B7816083BFB6
:104AE0007894889583B78E7F83BF0FB6F894A89586
:104AF00080916000886180936000109260000FBE1A
:104B0000089508950895CF930E9481250E94190960
:104B10000E948225C0E08C2F0E944008811104C0B1
:104B2000CF5FCA30C1F701C081E0CF9108950895E9
:104B30000C9497250E94DA1D0E94E6180E943B06FD
:104B4000109290038091910381110E947F120E9424
:104B500040110C9498251F920F920FB60F921124BA
:104B60008F939F93AF93BF9380918F03811113C055
:104B700080918C0490918D04A0918E04B0918F044B
:104B80004196A11DB11D80938C0490938D04A09338
:104B90008E04B0938F04BF91AF919F918F910F902E
:104BA0000FBE0F901F90189582E084BD93E095BDD5
:104BB0009AEF97BD80936E0008952FB7F894809177
:104BC0008C0490918D04A0918E04B0918F042FBF1E
:104BD00008959C014FB7F89480918C0490918D04B6
:104BE000A0918E04B0918F044FBF821B930B089548
:104BF00078941F920F920FB60F9211248F939F9368
:104C0000AF93BF9380918C0490918D04A0918E04FA
:104C1000B0918F040196A11DB11D80938C049093D7
:104C20008D04A0938E04B0938F04BF91AF919F9198
:104C30008F910F900FBE0F901F90189587E797E701
:104C400090930108809300089AE088E10FB6F894E9
:104C5000A895809360000FBE90936000FFCF0E94E4
:104C60004324811102C00E94EA240E944E248093B2
:104C70008E030E94562490939104809390040E9486
:104C80005224682F70E080E090E00E949E216091A5
:104C9000790370917A0380917B0390917C030C944B
:104CA000D72180919D0308950895089508959FB791
:104CB000F894109294039FBF90919604943009F059
:104CC00057C09091E9009F703091EC00232F217024
:104CD00030FD20E8922B22E02093E9002091EB00A8
:104CE00020FF43C02091EE0027FF3FC02091920398
:104CF000222321F02091E80025FF37C01092920373
:104D000026E03091E80035FD15C03091960434302E
:104D100061F53091EB0035FD28C0215021F481E090
:104D20008093920322C0EFE9FFE03197F1F700C0D2
:104D30000000E7CF8093F1008091E80085FD0AC074
:104D40008091E80080FFFCCF8091E8008E7780930F
:104D5000E80006C08FB7F89421E0209394038FBF3A
:104D60009F709093E90080E008959F709093E90010
:104D70008FEF0895CF93DF9321E02093E9002FEF89
:104D80003091E800215035FD06C035ED3A95F1F738
:104D900000002111F5CF2091E80025FF14C0EC019F
:104DA00040E050E068E070E00E94D7288091E80081
:104DB0008E778093E80088E0FE01A5E9B3E00190DA
:104DC0000D928A95E1F7DF91CF91089582EF97E0F8
:104DD0000E94C00480919504811109C00E946C2A30
:104DE0000E94C92A8091E20084608093E2000895C5
:104DF0008EEE97E00E94C0041092950408958AEE0A
:104E000097E00C94C00486EE97E00C94C00482EE08
:104E100097E00E94C0040C949A25209193032F5F81
:104E2000822F62E30E94722D992319F0209393033D
:104E300008951092930380919403882371F18091D7
:104E40009604843041F58091E9008F702091EC0048
:104E5000922F917020FD90E8892B92E09093E900C9
:104E60009091EB0090FF14C09091EE0097FF10C05E
:104E70009091E80095FF03C01092F100F9CF909156
:104E8000E80090FF05C09091E8009E779093E800BD
:104E90008F708093E90010929403089542E061ECD2
:104EA00081E00E94E62942E261EC82E00C94E6296E
:104EB00080919804833009F460C030F4813071F03F
:104EC000823009F499C008958A3009F485C08B3086
:104ED00009F46BC0893009F0A7C020C08091970405
:104EE000813A09F0A1C08091E800877F8093E800B3
:104EF00080919B0490919C04892B21F468E085E9C2
:104F000093E003C060E080E090E070E00E9422291E
:104F10008091E8008B778093E80008958091970452
:104F2000813209F081C080919B0490919C04892B6F
:104F300009F07AC08091E800877F8093E800809133
:104F4000E80082FD05C0809196048111F8CF6CC005
:104F50002091F3008091F20090E0922B029729F4C7
:104F60008091F1008B7F813021F48091F10080935A
:104F70009D038091E8008B7753C080919704813A1C
:104F800009F052C080919B0490919C04892B09F0F8
:104F90004BC08091E800877F8093E8008091E80013
:104FA00080FFFCCF8091340136C08091970481321C
:104FB000D9F580919B0490919C04892BA9F580914F
:104FC000E800877F8093E8000E941B2A8091990463
:104FD000809334010C94DA1D80919704813221F57D
:104FE0008091E800877F8093E8000E941B2A8091CF
:104FF0009A0480939E03089580919704813AA1F4C6
:105000008091E800877F8093E8008091E80080FF2E
:10501000FCCF80919E038093F1008091E8008E7711
:105020008093E8000C941B2A089584B7877F84BF7F
:105030000FB6F894A8958091600088618093600015
:10504000109260000FBE90E080E80FB6F894809355
:105050006100909361000FBE0E9474190E946C2A37
:105060000E94C92A8091E20084608093E20087E573
:1050700096E20E94282478940E94572D0E947E195F
:105080008AE291E00E94E11881ED97E00E94C0045D
:1050900080919604853089F48DEC97E00E94C004DD
:1050A0000E94402580919404882391F30E948325D7
:1050B000882371F30E94C128EBCF0E94B0190E948F
:1050C0007C190E947D19E4CF0C946628292F332780
:1050D00023303105C9F064F42130310581F02230EC
:1050E000310509F046C082E490E020E238E045C096
:1050F00021323105F1F02232310559F13AC082E115
:1051000090E022E638E039C099278130910541F0DE
:105110008230910541F0892B61F5ECE1F8E005C0A2
:10512000EAE0F8E002C0E6EFF7E0849190E09F014A
:1051300024C06115710541F061307105D1F489E039
:1051400090E02BE438E019C089E090E022E338E0F9
:1051500014C06115710541F06130710551F482E2AE
:1051600090E024E738E009C080E490E026E938E0E8
:1051700004C080E090E020E030E0FA013183208339
:10518000089580E189BD82E189BD09B400FEFDCFAB
:105190008091D8008F7D8093D8008091E00082605C
:1051A0008093E0008091E00081FDFCCF0895CF92D4
:1051B000DF92EF92FF920F931F93CF93DF93EC0157
:1051C0008B016A010E943A2A811133C0C114D104B3
:1051D00039F0F60180819181081B190BC80FD91F86
:1051E000E12CF12C0115110519F18091E80085FDE4
:1051F00016C08091E8008E778093E800C114D10436
:1052000049F0F60180819181E80EF91EF182E08279
:1052100085E00FC00E943A2A882321F30AC08991B1
:105220008093F10001501109FFEFEF1AFF0ADACF66
:1052300080E0DF91CF911F910F91FF90EF90DF9071
:10524000CF90089520919D0430919E042617370732
:1052500048F06115710539F42091E8002E7720930C
:10526000E80001C0B90140E061157105A9F1209184
:105270009604222309F443C0253009F442C020914A
:10528000E80023FD40C02091E80022FD32C02091BB
:10529000E80020FFE9CF4091F3002091F20030E0D8
:1052A000342BFC01CF016115710559F0283031050F
:1052B00040F481918093F100615071092F5F3F4F5D
:1052C000F1CF41E02830310509F040E02091E800BD
:1052D0002E772093E800C8CF4111C9CF0AC0809132
:1052E0009604882361F0853061F08091E80083FDA9
:1052F0000AC08091E80082FFF2CF80E0089582E04A
:10530000089583E0089581E0089520919D043091EF
:105310009E042617370748F06115710539F420916E
:10532000E8002E772093E80001C0B901FC0120E0DD
:105330006115710591F180919604882309F440C0AC
:10534000853009F43FC08091E80083FD3DC0809125
:10535000E80082FD2FC08091E80080FFE9CF209116
:10536000F3008091F20090E0922B6115710559F0E5
:105370008830910540F424912093F10031966150DA
:1053800071090196F2CF21E0089709F020E08091A1
:10539000E8008E778093E800CBCF2111CCCF0AC0F4
:1053A00080919604882361F0853061F08091E80057
:1053B00083FD0AC08091E80082FFF2CF80E008956B
:1053C00082E0089583E0089581E00895982F973052
:1053D00058F59093E900981739F07091EC002091FE
:1053E000ED005091F00003C0242F762F50E021FFF4
:1053F00019C03091EB003E7F3093EB003091ED000F
:105400003D7F3093ED003091EB0031603093EB0045
:105410007093EC002093ED005093F0002091EE008B
:1054200027FF07C09F5FD3CF8F708093E90081E093
:10543000089580E008958091970487FF11C08091BE
:10544000E80082FD05C0809196048111F8CF11C05B
:105450008091E8008B770BC080919604882349F0F7
:105460008091E80080FFF8CF8091E8008E778093EC
:10547000E80008952091E4003091E50095E6409120
:10548000EC00842F817040FF22C08091E80080FDF5
:105490001CC080919604882391F0853091F0809112
:1054A000EB0085FD10C04091E4005091E5004217EB
:1054B000530729F39A01915011F784E0089582E08F
:1054C000089583E0089581E0089580E00895409173
:1054D000E80042FFDECF08950E94DA2A0E94E22A05
:1054E000E0EEF0E0808181608083E8EDF0E0808193
:1054F0008F77808319BCA7EDB0E08C918E7F8C9361
:1055000080818F7E80831092950408950F931F935E
:10551000CF93DF930E94DA2A0E94E22AC8EDD0E0FE
:1055200088818F77888388818068888388818F7D50
:10553000888319BC109296041092920410929404DD
:105540001092930400EE10E0F80180818B7F80833D
:1055500088818160888342E060E080E00E94E629E3
:10556000E1EEF0E080818E7F8083E2EEF0E08081EA
:1055700081608083808188608083F80180818E7F54
:105580008083888180618883DF91CF911F910F9103
:105590000895E8EDF0E080818F7E8083E7EDF0E014
:1055A00080818160808384E082BF81E08093950464
:1055B0000C94862AE8EDF0E080818E7F8083109243
:1055C000E20008951092DA001092E10008951F920F
:1055D0000F920FB60F9211242F933F934F935F9327
:1055E0006F937F938F939F93AF93BF93EF93FF93AB
:1055F0008091E10082FF0BC08091E20082FF07C032
:105600008091E1008B7F8093E1000E940D278091C3
:10561000DA0080FF1FC08091D80080FF1BC08091FE
:10562000DA008E7F8093DA008091D90080FF0DC070
:1056300080E189BD82E189BD09B400FEFDCF81E032
:10564000809396040E94E62605C019BC1092960429
:105650000E94F8268091E10080FF19C08091E2004D
:1056600080FF15C08091E2008E7F8093E2008091E0
:10567000E20080618093E2008091D8008062809394
:10568000D80019BC85E0809396040E94032780917E
:10569000E10084FF30C08091E20084FF2CC080E1F3
:1056A00089BD82E189BD09B400FEFDCF8091D8009B
:1056B0008F7D8093D8008091E1008F7E8093E10000
:1056C0008091E2008F7E8093E2008091E200816011
:1056D0008093E20080919204882311F084E007C057
:1056E0008091E30087FD02C081E001C083E08093E8
:1056F00096040E9407278091E10083FF29C08091D2
:10570000E20083FF25C08091E100877F8093E10064
:1057100082E080939604109292048091E1008E7F43
:105720008093E1008091E2008E7F8093E20080917F
:10573000E20080618093E20042E060E080E00E944D
:10574000E6298091F00088608093F0000E94FF2697
:10575000FF91EF91BF91AF919F918F917F916F9149
:105760005F914F913F912F910F900FBE0F901F901F
:1057700018951F920F920FB60F9211242F933F93FB
:105780004F935F936F937F938F939F93AF93BF9349
:10579000CF93DF93EF93FF93C091E900CF70809197
:1057A000EC00D82FD17080FDD0E81092E9008091F4
:1057B000F000877F8093F00078940E94FD2B109278
:1057C000E9008091F00088608093F000CD2BCF70CD
:1057D000C093E900FF91EF91DF91CF91BF91AF911D
:1057E0009F918F917F916F915F914F913F912F91F9
:1057F0000F900FBE0F901F9018951F93CF93DF93BC
:10580000CDB7DEB7AA970FB6F894DEBF0FBECDBFF7
:10581000E7E9F4E088E08E0F9091F10091938E1308
:10582000FBCF0E9458278091E80083FF28C1809118
:10583000970490919804492F50E04A30510508F0A0
:105840001EC1FA01E857FF4F0C94D62D803821F085
:10585000823809F014C108C0809193049091940497
:10586000992389F082600FC080919B048F708730EC
:1058700008F005C18093E9008091EB0085FB882743
:1058800080F91092E9009091E800977F9093E800EA
:105890008093F1001092F100D0C0282F2D7F09F0E5
:1058A000EEC0882319F0823061F0E9C0809199043C
:1058B000813009F0E4C0933009F080E080939404D3
:1058C0002EC08091990481112AC080919B048F7011
:1058D0002FEF280F263008F0D2C08093E9002091E6
:1058E000EB0020FF1CC0933021F48091EB0080621C
:1058F00014C09091EB0090619093EB0021E030E0B8
:10590000A90102C0440F551F8A95E2F74093EA00AF
:105910001092EA008091EB0088608093EB00109277
:10592000E9008091E800877F8093E8000E941B2AAD
:10593000A6C08111A4C0109199041F778091E30043
:105940008078812B8093E3008091E800877F8093AB
:10595000E8000E941B2A8091E80080FFFCCF809124
:10596000E30080688093E300111102C082E001C06F
:1059700083E08093960483C08058823008F07FC013
:105980008091990490919A048C3D53E0950779F5A4
:1059900083E08A838AE289834FB7F894DE01139605
:1059A00020E03EE051E2E32FF0E050935700E49115
:1059B00020FF03C0E295EF703F5FEF708E2F90E005
:1059C000EA3010F0C79601C0C0968D939D932F5F6B
:1059D000243149F74FBF8091E800877F8093E8002A
:1059E0006AE270E0CE0101960E94222915C0609102
:1059F0009B0470919C04AE014F5F5F4F0E9464282E
:105A0000BC01892BE1F19091E800977F9093E80029
:105A100089819A810E9485298091E8008B77809303
:105A2000E8002DC0803859F58091E800877F809389
:105A3000E800809192048093F1008091E8008E77D5
:105A400073CF81111CC0909199049230C0F4809161
:105A5000E800877F8093E800909392040E941B2ABD
:105A600080919204811106C08091E30087FD02C0FD
:105A700081E001C084E0809396040E944E278091CB
:105A8000E80083FF0AC08091E800877F8093E800E8
:105A90008091EB0080628093EB00AA960FB6F89499
:105AA000DEBF0FBECDBFDF91CF911F910895CF9381
:105AB000809196048823A1F0C091E900CF70909165
:105AC000EC00892F817090FD80E8C82B1092E900CE
:105AD0008091E80083FD0E94FD2BCF70C093E90008
