:100000000C9424040C946B040C946B040C94291C25
:100010000C946B040C946B040C946B040C946B04A4
:100020000C946B040C946B040C94022F0C94D42F3E
:100030000C94BD290C946B040C946B040C946B040D
:100040000C946B040C946B040C946B040C946B0474
:100050000C946B040C94162A0C946B040C946B0493
:100060000C946B040C946B040C946B040C946B0454
:100070000C946B040C946B040C946B040C946B0444
:100080000C946B040C946B040C946B040C946B0434
:100090000C946B040C946B040C946B040C946B0424
:1000A0000C946B040C946B040C946B04F313F61314
:1000B000FB13021407140C14111416141B1420142F
:1000C00025142A142C142F143214351438143B140C
:1000D0003D1442149D15A015C015DB15E315EF1551
:1000E000F215F515F81542164516FB15FE15031603
:1000F00011161F16221626163416B41FB41FE61F3B
:10010000E61F51215121512151213320D020E120DE
:10011000E1204121512151214A21E121E121F32115
:10012000F321EA21F321F321F321E121E121EF2160
:10013000F321F321EF21413068305A3168305A31D0
:10014000B430D7305A312D313C3166015C01520157
:1001500000001D0155FFFFFF00000000010100FF2E
:10016000FFFF0000000000400000002004BFFFFF70
:100170003201BFFFFF250400FFFF2A0300FFFF2A13
:100180000300FFFF2F0300FFFFFF00000000290016
:100190001E001F00200021002200000000002B0094
:1001A00014001A0008001500170000000000E0000D
:1001B00004001600070009000A0000000000E1002A
:1001C0001D001B000600190005004C000000000087
:1001D0000000000050424F642C42686100000000A3
:1001E000230024002500260027002D0035000000F4
:1001F0001C0018000C00120013002F002A00000041
:100200000B000D000E000F00330034002800E30047
:10021000110010003600370038002E00E50028627B
:100220002A4351645244000000003000310029008C
:100230001E001F00200021002200000000002B00F3
:1002400014001A0008001500170000000000E0006C
:1002500004001600070009000A0000000000E10089
:100260001D001B000600190005004C0000000000E6
:100270000000000050424F642C00E000000000002D
:10028000230024002500260027002D003500000053
:100290001C0018000C00120013002F002A000000A0
:1002A0000B000D000E000F00330034002800E300A7
:1002B000110010003600370038002E00E50028003D
:1002C0002A43516452440000000030003100010014
:1002D000000000000000000000000000000001001D
:1002E0004E0052004B000000000000000000010022
:1002F000500051004F00000000000000000001000D
:100300004A0051004D0050094F0901000000000053
:10031000000000001050010001000100000000007A
:10032000540000000000000000002D00000000004C
:1003300055005F006000610000002602010000001F
:1003400056005C005D005E0036003400580053002B
:10035000570059005A005B0063002E0001000100A5
:1003600001006200010000000000270202530100AA
:100370003A003B003C003D003E0000000000010050
:100380000000000000000000000000000000390034
:10039000000000000000000000000000000001005C
:1003A000000000000000000000000100000000004C
:1003B00000000000125001000100010000000000D8
:1003C0003F0040004100420043004400490000005B
:1003D00000004E0052004B00000050094600000093
:1003E0000000500051004F0000000000010000001C
:1003F00000004A0051004D000000450001000100CE
:10040000010001000100000000004F094604005CEB
:10041000C35CC45CC55C0000000000000000DF5C41
:100420000000CB5CCA5C1B5C1C5C00000000000090
:100430000000C95CC85C175C185C0000000000008C
:100440000000C75CC65C195C0000005200000000A0
:100450000000000001000100010001000000000098
:10046000000000000000000000000000000000008C
:10047000000000000000000000000000000000007C
:100480000000000000000000000000000000015219
:10049000000000000000000000000000000001005B
:1004A0000100010001000000000000000000000049
:1004B0000000000000002A2B2800000000000000BF
:1004C00000000000000000000029000000002C1EB9
:1004D0003420212224342627252E362D3738271E76
:1004E0001F202122232425263333362E37381F049C
:1004F00005060708090A0B0C0D0E0F101112131434
:1005000015161718191A1B1C1D2F3130232D3504F1
:1005100005060708090A0B0C0D0E0F101112131413
:1005200015161718191A1B1C1D2F3130354C0000D9
:1005300000000000000000000000000000000000BB
:1005400000007E0F00D4FFFFFFC7000000783219C3
:100550000A00047F3F1F643214643214783C1E1E6C
:10056000140A052223252628292A2C2D2F30323340
:100570003536383A3B3D3E4042434547494A4C4E6A
:100580005051535557595A5C5E6062646668696B96
:100590006D6F71737577797B7D7F81838587898A9C
:1005A0008C8E90929496989A9C9E9FA1A3A5A7A8A2
:1005B000AAACAEAFB1B3B4B6B8B9BBBCBEBFC1C2D2
:1005C000C3C5C6C7C9CACBCCCDCED0D1D2D2D3D465
:1005D000D5D6D7D7D8D9D9DADADBDBDBDCDCDCDC83
:1005E000DCDDDDDDDDDCDCDCDCDCDBDBDBDADAD951
:1005F000D9D8D7D7D6D5D4D3D2D2D1D0CECDCCCBD3
:10060000CAC9C7C6C5C3C2C1BFBEBCBBB9B8B6B4F0
:10061000B3B1AFAEACAAA8A7A5A3A19F9E9C9A9880
:10062000969492908E8C8A89878583817F7D7B7951
:10063000777573716F6D6B6968666462605E5C5A32
:100640005957555351504E4C4A4947454342403EF5
:100650003D3B3A3836353332302F2D2C2A29282687
:10066000252322FFAA7F554000010101010101015C
:100670000101020202020202020202030303030357
:100680000303030404040404040405050505050626
:1006900006060606070707070708080808090909E4
:1006A000090A0A0A0B0B0B0C0C0C0D0D0D0E0E0E8D
:1006B0000F0F0F101011111112121313141415151E
:1006C00016161717181819191A1A1B1B1C1D1D1E90
:1006D0001E1F2020212222232424252626272829E4
:1006E000292A2B2C2D2D2E2F303132323334353612
:1006F0003738393A3B3C3D3E3F4041424344454612
:100700004748494A4C4D4E4F5051535455565859ED
:100710005A5B5D5E5F616264656668696B6C6D6F94
:100720007072737577787A7B7D7E80828385878807
:100730008A8C8E8F91939596989A9C9EA0A2A3A541
:10074000A7A9ABADAFB1B3B5B7BABCBEC0C2C4C642
:10075000C9CBCDCFD1D4D6D8DBDDDFE2E4E7E9EBFE
:10076000EEF0F3F5F8FAFDFF1203570069006C0094
:100770006C006F0077003600340000001003480062
:1007800061006E00610063006800690000000403FE
:10079000090409024200020100A0FA090400000154
:1007A0000301010009211101000122400007058118
:1007B0000308000A090401000203000000092111D6
:1007C0000100012222000705820320000107050322
:1007D00003200001120110010000000801BB01000C
:1007E0000200010200010660FF0961A10109621512
:1007F0000026FF009520750881020963150026FF79
:1008000000952075089102C005010906A1010507A0
:1008100019E029E715002501950875018102950168
:10082000750881010507190029FF150026FF0095AD
:1008300006750881000508190129059505750191BE
:1008400002950175039101C011241FBECFEFDAE0BC
:10085000DEBFCDBF04B603FE27C080917C0490911B
:100860007D04A0917E04B0917F048730904BA74017
:10087000B04BD1F410927C0410927D0410927E044F
:1008800010927F0414BE84B7877F84BF0FB6F8949C
:10089000A89580916000886180936000109260004C
:1008A0000FBEE0E0F8E3099511E0A0E0B1E0E6EB6F
:1008B000FBE602C005900D92AA37B107D9F724E0F4
:1008C000AAE7B1E001C01D92AC37B207E1F70E9480
:1008D000C02B0C94D9350C94000081E00895CF9280
:1008E000DF92EF92FF926B017C010E94880690E0FC
:1008F00090937B0180937A0142E0C701B6010E9488
:100900001226682F80E00E944112C701B601FF90B5
:10091000EF90DF90CF90089580917A0190917B01C4
:10092000029729F40E94411D682F617001C060E0A8
:1009300082E00E9441120E94411D81FB662760F9FE
:1009400081E00E94411281E008958AE491E0909351
:10095000D8028093D7020E94291289E00C94EE11EC
:1009600081E008950C946D0408950C94B4041F93D1
:10097000CF93DF9300D000D01F92CDB7DEB749836D
:100980005A833091020389819A81311114C0662300
:1009900059F0222349F00E943527182F682F8981AA
:1009A0009A810E94DA2603C00E940927182F6981C4
:1009B0007A81812F04C00E94352769817A810F9046
:1009C0000F900F900F900F90DF91CF911F910C948B
:1009D0003517FC01262F408151816281738184810A
:1009E0000C94B704CF93DF93EC0160E00E94E9041C
:1009F000BE01DF91CF910C94B504FF920F931F932A
:100A0000CF93DF93E82FF0E0E255FB4FF490C82F2F
:100A1000C695C695C695D0E0FE01E25CFA4F0491FA
:100A2000877010E0082E02C0159507950A94E2F72A
:100A300001701127FE01E25DFA4FC491D0E002C0BF
:100A4000D595C7958A95E2F7C170DD270115110587
:100A500019F081EE0E94761E209719F086EE0E9412
:100A6000761E8F2D0E945D1FCD2B19F086EE0E9401
:100A7000FE1E012B41F081EEDF91CF911F910F916E
:100A8000FF900C94FE1EDF91CF911F910F91FF906C
:100A90000895EF92FF920F931F93CF93DF93EC0192
:100AA000162F0AE08881882309F455C0813009F0A7
:100AB00043C08981813041F47E0182E0E80EF11C5F
:100AC0008A810E945D1F09C0823049F47E01E2E004
:100AD000EE0EF11C8A810E94761EE7012FC0833042
:100AE00041F47E01F2E0EF0EF11C8A810E94FE1EAD
:100AF000F4CF843011F0219621C02A81229680E023
:100B000090E030E0205331092A30310558F4089F35
:100B1000A001099F500D1124CA01820F931F219635
:100B20002881EFCF009751F0EFE9FFE03197F1F71F
:100B300000C000000197F6CF0E94FD042196812F8E
:100B4000882309F4AFCFEFE9FFE03197F1F700C058
:100B500000008150F5CFDF91CF911F910F91FF9051
:100B6000EF90089560E00C9449058F929F92AF92A8
:100B7000BF92CF92DF92EF92FF920F931F936B0180
:100B80007C0181E090E0A0E0B0E04C015D0104C098
:100B9000880C991CAA1CBB1C4A95D2F7AC01BD015C
:100BA00004C0440F551F661F771F2A95D2F74829A6
:100BB00059296A297B2904C0880F991FAA1FBB1FC6
:100BC0000A95D2F78A019B010C211D212E213F217C
:100BD000041715072607370739F4BC01CD016C2926
:100BE0007D298E299F290AC080959095A095B09562
:100BF000BC01CD016C217D218E219F211F910F9180
:100C0000FF90EF90DF90CF90BF90AF909F908F902C
:100C100008950F93382F262F60916D0370916E0306
:100C200080916F0390917003042F432F0E94B505AC
:100C30000F910C9401260E944F2A0E946B2881116B
:100C400002C00E9412290C94C8080E94641A0C94D5
:100C5000CB0808950E94D1210E9429062FEF84E33A
:100C60009CE0215080409040E1F700C000000C94CF
:100C70003C2A0F931F93CF93DF93EC0161E00E9416
:100C8000E9048C01BE010E94D4148823D9F1BE016D
:100C9000C8010E94B2048823A9F1BE01C8010E94C4
:100CA000C61A882379F1BE01C8010E9469188823F9
:100CB00049F1BE01C8010E94BB18882319F1BE0189
:100CC000C8010E94E6198823E9F0BE01C8010E940C
:100CD000DD138823B9F08A81882369F001158CE53A
:100CE000180731F00F3D1C4531F40E9412290AC04B
:100CF0000E942A0607C0CE01DF91CF911F910F916C
:100D00000C94B00480E0DF91CF911F910F91089572
:100D1000CF92DF92EF92FF926C01EE24FF24C11478
:100D2000D104E104F10421F0C701B60120E101C0C2
:100D300020E0C72ED82EE92EFF24C114D104E104EF
:100D4000F10419F0285FC701B6016B017C0154E082
:100D5000F694E794D794C7945A95D1F7C114D10467
:100D6000E104F10419F02C5FC701B6016B017C01AD
:100D700042E0F694E794D794C7944A95D1F7C1140A
:100D8000D104E104F10419F02E5FC701B601DC01C2
:100D9000CB01B695A79597958795892B8A2B8B2B99
:100DA00009F02F5F822FFF90EF90DF90CF90089592
:100DB00008950C94D8060C948C04CF93C82F0E94ED
:100DC000D9068C2F0E94DB06CF91089580E090E039
:100DD00008950895880F991FFC01E25BFA4F8591F1
:100DE00094910895CF93DF930E9435170E94F007E6
:100DF000EC01811521E59207A0F5811560E59607C4
:100E000008F087C0C11580E2D807F0F4C11591E061
:100E1000D90708F0E1C0C03ED10588F4C03CD10537
:100E200008F063C0C130D10509F4D6C008F4D2C0BF
:100E3000CE010497813A910508F4CEC0CBC0C83EDC
:100E4000D10508F4C9C0C6C0C11520E4D20708F016
:100E50005DC0C11560E3D60708F04EC0CE019F709B
:100E600047C0C11585E5D807A0F4C11594E5D90799
:100E700008F096C0C11523E5D20708F07BC0C11564
:100E800062E5D60708F060C0DC2FCC27C16FD06ABE
:100E9000A3C0C11589E5D807A0F4C11598E5D90705
:100EA00008F083C0C11526E5D20708F093C08C2F47
:100EB0000E9484088F71C82FD0E0DC2FCC27D0622D
:100EC0008BC0C1156AE5D60708F474C0CE019056F0
:100ED0008115904208F07EC08D2F8F710E9484088A
:100EE000DD27D0628F71D82B77C0CE01805C91094D
:100EF0000E94EA06EC0170C0CE019927D3FF03C01F
:100F0000EC01D86C69C0EC01D06C66C0DF70D06AAF
:100F100063C0837021E030E002C0220F331F8A9546
:100F2000E2F73C68CE0174E0969587957A95E1F7F3
:100F30008370382BCF70C695C69560E2C69FE001DE
:100F40001124C22BD32B48C04C2F4695469580E2E6
:100F5000489FA0011124C370DD2721E030E0C901C2
:100F600002C0880F991FCA95E2F7EC01C42BD52B5C
:100F7000DC6832C04C2F4695469580E2489FA00120
:100F80001124C370DD2721E030E0C90102C0880FC1
:100F9000991FCA95E2F7EC01C42BD52BDA681CC067
:100FA000DC2FCC27C46FD06A17C0DC2FCC27C06FD2
:100FB000D06A12C08C2F8F700E94840894E0D6955E
:100FC000C7959A95E1F7CF70D0E0DC2FCC27D06998
:100FD000C82B02C0C0E0D0E0CE01DF91CF910895D0
:100FE0008238910569F1B0F48133910509F46DC03F
:100FF00048F48932910509F463C08A32910509F4F5
:1010000069C008958533910509F455C08933910568
:10101000B9F00895833E910569F138F4803E910559
:10102000B1F0823E910509F10895863E9105A9F13E
:10103000873E9105B9F1843E910509F064C023C053
:1010400020916D0420FD4FC021FD4DC00895809179
:101050006D0480FD44C080916E0480FF44C0809187
:101060006D0484FD42C083EE4DC080916D0482FF0B
:1010700038C0F5CF80916D0482FD33C080916E043D
:1010800080FD31C0ECCF80916E0481FF32C0809131
:101090006D0484FD2AC087EE35C080916D0483FF06
:1010A00026C0F5CF80916D0483FD21C080916E0430
:1010B00081FD1FC0ECCF80916D0485FD1CC01DC05B
:1010C00080916D0485FD19C016C080916D0486FD68
:1010D00016C017C080916D0486FD13C010C089E34F
:1010E00011C082EE0FC080EE0DC080E00BC086EE16
:1010F00009C084EE07C089E205C085E303C08AE227
:1011000001C081E390E0089590916D0492FF0DC0BD
:10111000282F2871283019F4877F846006C0282F73
:101120002471243011F48B7F886093FF0DC0282F29
:101130002871283119F4877E846106C0282F247114
:10114000243111F48B7E886120916E0420FF0DC044
:10115000382F3871383019F4877F816006C0382FF6
:101160003171313011F48E7F886021FF0DC0282F3E
:101170002871283119F4877E816106C0282F2171DA
:10118000213111F48E7E886194FD877E0895089543
:101190000C94C70808950C94CA08E82FF0E0E856AC
:1011A000FC4F80810895089580EA8A95F1F70895AB
:1011B000F894E82FE295EF70F0E031A1282F2F701E
:1011C00081E090E001C0880F2A95EAF7982F90956A
:1011D000932391A392A1892B82A3789408950895D3
:1011E0001F93CF93DF930E94360A80910401809170
:1011F0000401811102C095E001C090E09093A30327
:1012000085E0891B8093A20384E90E94D80886E6C2
:101210000E94D80887E90E94D80886EC0E94D80866
:1012200084E30E94D808C8E3D1E01C2F185F89919D
:101230000E94D8081C13FBCFA8E9B3E0EEE8F3E066
:101240008AE08E0F11921D928E13FCCF85E00E94D2
:10125000E0090E941B06DF91CF911F910C944B0A6D
:101260000E94170A882321F18091A20390E08856FA
:101270009C4F0E947B0A811117C080917C018F5F77
:1012800080937C01863090F02091A20380E090E072
:1012900030E0FC01E20FF31FE856FC4F108201968C
:1012A00085309105B1F702C010927C010C9425069F
:1012B0008091A30390E088569C4F0E949A0A0C9458
:1012C000EF089F92AF92BF92CF92DF92EF92FF9280
:1012D0000F931F93CF93DF938EE8C82E83E0D82E11
:1012E000C0E4D1E0B12C01E010E0AC2E85E0A80E06
:1012F0007E018881F894E82FE295EF70F0E091A1EB
:101300008F70A80101C0440F8A95EAF7892F842BBA
:1013100081A382A14095482342A378940E94D408D7
:10132000E8E3F1E020E030E0912C4191A42FA29578
:10133000AF70B0E090968C9190E04F7002C09595A0
:1013400087954A95E2F780FD07C0802F022E01C0E5
:10135000880F0A94EAF701C080E0982A2F5F3F4F78
:101360002830310511F72196F70180810E94D808B5
:10137000F6018081891519F0908281E001C080E03A
:10138000B82AFFEFCF1ADF0AAC12B2CF6091A303E5
:1013900070E068567C4F2B2D45E08EE893E00E946C
:1013A000E1090E9430098B2DDF91CF911F910F91A0
:1013B000FF90EF90DF90CF90BF90AF909F900895F7
:1013C0000895FF920F931F93CF93DF938C01F62E16
:1013D000D72FC42F222349F081E080937F010E9400
:1013E000EF2990937E0180937D0180917F01882376
:1013F000C1F080917D0190917E010E94072A06979D
:1014000080F0EF2DFD2FD8014C2F50E0CD01801B37
:10141000910B841795071CF48D918193F7CF10924F
:101420007F01DF91CF911F910F91FF9008958091DF
:101430008001811112C08091D80080618093D80012
:101440008AE18A95F1F700C08091D90080FD02C041
:1014500082E001C081E08093800181E09091800171
:10146000913009F080E008950C94170A0E94340A24
:101470008093040180910401882319F06DE180E0DC
:1014800002C063E28DE10E944F0B0E94170A811196
:101490000C94520A08950E94170A811102C00C94FC
:1014A000580A089562E070E085E091E00C94CE1B4C
:1014B00062E070E085E091E00C94D71B0E9444113B
:1014C000882361F088E891E00E944A1181E090E071
:1014D0000E94B91C892B11F40C9447110895809136
:1014E0008701883039F460E088E891E00E94B41206
:1014F000109287010895CF93DF93D82FC92F0E94B0
:101500005E0A80E090E00E94B91C892B79F4ED2FEF
:10151000FC2F80E090E0DC01AE57BE4F2C91219370
:10152000019685309105B9F781E001C080E0DF9137
:10153000CF910895CF93DF9300D0CDB7DEB78983E5
:101540009A830E946F0A8981E82F9A81F92F80E09F
:1015500090E02191DC01AE57BE4F2C93019685306F
:101560009105B9F70F900F90DF91CF910895CF9229
:10157000DF92EF92FF920F931F93CF93DF938B0134
:10158000982F11110BC0442329F0E82FF0E0E859FF
:10159000F94F9491692F792F892F73C0212F30E053
:1015A000E82FF0E0442321F0E859F94FE491F0E00E
:1015B00046E0049FC0011124CFEFD0E0BE010E949D
:1015C0009A31DB014BEA4603C001479F900D11247D
:1015D000800F911D800F911D982F990F890FAE01DB
:1015E000421B530BE49F7001E59FF00CF49FF00C3D
:1015F00011244F2D819FB0011124672F77278E0171
:10160000061B170BB801E69F8001E79F100DF69FA0
:10161000100D1124712F6E01C81AD108C29EC0018D
:10162000C39E900DD29E900D1124892F9927C81B1F
:10163000D90BEC9F9001ED9F300DFC9F300D1124D4
:10164000932FA230B10569F02CF41097B9F01197DF
:1016500051F012C0A430B10559F03CF0169761F476
:101660000DC07F2D432F9E2F0AC0912F7F2D02C0CA
:10167000732F9F2D4E2F03C09F2D412F7E2F692F3B
:10168000842FDF91CF911F910F91FF90EF90DF900A
:10169000CF90089541E00E94B70A08950895E8E1C7
:1016A000F1E08083618308950E944A0B0895CF93EF
:1016B000DF93762FE901682F842F0E94540B7983E2
:1016C00068838A83DF91CF910895453608F044E618
:1016D0000C94570B8091A403282F269530E02115F8
:1016E000310519F48170826005C02B32310524F078
:1016F000817084658093A4038091A703853618F0D8
:1017000084E68093A703089588E090E00C94433525
:10171000CF93DF9300D000D0CDB7DEB7AB01BC01D3
:1017200049835A836B837C830E946A0B49815A8167
:101730006B817C8188E090E00F900F900F900F906C
:10174000DF91CF910C9461356091A4037091A50352
:101750008091A6039091A7030C94880BE4EAF3E030
:1017600083E0808311828FEF828384E683831482F7
:10177000A2EEB2E012968C911297836012968C932F
:1017800060817181828193810C94880B8091A40384
:1017900080FF02C08695089580E008959091A80387
:1017A000933018F49F5F9093A803882351F06091C1
:1017B000A4037091A5038091A6039091A7030C94B4
:1017C000880B089581E00C94CE0B9091A803992387
:1017D00019F091509093A803882351F06091A403CD
:1017E0007091A5038091A6039091A7030C94880B98
:1017F000089581E00C94E50B8091A80308958093EF
:10180000A80308958091A50308958091A6030895E3
:101810008091A703089521E030E001C0220F8A954E
:10182000EAF78091E502282381E009F480E0089539
:1018300070E00C944C148F929F92AF92BF92CF9213
:10184000DF92EF92FF920F931F93CF93DF9300D01D
:1018500000D01F92CDB7DEB7909019018091A403FC
:1018600080FF08C0E090D702F090D802E114F104A4
:10187000A9F425C080911A0190911B01891790F756
:10188000E82FF0E09F01220F331FE20FF31FE7550F
:10189000FC4F1182108212828F5FF0CF8091E002A4
:1018A00081110DC0812C882D0E940B0C882309F416
:1018B00056C0F701C590D490C114D10401F58091B0
:1018C000180123E0829FC0011124692D87559C4F88
:1018D0000E94180C0F900F900F900F900F90DF91B7
:1018E000CF911F910F91FF90EF90DF90CF90BF901D
:1018F000AF909F908F90089595E0C90ED11C45E060
:1019000050E0B601CE0101960E94773209810F3F67
:1019100031F110E08A819801280F311D2134310501
:1019200014F020E430E05901AA0CBB1C2A0D3B1D29
:10193000C90187559C4F5C01C801880F991F080F8A
:10194000191F07551C4F0A151B05B0F698014D814C
:101950006C818B810E94650B0D5F1F4FF4CF22E0DD
:10196000E20EF11C839488E088129DCFA8CF90915D
:10197000A40390FF16C090911A0120911B019217A9
:1019800070F4E92FF0E0DF01AA0FBB1FEA0FFB1F85
:10199000E755FC4F8183608342839F5FF0CF0C94B7
:1019A0001B0C0895CF93DF9300D01F92CDB7DEB705
:1019B0009091A40390FF0AC09E012F5F3F4F0E94A9
:1019C000650B4B8169818A810E94B70C0F900F9043
:1019D0000F90DF91CF910895CF93DF93EC01EC81CD
:1019E000F0E0ED59FA4F4491E4EAF3E0628181813D
:1019F0000E94D20C8C818F5F8C83DF91CF910895F0
:101A0000CF93DF93EC01E4EAF3E0438162818C81C0
:101A10000E94D20C8C818F5F8C83DF91CF910895CF
:101A20000F931F93CF93DF9300D01F92CDB7DEB7F4
:101A30008C018091910181110AC09E012F5F3F4F5F
:101A400044E66FEF0E94650B8A8180939101F80153
:101A50008481813051F028F0823061F4409191010D
:101A60000AC08091910140E007C06091910140E07F
:101A700080E003C040E080E060E00E94B70CF80125
:101A8000248130E0C901019663E070E00E94AE312C
:101A900084830F900F900F90DF91CF911F910F9142
:101AA0000895AF92BF92CF92DF92EF92FF920F9381
:101AB0001F93CF93DF9300D01F92CDB7DEB7182FBF
:101AC000F62E042FE22E9091A40390FF7FC0E92F01
:101AD000E695AE2FB0E0A65BBE4F8C918093E202FC
:101AE0009E7F923061F49E012F5F3F4F812F0E94B5
:101AF000650B4B8169818A810E94B70C44C082309A
:101B000019F40091A7033FC0863019F41091A50382
:101B10003AC08930D9F38931B1F5E9518E2F8170FE
:101B2000D82EE695F0E0ED59F94FA590B490C12C70
:101B3000BB2460911C01C61620F5EC2DF0E0EA9D57
:101B4000C001EB9D900DFA9D900D112470E00E9454
:101B50009A31812FD11002C0860F01C0861B90914F
:101B60001A01E90FF11D9F01220F331FE20FF31F2E
:101B70009F0127553C4F402F6F2D0E94650BC3944A
:101B8000D8CF0E941B0C8091A503811308C08091BF
:101B9000A6038F1104C08091A703801729F08091BC
:101BA000E40282608093E4021093A503F092A603FE
:101BB0000093A703EE2051F06091A4037091A50358
:101BC0008091A6039091A7030E94880B0F900F901D
:101BD0000F90DF91CF911F910F91FF90EF90DF90C9
:101BE000CF90BF90AF900895E4EAF3E09181282F61
:101BF0004381628188E0890F0C94510D81E00C943F
:101C0000F40DE4EAF3E09181282F4381628188EFAB
:101C1000890F0C94510D81E00C94010EE4EAF3E07D
:101C2000628128E0620F08F46FEF282F43818181E1
:101C30000C94510D81E00C940E0EE4EAF3E0628105
:101C400028E0621B08F460E0282F438181810C9416
:101C5000510D81E00C941D0EE4EAF3E0438128E08D
:101C6000420F08F44FEF282F628181810C94510DAF
:101C700081E00C942C0EE4EAF3E0438128E0421B5F
:101C800008F440E0282F628181810C94510D81E09D
:101C90000C943B0E20E00C94510DFF920F931F9378
:101CA000CF93DF93EC01F12C0FEF10E060911C015A
:101CB000F616E8F420911A0130E02F0D311DC9010C
:101CC000880F991F280F391F27553C4F70E0C80116
:101CD0000E94AE31962F8C814091A7036091A6039C
:101CE000F99E800D11240E94650BF394DFCF0E94B2
:101CF0001B0C9A818C8190FF02C08F5F01C08150C4
:101D00008C83DF91CF911F910F91FF9008958F9257
:101D10009F92AF92BF92CF92DF92EF92FF920F937A
:101D20001F93CF93DF931F92CDB7DEB74C01FC0119
:101D3000828180FF02C09FEF01C091E0F4018481A5
:101D400081110DC0913031F480911C01815080933C
:101D5000930102C01092930181E0F4018483B12CBD
:101D600080911C01B81608F043C0CB2CD12C809177
:101D70001A018601080F111D9801220F331F020F4F
:101D8000131F07551C4FF80111821082128254E074
:101D9000E52EF12CA12C409193014A0D413414F011
:101DA0004F7305C047FF03C080911C01480F042EEC
:101DB000000C550BC416D506A1F48091A7038E9D87
:101DC000A0018F9D500D1124559547955595479528
:101DD00098016091A6038091A50399830E94650BE9
:101DE0009981A90EF1E0EF1AF108A9F6B394B8CFE2
:101DF00099830E941B0C209193019981913081F469
:101E0000211108C080911C01815080939301F4013D
:101E1000148212C0215020939301F40194830CC0CA
:101E200030E0C901019660911C0170E00E94AE3162
:101E300080939301F40184830F90DF91CF911F91E0
:101E40000F91FF90EF90DF90CF90BF90AF909F9059
:101E50008F9008951F93CF93DF93EC018C818111B4
:101E600009C081E08C831092920192E09093170157
:101E70008093160180911A0190911B01891770F4CB
:101E8000E82FF0E09F01220F331FE20FF31FE75509
:101E9000FC4F1182108212828F5FF0CF10E06091B0
:101EA0001C011617B8F5E12FF0E070E0CF010E9499
:101EB000AE3140911A01480F80919201082E000C1A
:101EC000990B50E0E817F907C4F020911701022E92
:101ED000000C330B2E173F0784F09A01220F331F9B
:101EE000240F351F27553C4F4091A7036091A6034F
:101EF0008091A5030E94650B0BC0FA01EE0FFF1F36
:101F00004E0F5F1FFA01E755FC4F118210821282BB
:101F10001F5FC5CF0E941B0C80911601209192017A
:101F2000280F2093920190911701980F9093170119
:101F300019165CF4022E000C330B40911C0150E08A
:101F4000415051092417350734F0819580931601CB
:101F5000813009F41C82DF91CF911F9108958F92F7
:101F60009F92AF92BF92CF92DF92EF92FF920F9328
:101F70001F93CF93DF93EC014C81042F10E0980165
:101F8000D8010E94F2319B01AC010E9408326B0122
:101F90007C01E0E2F0E0E01BF10BA5E5B0E09B0185
:101FA000AC010E9408324B015C019F01DF010E94DD
:101FB000EA319B01AC010E9413329B01AC012C0D54
:101FC0003D1D4E1D5F1DC501B4010E94C231822F0F
:101FD000022F2A3228F493E0299F900111240DC08A
:101FE00025E530E0281B3109C901880F991F280F0A
:101FF000391F37FF02C02F5F3F4F35952795122FAE
:102000001095F12C85E5E82EE01A80911C01F81658
:10201000C0F4F1FC02C08E2D01C0802F20911A0166
:1020200030E02F0D311DA901440F551F240F351F1E
:1020300027553C4F412F6091A6030E94650BF394F6
:10204000E4CF0E941B0C8C81811102C091E003C07F
:10205000803219F49FEF9093150190911501890F2B
:102060008C83DF91CF911F910F91FF90EF90DF90C4
:10207000CF90BF90AF909F908F9008950F931F9334
:10208000CF93DF93EC0100E010E080911C01282F3A
:1020900030E00217130724F590911A019801290FD7
:1020A000311DA901440F551F240F351F27553C4FE3
:1020B000869590E04C81081719071CF4442331F0F1
:1020C00002C0411103C04091A70301C040E06091EC
:1020D000A6038091A5030E94650B0F5F1F4FD5CF0C
:1020E0000E941B0C2C8130E02F5F3F4F2170332763
:1020F0002C83DF91CF911F910F9108957F928F9242
:102100009F92AF92BF92CF92DF92EF92FF920F9386
:102110001F93CF93DF93FC01BB24B3948281833060
:1021200008F4B12C948081E0848300E015E05BE446
:10213000A52E88248394EE24EA94F12C7BE4C72E08
:10214000D12CECE47E2E80911C01081708F08DC084
:10215000C02FD0E01C9FF0011D9FF00D1124E95607
:10216000FE4F911003C01382128265C083818823C1
:1021700089F12FEF280F23833481332321F0972D0A
:10218000981B892F01C0822F9091A7031C9FF001FB
:102190001D9FF00D1124E956FE4F899FC0011124A7
:1021A000B6010E949A316283211104C0332311F0D9
:1021B0001482A382B1103FC01C9FF0011D9FF00D3F
:1021C0001124E956FE4F8091A50380838091A603D8
:1021D000818331C00E9467328230914064F5BB2018
:1021E00031F00E946732B7010E94AE3102C0809187
:1021F000A5031C9FF0011D9FF00D1124E956FE4F11
:102200008083BB2059F00E9467322091A603269557
:10221000622F70E00E94AE31820F02C08091A6034F
:102220001C9FF0011D9FF00D1124E956FE4F818384
:102230001282A382848280911A019E01280F311D8F
:10224000C901880F991F280F391F27553C4F1C9F24
:10225000F0011D9FF00D1124E956FE4F428161816E
:1022600080810E94650B0F5F6ECFDF91CF911F9130
:102270000F91FF90EF90DF90CF90BF90AF909F9025
:102280008F907F900C941B0C8091E4020895109223
:10229000E402089525E0E4EAF3E0DC0101900D9208
:1022A0002A95E1F74091E2025091E3026091E40245
:1022B0007091E502FC01458356836783708708951A
:1022C000E2EEF2E01182828184608283089560915F
:1022D000A403669570E04BE050E08DE191E00E9430
:1022E0008032892B19F481E08093E3020E94EF2968
:1022F0009093DA028093D9028091E4028460809303
:10230000E4020895E2EEF2E0118282818460828329
:1023100008959091A40390FF3AC09170811102C07A
:10232000926006C08B3210F0946502C0880F982B23
:102330009093A4038091E40281608093E402662379
:1023400051F06091A4037091A5038091A603909130
:10235000A7030E94880B6091A403669570E04BE090
:1023600050E08DE191E00E948032892B19F00E94AB
:10237000821102C00E94671181E08093DC024091CB
:10238000A7036091A6038091A5030C944A0E0895BB
:10239000682F9091A403969581E0890F8B3208F005
:1023A00081E00C94891181E00C94C811682F909100
:1023B000A40396958FEF890F09F48AE20C94891192
:1023C00081E00C94D61161E00C948911E4EAF3E009
:1023D00080818160808386950C94E31160E00C9489
:1023E00089118091E102811133C00E946B28811113
:1023F00004C00E9412290E94AE0B0E94840B6093BD
:10240000A4037093A5038093A6039093A7038091E0
:10241000E40283608093E4026E7F61F40E94AE0B5D
:102420000E94840B6093A4037093A5038093A6037A
:102430009093A7030E946A0B0E9460118091A403ED
:1024400080FF03C086950E94EE1181E08093E10237
:102450000895E4EAF3E080818160808386950C949E
:10246000EE111092E0028091DF02882319F00E94A1
:10247000291205C08091E50281110E941B0C0C9469
:10248000671121E030E0A90102C0440F551F8A9571
:10249000E2F7CA012091E502662311F0822B02C007
:1024A000809582238093E5028091E402806180938D
:1024B000E4028091E302811105C08091A403869516
:1024C0000E94EE118091A40380FF0C941B0C0895D0
:1024D000E4EAF3E080818E7F808360817181828174
:1024E00093810E94880B0E948211E2EEF2E08281C9
:1024F000816082832FEF80E792E0215080409040FE
:10250000E1F700C000000C941B0C8091A40380FD37
:102510000C9468120C94E611E4EAF3E080818E7F5B
:1025200080830E948211E2EEF2E0828181608283E8
:102530002FEF80E792E0215080409040E1F700C00B
:1025400000000C941B0C0E9482118091E00281110A
:102550000AC081E08093E0028091A403817080939F
:10256000DF020C948C1208951F93CF93DF93EC013C
:10257000162F8F8184FF03C098859093E50280FF1A
:1025800010C0888180FF0BC08091A403816080937C
:10259000A4038881612F86950E94891102C00E9440
:1025A0008C128F8181FF06C0212F4B816A81898126
:1025B0000E94510D8F8182FF08C08E81882319F0FF
:1025C0000E94671102C00E9482118F8183FF03C0A5
:1025D00081E08093DC02DF91CF911F910895EF920B
:1025E000FF920F931F93CF93DF938091E302882391
:1025F00009F4C1C08091E202E091A403E695E81BD2
:10260000E093DB02823049F4F0E0E15AFA4FE491C2
:10261000CE2FD0E00CEE1CE059C0863049F4F0E03B
:10262000E45AFA4FE491CE2FD0E000E01DE04EC016
:10263000893051F4E695F0E0E75AFA4FE491CE2F55
:10264000D0E00DE41EE042C08F3051F4E695F0E09A
:10265000EA5AFA4FE491CE2FD0E007E81EE036C0E8
:10266000853149F4F0E0ED5AFA4FE491CE2FD0E0F5
:102670000AE21FE02BC08831D9F0833239F4E1E55A
:10268000F5E0C591D49100E11DE020C08432A9F0AD
:102690008532C1F48E2F63E00E948E31E92FF0E085
:1026A000E25BFA4FE491CE2FD0E00EE710E10EC0CE
:1026B000C8E2D0E00FEA1FE009C0C4EFD1E00EE3AA
:1026C00010E104C0C0EDD7E00EE41BE08091DC0215
:1026D000882389F01092DC020E94EF299E01209548
:1026E0003095820F931F9093DA028093D902109253
:1026F000DE021092DD028091D9029091DA020E94EE
:10270000072A8C179D07B8F1809196018823B1F0B4
:102710001092960180919401909195010E94072A50
:102720008033954758F00E94EF299093950180934C
:1027300094018091E40288608093E402E090DD02DD
:10274000F090DE02E091D902F091DA02CE0FDF1FA5
:10275000D093DA02C093D90289ED92E0F80109958D
:102760008091DD029091DE02892B29F4EF2819F087
:1027700081E080939601DF91CF911F910F91FF909F
:10278000EF900895882311F0FA0101C0FB0109942C
:10279000CF93DF93C82FD62F0E94C60B8C1740F023
:1027A0000E94C60B8D1720F4DF91CF910C94D311AA
:1027B0008C2FDF91CF910C94E3111F93CF93DF9374
:1027C000FB011281111163C0EC010E94B5278272D6
:1027D000FE01E35CFC45E431F10508F057C0EA5A1C
:1027E000FF4F0C94E4310E94851251C040EE51E13C
:1027F00063ED71E104C043ED51E160EE71E10E94CF
:10280000C21345C04BE05EE06EEF7DE0F8CF4EEFC7
:102810005DE06BE07EE0F3CF49E25EE06AE17EE0FE
:10282000EECF4AE15EE069E27EE0E9CF47E45EE0B8
:1028300068E37EE0E4CF48E35EE067E47EE0DFCF7C
:1028400049EF5BE062EE7BE0DACF42EE5BE069EFFE
:102850007BE0D5CF81E017C065E082E010C068E082
:1028600086E00DC06EE089E00AC064E18FE007C039
:1028700067E185E104C088E106C062E289E10E9467
:10288000C81305C083E20E94E31101C011E0812F4B
:10289000DF91CF911F910895539A2BB1277F3BB1C0
:1028A00038604FB7F894FC01CB01880F991F680F6F
:1028B000791F6E0F7F1FE617F70789F0819198E067
:1028C0003BB9000000C087FF2BB9880F000000C093
:1028D00000C000C02BB900C09A9591F7ECCF4FBF54
:1028E0008FE594E00197F1F700C00000089582E2BF
:1028F00090E00E943B35813281F483E290E00E94B7
:102900003B35823051F484E290E00E943B3591E007
:10291000873109F090E0892F01C080E0817008952F
:10292000CF93C82F811102C06FEF01C061E282E234
:1029300090E00E944F35C11102C06FEF01C062E00C
:1029400083E290E00E944F35C11102C06FEF01C0D9
:1029500067E184E290E0CF910C944F3580E00E94D3
:1029600090140C946528089585E290E00E943B3510
:10297000682F70E080E090E0089585E290E00C948C
:102980004F350E94B3140E94771481110CC060E08F
:1029900070E0CB010E94BD140E94A8160E949517FA
:1029A00081E00C9490140895CF93FB01C281CC2355
:1029B000E9F09C0122513F452031310520F482513C
:1029C0000E94A5170CC08031FFE59F0751F481E0FC
:1029D0000E943C2643E062E081E00E940906C0E0DC
:1029E00018C081319F45A9F482E0F2CF8031EFE534
:1029F0009E0711F481E004C081319F4549F482E0D3
:102A00000E945D2643E062E081E00E94090601C069
:102A1000C1E08C2FCF9108952FEFFC012083089502
:102A2000CF93DF93EC018881813889F028F48038D6
:102A3000A1F40E94080C10C0823861F0833869F458
:102A40000E94020C89830E94050C8A8306C00E94A2
:102A5000C60B02C00E94FC0B8983DF91CF910895C1
:102A60000F931F93CF93DF9300D0CDB7DEB78C01C8
:102A7000FC0180818138D1F070F4803809F040C0C9
:102A8000F80141814A830E94050C89830E94020C4F
:102A90004A8169812DC0823809F1833889F50E9405
:102AA000080C482FF8016281818122C0F8018181E0
:102AB0000E94EE11F8018181811108C00F900F90E2
:102AC000DF91CF911F910F910C948C120F900F906A
:102AD000DF91CF911F910F910C942912F801818100
:102AE0000F900F90DF91CF911F910F910C94FF0BDE
:102AF0000F900F90DF91CF911F910F910C944A0E80
:102B00000F900F90DF91CF911F910F910895EF9249
:102B1000FF920F931F93CF93DF93EC01162F019633
:102B2000E8814E2F50E0FA013197E331F10508F0CA
:102B3000BBC0E659FF4F0C94E431198289E061C0B3
:102B40008981823039F0833061F0813079F50E94DB
:102B5000FB2902C00E94B4149A838B837C836D830B
:102B6000A5C07E0122E0E20EF11C00E0802F0E9451
:102B7000CD08F70181937F010F5F0A30B9F796C046
:102B80008981823099F42A816B81862F90E0A0E0C0
:102B9000B0E0DC0199278827B22B2D81822B2C8174
:102BA000BC01CD01722B0E94BD1480C0612FCE01EB
:102BB0000E940C157BC04B816A8189810E9473162B
:102BC0009C838D8373C02C8130E0322F22278D812E
:102BD000282B4B816A8189810E948C1667C00E94D4
:102BE000A81664C00E94301561C00E9410155EC016
:102BF0000E94A40B5BC00E94421726C00E9444178B
:102C000099838A8353C06B8170E0898190E0982F0B
:102C100088272A81AE014C5F5F4F822B0E944717A5
:102C200045C06B8170E0898190E0982F88272A81C8
:102C3000AE014C5F5F4F822B0E946B1737C00E9422
:102C4000951734C00E946016898330C06B8170E094
:102C5000898190E0982F88272A81AE014C5F5F4FD1
:102C6000822B0E94E71622C06B8170E0898190E080
:102C7000982F88272A81AE014C5F5F4F822B0E94DC
:102C80000B1714C00E94AE1411C0CE010E94B72AC7
:102C9000FFEF21EE84E0F15020408040E1F700C0DA
:102CA00000000E943C2A02C08FEF8883612FCE0172
:102CB000DF91CF911F910F91FF90EF900C94B72A65
:102CC00085E0089550E0440F551F20E1629F400DBC
:102CD000511D11249A0160EA869F200D311D112497
:102CE000C901869608950F931F93CF93DF930E9497
:102CF00062168C010E943B35C82FD0E0DC2FCC2718
:102D0000C80101960E943B359E01282BC901DF9125
:102D1000CF911F910F9108950F931F93CF93DF933E
:102D200000D0CDB7DEB72A8339830E9462168C01AA
:102D30003981632F0E944F352A81622FC801019685
:102D40000F900F90DF91CF911F910F910C944F3501
:102D5000AF92BF92CF92DF92EF92FF920F931F93A9
:102D6000CF93DF93A12CE12CF12CB12C00E010E0EB
:102D7000C0E0D0E06801CE0CDF1CFE01EC0DFD1DB3
:102D8000EE0FFF1FE257FE4F259134914C2F6B2D14
:102D90008A2D0E948C162196C830D10571F7085FE4
:102DA0001F4FB3948AE0B812E3CF80E5E80EF11C20
:102DB000A39485E0A812D9CFDF91CF911F910F91F5
:102DC000FF90EF90DF90CF90BF90AF900895EF927B
:102DD000FF920F931F93CF93DF93EA017A01E60EE0
:102DE000F71E8C01C8018696CE15DF0569F000320A
:102DF00023E0120720F40E943B35888301C018822B
:102E000021960F5F1F4FEECFDF91CF911F910F9152
:102E1000FF90EF900895CF92DF92EF92FF920F9381
:102E20001F93CF93DF937C016A018C01060F171F5C
:102E3000EC01CE018696C017D10771F0C03223E0B5
:102E4000D20740F4FE01EE19FF09EC0DFD1D608173
:102E50000E944F352196EDCFDF91CF911F910F91B9
:102E6000FF90EF90DF90CF900895462F853038F493
:102E70007A3028F4683018F4672F0C94731680E0C9
:102E800090E0089580E108958AEB90E00895EF9234
:102E9000FF920F931F93CF93DF93EA017A01E60E1F
:102EA000F71E8C01C8018A5B9C4FCE15DF0561F0CF
:102EB0000A3B110520F40E943B35888301C018822B
:102EC00021960F5F1F4FEECFDF91CF911F910F9192
:102ED000FF90EF900895CF92DF92EF92FF920F93C1
:102EE0001F93CF93DF937C016A018C01060F171F9C
:102EF000EC01CE018A5B9C4FC017D10769F0CA3B39
:102F0000D10540F4FE01EE19FF09EC0DFD1D6081B5
:102F10000E944F352196EDCFDF91CF911F910F91F8
:102F2000FF90EF90DF90CF900895CF93DF93C6E4AA
:102F3000D3E060E0CE010E944F352196C11584E0B8
:102F4000D807B9F7DF91CF910895DF92EF92FF9202
:102F50000F931F93CF93DF9300D000D0CDB7DEB790
:102F6000F82E8FE08F15E8F18FEF93E00E943B354C
:102F7000811137C006E413E0FF2069F0011584E0F9
:102F8000180779F1C8010E943B35811101C0FA94FC
:102F90000F5F1F4FF1CF19821A821B821C82DD2422
:102FA000D39478018FEFE81AF80AC8010E943B35E4
:102FB00089831A828823A9F09FEF980F933058F4E1
:102FC0008A83D9820E5F1F4FC7010E943B358B83D6
:102FD000882339F07801CE0101960E94B20587015D
:102FE000E0CF0F900F900F900F90DF91CF911F9136
:102FF0000F91FF90EF90DF9008950F931F93CF9361
:10300000DF93C42FD22FFC0182818823C9F0409323
:10301000E8020E94EF299093E7028093E60280E2A3
:103020008C0F883008F050C0C77081E001C0880F55
:10303000CA95EAF7DF91CF911F910F910C94701F01
:103040001091E802141330C08091E6029091E702DB
:103050000E94072A883C910538F5C0E2CD0F1D1764
:10306000B9F080E2810F883040F4177081E001C030
:10307000880F1A95EAF70E94771FC83048F481E05C
:103080009D2F977001C0880F9A95EAF70E94701FD4
:10309000802F0E945D1FC830B8F4D77081E001C056
:1030A000880FDA95EAF70AC080E28C0F883060F466
:1030B000C77081E001C0880FCA95EAF7DF91CF9110
:1030C0001F910F910C94771FDF91CF911F910F915A
:1030D00008950F939C01CB01243F4CE5340731F157
:1030E00088F4293DFCE53F07D9F02A3D4CE534073B
:1030F00079F1283D3C45A9F506E221EE41EE68ED67
:103100007CE52BC0263FFCE53F07E1F0A8F0273F18
:103110003C4539F507E225EE46EE67EF7CE51DC03C
:1031200007E225EE45EE69ED7CE517C006E221EEEB
:1031300040EE64EF7CE511C007E225EE44EE65EF5A
:103140007CE50BC006E221EE42EE66EF7CE505C0B1
:1031500008E221E045EE6AED7CE50E94FD1780E083
:1031600008C0FC018281882319F01092E80201C096
:1031700081E00F910895CF93DF93EC01FB018281F1
:10318000882309F41FC1C230FCE5DF0708F41BC126
:10319000C6319CE5D90738F09E012B5F3C452930AC
:1031A000310508F010C10E947E2890936E04809330
:1031B0006D04C031ECE5DE0709F4C3C008F041C07E
:1031C000C8308CE5D80709F49AC0F0F4C430ECE5B7
:1031D000DE0709F487C068F4C2308CE5D80709F42B
:1031E00077C0C330DC4509F0E3C080916D04826094
:1031F00076C0C630ECE5DE0709F46EC008F07BC08F
:1032000080916D0488606BC0CC308CE5D80709F4E0
:1032100085C068F4CA30ECE5DE0709F474C008F034
:1032200079C00E94D12180916D04806858C0CE3051
:103230008CE5D80709F476C008F07FC080916D0452
:103240008BC0CC3FECE5DE0709F44FC018F5C33165
:103250008CE5D80709F47DC078F4C131ECE5DE07D0
:1032600009F473C0C231DC4509F0A2C00E94D1212B
:1032700080916D048F7733C0C5318CE5D80709F490
:1032800072C008F486C0CB3FDC4509F091C0809144
:103290006E043EC0C115FDE5DF0709F45FC058F4B8
:1032A000CE3F9CE5D90709F444C008F43FC08091A3
:1032B0006E0482602DC0C230FDE5DF0709F475C0E1
:1032C00008F45DC0C330DD4509F072C080E06EC017
:1032D00080916D04816003C080916D048061809352
:1032E0006D0466C080916D0411C080916E0482608F
:1032F00080936E045DC080916D048062F0CF8091F8
:103300006D048064ECCF80916D0488608460E7CFA9
:103310008160EECF80916D048E7FE1CF80916D044E
:103320008D7FDDCF80916D04877FD9CF80916E0432
:1033300018C080916E048D7FDBCF80916D048F7EED
:10334000CECF80916D048F7DCACF80916D048F7B2D
:10335000C6CF80916D04877F8B7FC1CF80916E0433
:103360008D7F8E7FC5CF80916D0482FB222720F94F
:1033700091E0922790FB82F990FB83F9B0CF809186
:103380006E04982F909591708E7F892B90FB81F918
:10339000AFCF0E94D12180916D0487FB222720F9B5
:1033A00091E0922790FB87F99ACF81E00E9414293F
:1033B00080916D0490916E040E948F280E94D1210B
:1033C00080E001C081E0DF91CF910895CF93DF933A
:1033D00086319C4541F5EB010E94B527282F8A8153
:1033E00040912B0150912C01882379F02A7A91E0A9
:1033F00009F490E09093E902911102C069E201C0E2
:1034000065E3CA010E945A290AC08091E90281112C
:1034100002C069E201C065E3CA010E945C290E9402
:10342000012880E001C081E0DF91CF9108950F93E2
:103430001F93CF93DF938C01EB019091280192FFB2
:103440002BC0892F8B7F809328018091EC02909173
:10345000ED029B01281B390B8091290190912A01D3
:103460002817390740F48091EA020E94761E809165
:1034700028018D7F0AC082E00E94C8278091EA025D
:103480000E94761E8091280182608093280180919D
:10349000EA020E94FE1E0AC0802F0E94FE1E80913A
:1034A000EA029091EB020817190719F482E00E94D2
:1034B000CE270E940128D093ED02C093EC02DF9149
:1034C000CF911F910F9108958091280182FF17C01D
:1034D0000E94EF292091EC023091ED02AC01421BD9
:1034E000530B2091290130912A014217530738F0DC
:1034F000BC018091EA029091EB020C94171A089596
:1035000080912801982F909590FB80F98093280155
:1035100082E00C94CE27809128018E7F8093280131
:1035200082E00C94CE270F931F93CF93DF93CDB7F8
:10353000DEB728970FB6F894DEBF0FBECDBF8091DF
:103540002A018F93809129018F9385E791E09F93C2
:103550008F931F9288E08F938E010F5F1F4F1F93F1
:103560000F930E948D32C8010E94B2050FB6F894E5
:10357000DEBF0FBECDBF28960FB6F894DEBF0FBEDC
:10358000CDBFDF91CF911F910F910895CF92DF9220
:10359000EF92FF921F93CF93DF93EC016B010E9498
:1035A000EF297C01F6011281112309F472C0809188
:1035B000280182FF05C0B70180E090E00E94171A41
:1035C00082E00E94CE27C931FCE5DF0771F170F47B
:1035D000C731ECE5DE07F9F0C831FCE5DF0741F55E
:1035E0008091290190912A0105971AC0CB318CE571
:1035F000D80759F038F0CC31FCE5DF07C9F40E9458
:103600008B1A63C00E94801A60C08091280181607B
:10361000809328015AC08091290190912A01059632
:1036200090932A018093290150C00E94931A4DC0A3
:10363000CB32D10589F030F4CE010497849708F09D
:1036400044C00AC0CD32D10508F43FC0C933D1050A
:1036500018F0C436D105C9F5F60112811123E1F045
:103660008091280180FF31C00E94B5278D7F69F5C8
:10367000D093EB02C093EA02F092ED02E092EC02EA
:103680008091280184608093280182E00E944C2868
:1036900007C0CB32D10531F4B701CE010E94171A11
:1036A00010E013C0CC32D10530F4CE0104978497DA
:1036B00098F311E00AC0CD32D105D8F3C933D10552
:1036C00058F3C436D10541F3F4CF812FDF91CF9168
:1036D0001F91FF90EF90DF90CF9008958EE14A9B6D
:1036E00002C08150E1F74A9BFECF08955A9880E2CC
:1036F0008A95F1F75A9A0895FC014AE04A95F1F744
:1037000030E090E080E021E0961779F040E14A95C2
:10371000F1F7880F4A9B02C08160322700C0000089
:1037200040E14A95F1F79F5FEFCF90E19A95F1F76D
:1037300029B100C0000040E14A95F1F722FB99272A
:1037400090F993272081920F90830895EF92FF9232
:103750000F931F93CF93DF931F92CDB7DEB7F62E53
:103760001982E82E8C01802F8E198F1558F40E9433
:103770006E1B68E0CE0101960E947C1BF8018193CC
:103780008F01F1CF81E09981911180E00F90DF915D
:10379000CF911F910F91FF90EF9008959093F002B9
:1037A0008093EF026093EE02529A5A9A0895909392
:1037B000F0028093EF026093EE0252985A9AEA9ACE
:1037C000E9E6F0E080818F7C80830895615091E08C
:1037D00001C0990F6A95EAF720E031E0992361F082
:1037E000492F482319F05A9A232701C05A9840E2DA
:1037F0004A95F1F79695F2CF222311F05A9A01C01B
:103800005A9880E28A95F1F75A980895EF92FF92BC
:103810000F931F93CF93DF931F92CDB7DEB7162F71
:10382000082F7C018E2D801B811758F4F7018191A0
:103830007F0189830E94761B68E089810E94E61BD4
:10384000F1CF0F90DF91CF911F910F91FF90EF90EB
:1038500008951F920F920FB60F9211240F931F938A
:103860002F933F934F935F936F937F938F939F9388
:10387000AF93BF93EF93FF93CF93DF931F92CDB797
:10388000DEB719820E946E1B67E0CE0101960E948E
:103890007C1B382F369536953695932F96959570D7
:1038A000232F2570920F292F237096959695877058
:1038B000920F891348C08981811145C08091EE0221
:1038C000831708F440C080E18A95F1F75A9A529A1A
:1038D000A2E0AA95F1F700C00091EF021091F0026A
:1038E000B8E03B9F000D111D11245A98F801658125
:1038F000662321F0868197810E94061C0E94761B18
:10390000F0E1FA95F1F75A9852985A9A80E18A951F
:10391000F1F7D80112966C911297662369F013960D
:103920008D919C9114970E94A61BD801ED91FC915A
:10393000811105C082E004C0D801ED91FC9188E0BE
:1039400080830E946E1B0F90DF91CF91FF91EF91CA
:10395000BF91AF919F918F917F916F915F914F91A7
:103960003F912F911F910F910F900FBE0F901F90BD
:1039700018950F931F93CF93DF932091EE0230E0C1
:10398000281739070CF471C09C0193E0220F331FF4
:103990009A95E1F7C091EF02D091F002C20FD31FC8
:1039A000F894529A5A9845E04A95F1F70000982FFA
:1039B000969595708570890F982F9370869586954A
:1039C000890F8901082B0E94761B84E08A95F1F704
:1039D00000C067E0802F0E94E61B40E14A95F1F7A6
:1039E00052985A9A4A9902C000C0FCCF87E090E0F2
:1039F0004A9B0EC0019751F4529A5A9AE881F98174
:103A000081E08083789481E090E031C000C0F0CF05
:103A10006D81662381F08E819F810E94A61B81119A
:103A20000AC0529A5A9AE881F98182E08083789498
:103A300082E090E01CC00E946E1B80E28A95F1F744
:103A40005A98529A40E14A95F1F76A81662321F02B
:103A50008B819C810E94061C0E94761BE881F98163
:103A60001082789480E090E002C084E090E0DF91E2
:103A7000CF911F910F9108959093F6028093F502D4
:103A80000895E091F502F091F602309721F001904F
:103A9000F081E02D099480E00895E091F502F09125
:103AA000F602309721F00280F381E02D0994089509
:103AB0002091F3023091F4028217930771F09093F2
:103AC000F4028093F302E091F502F091F602309750
:103AD00021F00680F781E02D099408952091F102EC
:103AE0003091F2028217930771F09093F202809363
:103AF000F102E091F502F091F602309721F0008496
:103B0000F185E02D0994089585B7806885BF85B754
:103B1000806885BF0895089508950C948C1D0C94B9
:103B2000A5040E94841D0E948B1D0C948D1D0C9475
:103B3000170A089508950E94E6290E94F0080E943D
:103B4000C1140E94632A0E94F1110C948F1DBF9230
:103B5000CF92DF92EF92FF920F931F93CF93DF9359
:103B6000CDB7DEB72B970FB6F894DEBF0FBECDBF33
:103B70000E94991D0E949A1D0E9461090E94971D32
:103B8000811111C08FEF89838A831B820E94EF29E4
:103B90008160782F9D838C8349815A816B818D81CF
:103BA0000E94421E42C088EFC82E82E0D82E00E05C
:103BB00010E0B02E802F0E94CD08F601E1906F0139
:103BC000E82631F40F5F1F4F0A30110591F7DACF65
:103BD0009091820391FF04C08B870E94D3088B854C
:103BE00090E0FF24F3942F2D2E21D1F09E83BF82ED
:103BF0008F2191E009F490E098870E94EF2981607D
:103C0000782F9A8789874E815F8168858A850E948F
:103C1000421EF801E850FD4F8081F826F08205C071
:103C20009F5FFF0C9830F9F6CDCF0E94EF121091F4
:103C3000F7020E94411D1817A9F00E94411D8093B0
:103C4000F7022B960FB6F894DEBF0FBECDBFDF9103
:103C5000CF911F910F91FF90EF90DF90CF90BF9089
:103C60000C94DD062B960FB6F894DEBF0FBECDBFC9
:103C7000DF91CF911F910F91FF90EF90DF90CF9048
:103C8000BF900895CF93DF93CDB7DEB72B970FB6D4
:103C9000F894DEBF0FBECDBF4F83588769877A8700
:103CA0008B87DE01119686E0FD0111928A95E9F776
:103CB00085E0FE01379601900D928A95E1F74981E2
:103CC0005A816B817C818D819E810E9496242B96E6
:103CD0000FB6F894DEBF0FBECDBFDF91CF91089530
:103CE000FC01808191810E9476270895CF938823DB
:103CF00009F482C0C82F8238C1F40E94411D81FDA1
:103D00007BC069E380912B0190912C010E945A297C
:103D10000E9401282FEF81EE94E0215080409040D6
:103D2000E1F700C0000069E319C08338F1F40E9494
:103D3000411D80FD61C063E580912B0190912C01B4
:103D40000E945A290E9401282FEF81EE94E0215011
:103D500080409040E1F700C0000063E580912B01B6
:103D600090912C010E945C2944C08438C1F40E94C7
:103D7000411D82FD41C067E480912B0190912C018F
:103D80000E945A290E9401282FEF81EE94E02150D1
:103D900080409040E1F700C0000067E4DFCF8CEF87
:103DA0008C0F813AD0F46C2F80912B0190912C01D3
:103DB0000E942529882349F06C2F80912B01909136
:103DC0002C010E945C290E9401286C2F80912B01FC
:103DD00090912C010E945A290CC080E28C0F8830EF
:103DE00058F4C77081E001C0880FCA95EAF70E94B5
:103DF000B827CF910C940128CF910895882309F416
:103E00005BC0682F823879F40E94411D81FF54C045
:103E100069E380912B0190912C010E945A290E9404
:103E2000012869E310C08338B1F40E94411D80FF6E
:103E300043C063E580912B0190912C010E945A2987
:103E40000E94012863E580912B0190912C010E9432
:103E50005C290C940128843879F40E94411D82FF6A
:103E60002BC067E480912B0190912C010E945A296C
:103E70000E94012867E4E7CF8CEF860F813A18F3A0
:103E800080E2860F883048F4677081E001C0880FB7
:103E90006A95EAF70E94BE27DCCF8BE5860F833058
:103EA00020F480E090E00C94581D685A673120F4AB
:103EB00080E090E00C946E1D0895CF93C82F0E946F
:103EC000761EC93349F42FEF87EE93E021508040EE
:103ED0009040E1F700C000008C2FCF910C94FE1EA3
:103EE000882321F00E94B8270C9401280895882384
:103EF00021F00E94BE270C9401280895BF92CF9212
:103F0000DF92EF92FF920F931F93CF93DF937C0189
:103F1000062FC72FFC01D581D295DF7012811111B8
:103F20000E94D5270E94AE27882399F0112389F09B
:103F30008C2F807F803421F080E2800F883048F021
:103F400082E00E944C280E94AE2791E0B82EB9264C
:103F500001C0B12CCC2EC2948FE0C822D12CF60126
:103F6000E358FF4F0C94E4318C2F807FCF7088236F
:103F700011F0C295C07F112399F0CC2309F46CC1D4
:103F800080E2800F883010F0011104C08C2F0E9455
:103F9000B82703C08C2F0E94C8270E9401285CC14B
:103FA000802F0E94FE1ECC2309F47BC180E2800F8B
:103FB000883010F0011104C08C2F0E94BE2703C06E
:103FC0008C2F0E94CE270E9401286BC18C2F807FEE
:103FD000CF70803211F0C295C07F002319F00130FC
:103FE000C9F022C0112371F0DD2341F0D13031F44A
:103FF0000E94E8278C2B0E94EE2753C10E94E827DD
:104000008C2B1DC0DD2319F0D13009F44AC10E9468
:10401000F72725C0112321F0D63008F042C10EC089
:10402000D53008F03EC11BC0112361F0DD2331F013
:10403000F701858180FF10C18F7085838C2F0E94CE
:10404000701F2FC1DD2359F0093309F016C1FFEFAE
:1040500027EE83E0F15020408040E1F70CC18C2F27
:104060000E94771F1EC18C2F837009F049C0111167
:104070001FC1402F429546954770440F440F602F53
:104080006F70862F90E0A0E0B0E0042E04C0880F8F
:10409000991FAA1FBB1F0A94D2F704FF10C00FE09C
:1040A00010E020E030E004C0000F111F221F331F7A
:1040B0004A95D2F7009510952095309503C000E001
:1040C00010E09801C695C695C370D0E0BC01CD0143
:1040D000602B712B822B932BC230D10559F0C3304A
:1040E000D10559F0219719F00E94DB25E1C00E940B
:1040F000C925DEC00E94ED25DBC00E94C725D8C0BF
:10410000112319F08C2F817001C08695882309F442
:10411000CFC0402F429546954770440F440F602F03
:104120006F70862F90E0A0E0B0E0042E04C0880FEE
:10413000991FAA1FBB1F0A94D2F704FF10C00FE0FB
:1041400010E020E030E004C0000F111F221F331FD9
:104150004A95D2F7009510952095309503C000E060
:1041600010E09801C695C695C370D0E0BC01CD01A2
:10417000602B712B822B932BC230D10559F0C330A9
:10418000D10559F0219719F00E94B52691C00E94DF
:10419000A3268EC00E94C7268BC00E94012688C01D
:1041A000CF70112339F08C2F0E943C26802F0E9463
:1041B000701F7EC0802F0E94771F8C2F0E945D266B
:1041C00077C0023F01F128F4003F41F0013FA1F028
:1041D0003FC0033FF9F0043F39F13AC0112341F0E9
:1041E000D53008F05EC08C2F8F710E94822659C096
:1041F000D63008F056C0F7CF112339F08C2F8F71CD
:104200000E943C264EC01123C9F38C2F8F710E944F
:104210005D2647C0112329F08C2F8F710E9427261D
:1042200040C00E940D263DC0112349F0CF718C2F54
:104230000E943C2663E08C2F0E94372832C081E028
:104240000E944C28D23068F182E00E944C2829C09C
:10425000112331F0DD2391F2802F0E94761E21C0C0
:10426000DD2399F2093349F49FEFE7EEF3E0915033
:10427000E040F040E1F700C00000802F0E94FE1EE9
:1042800010C04C2F4F70602FC7010E94E6060E949D
:104290003A2512C04C2F4F70602FC7010E94E906CB
:1042A0000BC028E0C21AD10884E0C816D10420F45B
:1042B0000E94411D0E94DD06BB20D1F00E94AA276A
:1042C00080FD16C0F70112820E94A4270E943C269E
:1042D000C7010E949A210E94A427DF91CF911F91CC
:1042E0000F91FF90EF90DF90CF90BF900C945D26E0
:1042F000DF91CF911F910F91FF90EF90DF90CF90C2
:10430000BF9008950F931F93CF93DF93EC016881C3
:1043100079818A810E9481278C010E94D9260E947E
:10432000C625B801CE010E947E1FDF91CF911F915B
:104330000F910895CF93DF93EC01888199812B81B0
:104340003C81232BE9F09F3F11F48F3FC9F0CE0150
:104350000E94390681110CC00E94AE27882381F08B
:104360008A81882369F082E0DF91CF910C944C28F8
:10437000CE010E948221CE01DF91CF910C94F204F4
:10438000DF91CF9108950E94D5270E94E5270C94D4
:10439000012880912B0190912C010E945E290C94A0
:1043A000C3210E94C5270C94C921E92FE295EF7023
:1043B000F0E03297EE30F105B0F4E357FF4F0C9484
:1043C000E431803F91F018F4883E68F40EC0843FD9
:1043D00051F40BC0883E48F0813F29F406C093FB9E
:1043E000882780F9089580E0089581E008950E946B
:1043F00076270E94D5210895CF93DF9300D000D077
:104400001F92CDB7DEB70F900F900F900F900F90C7
:10441000DF91CF910895CF93DF9300D000D000D0EB
:10442000CDB7DEB726960FB6F894DEBF0FBECDBF70
:10443000DF91CF9108951F93CF93DF93C091030332
:1044400016E080910403C81799F0D0E01C9FF0019A
:104450001D9FF00D1124EB5FFC4F40815181628163
:104460007381848195810E940B222196C770E9CFC8
:10447000DF91CF911F9108954091350350913603FC
:1044800060913703709138038091390390913A031A
:104490000C940B22209103039091040356E02917FA
:1044A000A9F030E0529FF001539FF00D1124EB5F13
:1044B000FC4F7181671306C07081871303C072813E
:1044C000471306C02F5F3F4F2770E9CF80E0089564
:1044D00081E00895CF93DF9380913A0382958F70A6
:1044E00009F051C080913703882309F44CC08091B2
:1044F0000303C0910403409135035091360360914A
:10450000380370913903D6E08C17E9F190E061151A
:104510007105B1F15F3F11F44F3F91F1D89FF00168
:10452000D99FF00D1124DF01AB5FBC4F11962C9188
:104530001197521325C02C91421322C012962C9130
:10454000129721111DC013962D913C911497261B93
:10455000370B283C3105A0F480913A038F708061BD
:1045600080933A03E65FFC4F80818F708061808387
:1045700085E393E00E949A21DF91CF910C941B2256
:1045800001968770C1CFDF91CF9108958F929F924E
:10459000AF92BF92DF92EF92FF920F931F93CF9350
:1045A000DF93CDB7DEB762970FB6F894DEBF0FBECC
:1045B000CDBF8C0185E0F801DE011D9601900D92C2
:1045C0008A95E1F7D801EC9011965C9111971296BB
:1045D000DC90129713968D909C90149790913503D0
:1045E000209136036091380370913903611571058C
:1045F00009F46CC12F3F19F49F3F09F467C185E3AB
:10460000A82E83E0B82EF0903703F401E61BF70BD9
:10461000FF2009F404C180913A03382F307FE83C31
:10462000F10508F0C0C0311179C0251313C09E11E7
:1046300011C0D1100FC08F70806180933A030E9427
:104640003C22C5010E949A2180913A03D801159617
:104650008C9321C0892809F457C05F3F21F4BFEF34
:10466000EB1609F451C0D11018C040E0652F8E2D13
:104670005A8B0E944A225A89882379F085E393E075
:104680000E949A21E5E3F3E086E0DF011D928A951E
:10469000E9F70E943C22F12C36C15F3F19F4BFEFCD
:1046A000EB1691F1D11030C040E0652F8E2D5A8B62
:1046B0000E944A22B82E5A89811126C0ED865E8753
:1046C0008D859E850E947627292F22952F7030E0B8
:1046D0002230310524F02430310534F00FC09F70B2
:1046E00049F0811107C00EC09F7021F0F80195813B
:1046F000907F41F090E2980F983020F0C8010E941E
:104700009A21BF2CFB2CFFC0FD2CDD2009F4FBC03F
:1047100080913A03816080933A03BDCF251306C090
:104720009E1104C0D11002C0D8019AC0ED865E87E8
:104730008D859E850E94F721882379F1DD2069F11E
:1047400020913A03822F82958F7090E0029774F047
:10475000809135039091360398878F8319869B86C5
:104760008A862C87CE0107960E949A2186E0F8015E
:10477000A5E3B3E001900D928A95E1F70E946A22C9
:104780000E943C220DC0251711F1ED865E878D85B4
:104790009E850E94F72181112AC0C8010E949A219A
:1047A000FF24F394B0C03111EECF782D998A888A16
:1047B0004E2D6D2D89890E94FC2185E393E00E9496
:1047C0009A2186E0F50111928A95E9F762CF9E1150
:1047D000DCCFD110DACFD80115968C93C8010E9496
:1047E0009A2186E0F50111928A95E9F78CC0DD20C7
:1047F000A1F220913A03822F82958F7090E0029768
:104800000CF4B4CF80913503909136039A83898359
:104810001B829D828C822E83CE010196A5CFE83C1F
:10482000F10508F045C0FD2CDD2009F4B6CF2513B5
:104830002EC09E112CC020913A0320FD1FC0822F54
:1048400082958F70D9F0D80115962C9315978F30DB
:1048500049F08F5F982F9295907F822F8F70892BD0
:1048600015968C93C8010E949A2186E0F801A5E371
:10487000B3E001900D928A95E1F743C086E0F8011C
:10488000A5E3B3E001900D928A95E1F73CC0ED8677
:104890005E878D859E850E94F721811167CF80916B
:1048A0003A03816080933A03C8010E949A212BC089
:1048B000782D998A888A4E2D6D2D89890E94FC2138
:1048C00086E0F50111928A95E9F71BC0DD2009F415
:1048D00064CFED865E878D859E850E94F721F82E38
:1048E000882309F45ACF86E0F801A5E3B3E00190EC
:1048F0000D928A95E1F785E393E00E94701E0E9475
:104900006A220E943C228F2D62960FB6F894DEBF79
:104910000FBECDBFDF91CF911F910F91FF90EF9010
:10492000DF90BF90AF909F908F9008951F93CF938B
:10493000DF93CDB7DEB72C970FB6F894DEBF0FBE6E
:10494000CDBF4F83588769877A878B879C87CE0135
:1049500007960E94C622882369F08F8198852A8550
:104960003B85232BF1F19F3F09F063C08F3F09F096
:1049700060C037C086E0FE013796DE0111960190D7
:104980000D928A95E1F76F817885EA85FB853097EE
:1049900041F17F3F11F46F3F21F12091040330E09A
:1049A000C9010196877099274091030350E084174D
:1049B000950709F447C069837A83FD83EC8396E009
:1049C000929FD001939FB00D1124AB5FBC4FFE01AD
:1049D000319601900D929A95E1F7809304030E941D
:1049E0001B2216E080910303909104038917C1F103
:1049F000189FC00111248B5F9C4F0E94C622882300
:104A000079F1E09103031E9FF0011124EB5FFC4F4D
:104A10004081518162817381848195810E940B2242
:104A20008091030390E00196877099278093030398
:104A3000D9CF4F81588569857A858B859C850E9461
:104A40000B22CFCF0E94D1211092040310920303B6
:104A5000E5E3F3E086E0DF011D928A95E9F7C1CF37
:104A60002C960FB6F894DEBF0FBECDBFDF91CF916D
:104A70001F910895EF92FF920F931F93CF93DF93AF
:104A80008C01892B09F46CC0F12CEE24E394E8012D
:104A90002196F8018491843740F4843008F051C0A5
:104AA000813081F0823019F15BC0853709F444C050
:104AB000A8F19CE7980F903708F052C08F770E94BA
:104AC000FE1E41C00E5F1F4FFE01C49180E28C0F9D
:104AD000883048F4C7708E2D01C0880FCA95EAF758
:104AE0000E94D82714C08C2F0E94761E2DC00E5F06
:104AF0001F4FFE01C49180E28C0F883058F4C770BC
:104B00008E2D01C0880FCA95EAF70E94DE270E9409
:104B100001281AC08C2F0E94FE1E16C00E5F1F4F68
:104B2000FE01C491CC2381F08FE99FE00197F1F75A
:104B300000C00000C150F6CF0E5F1F4FFE01F49081
:104B400003C00E94761E8E018F2D882309F49FCF0B
:104B5000EFE9FFE03197F1F700C000008150F5CF99
:104B6000DF91CF911F910F91FF90EF9008950895DD
:104B70000C94B7250E94B82560937103709372035B
:104B800080937303909374030C94C32108950C9441
:104B9000BA250F931F930091710310917203209116
:104BA000730330917403602B712B822B932B1F9115
:104BB0000F910C94BA250F931F93009171031091DC
:104BC0007203209173033091740360237123822355
:104BD00093231F910F910C94BA250F931F9300916B
:104BE0007103109172032091730330917403602755
:104BF0007127822793271F910F910C94BA250C944B
:104C00006F040E94FF2560936D0370936E03809381
:104C10006F03909370030C94C32160E070E0CB01AC
:104C20000C940126611571058105910529F481E037
:104C3000442361F080E00895DC01CB0104C0B69507
:104C4000A795979587954A95D2F7817008950F9308
:104C50001F9341E050E060E070E08A019B0104C0D6
:104C6000000F111F221F331F8A95D2F7C901B80107
:104C70001F910F910C9401260F931F9341E050E078
:104C800060E070E004C0440F551F661F771F8A95CF
:104C9000D2F780916D0390916E03A0916F03B09154
:104CA00070038A019B01082B192B2A2B3B2BC9016E
:104CB000B8011F910F910C9401260F931F9341E0AF
:104CC00050E060E070E004C0440F551F661F771F7E
:104CD0008A95D2F7409550956095709580916D03B7
:104CE00090916E03A0916F03B09170038A019B01B4
:104CF000082319232A233B23C901B8011F910F91CF
:104D00000C9401260F931F9341E050E060E070E0A7
:104D100004C0440F551F661F771F8A95D2F78091F4
:104D20006D0390916E03A0916F03B09170038A019F
:104D30009B01082719272A273B27C901B8011F9182
:104D40000F910C9401260F931F9300916D03109106
:104D50006E0320916F0330917003602B712B822BB7
:104D6000932B1F910F910C9401260F931F93009189
:104D70006D0310916E0320916F03309170036023D7
:104D80007123822393231F910F910C9401260F937B
:104D90001F9300916D0310916E0320916F0330916A
:104DA000700360277127822793271F910F910C941E
:104DB0000126089528E0929F800D1124A82FA69522
:104DC000A695A695877051E001C0550F8A95EAF720
:104DD00085E0A89FD001112420E030E070E0F901C7
:104DE000EA0FFB1FE55CFC4F4081CB01022E02C0A5
:104DF000969587950A94E2F7817099278195842783
:104E00008523842780832F5F3F4F2530310539F775
:104E1000089528E0929F800D1124682F669566956D
:104E20006695982F977085E0689FB001112440E047
:104E300050E080E0FA01E60FF71FE55CFC4F2081AF
:104E400030E0092E02C0369527950A94E2F72170CA
:104E50003327042E01C0220F0A94EAF7822B4F5FFA
:104E60005F4F4530510531F70895BF92CF92DF92E1
:104E7000EF92FF920F931F93CF93DF938C01C0901B
:104E80007103D0907203E0907303F09074038091EB
:104E90006D0390916E03A0916F03B0917003C82AC7
:104EA000D92AEA2AFB2ACFE1D0E0D701C6010C2E8D
:104EB00004C0B695A795979587950A94D2F780FF79
:104EC00007C0BC2EB8018C2F0E94F206019719F47E
:104ED000219758F7B12C8B2DDF91CF911F910F9116
:104EE000FF90EF90DF90CF90BF900895CF93DF9326
:104EF000EC010E943527BE010E94F206DF91CF919E
:104F000008951F93CF93DF93EB01909102039923B0
:104F100021F0CB010E94762713C0882349F0CB01F2
:104F20000E943527182F682FCE010E94DA2604C070
:104F3000CB010E940927182FBE01812F0E94F20683
:104F4000DF91CF911F910895809175038595859587
:104F500085950895809175038770089590917503E4
:104F6000977081E009F480E00895809181030895AD
:104F700090918103892B809381030895809590916E
:104F800081038923809381030895109281030895FA
:104F900090918003892B8093800308958095909150
:104FA00080038923809380030895109280030895DD
:104FB00090917F03892B80937F0308958095909132
:104FC0007F03892380937F03089510927F030895C0
:104FD00080917603089508950C94EB2790917603C1
:104FE000981721F0809376030C94EC270895809114
:104FF0007603882329F01092760380E00C94EC2746
:105000000895E0912B01F0912C0180918103808320
:10501000E0912B01F0912C01908180918003892BEC
:105020008083E0912B01F0912C01908180917F038E
:10503000892B808380917603882381F0E0912B0176
:10504000F0912C019081892B808380912B0190918C
:105050002C010E94192981110E94F72780912B01B0
:1050600090912C010C944D1D08950C94342898E0D7
:10507000899F90011124262B209375030E943C26C2
:10508000809175038595859585950C9435281092AA
:10509000750380E00C943528209175038095822358
:1050A00080937503982F977079F430E0482F082E7D
:1050B000000C550B2417350739F085958595859596
:1050C0000E945D260C94472808956FEF7FEF80E0E3
:1050D00090E00C946D3580E090E00E94493521E02D
:1050E0008C3E9E4F09F020E0822F089582E090E0F0
:1050F0000C943B3583E090E00C943B35CF9384E0F7
:1051000090E00E943B35C82F81E290E00E943B3541
:105110002C2F30E0A901582BCA01CF910895CF93CD
:10512000C92F682F84E090E00E944F356C2F81E2F8
:1051300090E0CF910C944F35AB01BC018FE090E033
:105140000C946135AB01BC0183E190E00C946135B6
:1051500060E070E0CB010C94A22860E070E0CB012D
:105160000E949C280C94A8286CEE7EEF80E090E0D2
:105170000E946D3560E082E090E00E944F3560E073
:1051800083E090E00E944F351092710310927203F9
:10519000109273031092740360E084E090E00E9428
:1051A0004F3560E081E290E00E944F3560E085E09D
:1051B00090E00E944F3560E086E090E00E944F351D
:1051C0006FEF87E090E00E944F3540E050E0BA0179
:1051D00088E090E00E94613560E08DE090E00E9400
:1051E0004F3540E050E0BA0188E190E00E9461351F
:1051F00060E087E190E00E944F3540E050E0BA0166
:105200008CE190E00E94613560E080E290E00E94D5
:105210004F3540E050E0BA0188E190E00E946135EE
:105220000C94AD280C94B428682F8EE090E00C9478
:105230004F35FC01329697E080E0915029F02191A2
:105240002223D9F38F5FF9CF0895662349F0FC013B
:10525000329608962191261729F0E817F907D1F719
:1052600080E0089581E008959C01FC0132969FEF53
:1052700080E04191461789F09F3F19F4411101C028
:10528000982F8F5F8630A9F79F3F39F0F901E90F1A
:10529000F11D97FDFA95628308950895FC013296F9
:1052A00008962081261301C010823196E817F9076D
:1052B000C1F708950C9434290C944E29029626E0E7
:1052C000FC0111922A95E9F7089508950C94652937
:1052D0000E94662980917304843059F110928303EF
:1052E00020E488E190E00FB6F894A89580936000E0
:1052F0000FBE2093600080E00E94DD060E94A31292
:105300000E94662983B7817F846083BF83B78160F1
:1053100083BF7894889583B78E7F83BF0FB6F89448
:10532000A895809160008861809360001092600071
:105330000FBE089508950895CF930E949A290E9460
:1053400061090E949B29C0E08C2F0E94CD08811129
:1053500004C0CF5FCA30C1F701C081E0CF9108958A
:1053600008950C94B0290E94D1210E94411D0E94F1
:10537000DD060E9431120C94B1291F920F920FB6D4
:105380000F9211248F939F93AF93BF9380918303C8
:10539000811113C08091690490916A04A0916B04FB
:1053A000B0916C044196A11DB11D80936904909346
:1053B0006A04A0936B04B0936C04BF91AF919F916A
:1053C0008F910F900FBE0F901F90189582E084BDB3
:1053D00093E095BD9AEF97BD80936E0008952FB727
:1053E000F8948091690490916A04A0916B04B09143
:1053F0006C042FBF08952FB7F894609169047091E1
:105400006A0480916B0490916C042FBF08959C01F5
:105410004FB7F8948091690490916A04A0916B044D
:10542000B0916C044FBF821B930B089578941F9228
:105430000F920FB60F9211248F939F93AF93BF9348
:105440008091690490916A04A0916B04B0916C04FE
:105450000196A11DB11D8093690490936A04A093E5
:105460006B04B0936C04BF91AF919F918F910F909B
:105470000FBE0F901F90189587E797E7909301084C
:10548000809300089AE088E10FB6F894A89580937D
:1054900060000FBE90936000FFCF0C94AE140E948A
:1054A00061098FE39CE90197F1F700C000000E94B9
:1054B000610980E00E94CD0880FF04C00E944D2A4F
:1054C0000C943C2A08950E946B28811102C00E940E
:1054D00012290E947628809382030E947E2890934E
:1054E0006E0480936D040E947A28682F70E080E03B
:1054F00090E00E94C72560916D0370916E038091CA
:105500006F03909170030C94FF2580918C03089594
:10551000089508950895CF93DF9321E02093E90043
:105520002FEF3091E800215035FD06C035ED3A955A
:10553000F1F700002111F5CF2091E80025FF14C0FC
:10554000EC0140E050E068E070E00E94A72C809100
:10555000E8008E778093E80088E0FE01A4E8B3E0DD
:1055600001900D928A95E1F7DF91CF910895CF9345
:10557000603219F5209173042430F9F4C091E900E8
:10558000CF703091EC00232F217030FD20E8C22B2A
:1055900022E02093E9002091E80020FF0BC040E0CA
:1055A00050E060E270E00E94A72C8091E8008E77C6
:1055B0008093E800CF70C093E900CF910895809167
:1055C0007204811109C00E94872E0E94E42E8091EE
:1055D000E20084608093E2000895109272040895BE
:1055E000089508950C94B32942E061EC81E00E9493
:1055F000012E42E261EC82E00E94012E42E260EC68
:1056000083E00C94012E80917504833009F460C00E
:1056100030F4813071F0823009F499C008958A30F5
:1056200009F485C08B3009F46BC0893009F0A7C03C
:1056300020C080917404813A09F0A1C08091E800F3
:10564000877F8093E8008091780490917904892B7A
:1056500021F468E084E893E003C060E080E090E03B
:1056600070E00E943D2D8091E8008B778093E800E8
:10567000089580917404813209F081C0809178048A
:1056800090917904892B09F07AC08091E800877F96
:105690008093E8008091E80082FD05C0809173044A
:1056A0008111F8CF6CC02091F3008091F20090E05E
:1056B000922B029729F48091F1008B7F813021F4A5
:1056C0008091F10080938C038091E8008B7753C028
:1056D00080917404813A09F052C0809178049091CD
:1056E0007904892B09F04BC08091E800877F809373
:1056F000E8008091E80080FFFCCF8091370136C040
:10570000809174048132D9F5809178049091790464
:10571000892BA9F58091E800877F8093E8000E949B
:10572000362E80917604809337010C94D12180919C
:105730007404813221F58091E800877F8093E8002E
:105740000E94362E8091770480938D030895809176
:105750007404813AA1F48091E800877F8093E80087
:105760008091E80080FFFCCF80918D038093F10051
:105770008091E8008E778093E8000C94362E08958F
:105780001F93CF93DF93CDB7DEB7A0970FB6F894F2
:10579000DEBF0FBECDBF84B7877F84BF0FB6F8943E
:1057A000A8958091600088618093600010926000ED
:1057B0000FBE90E080E80FB6F8948093610090935C
:1057C00061000FBE0E94911D0E94872E0E94E42E50
:1057D0008091E20084608093E20078940E947331AB
:1057E0000E949B1D8DE291E00E943C1D13E0809180
:1057F0007304853069F40E946829809171048823BC
:10580000B1F30E949C29882391F30E94912CEFCF41
:105810000E94A71D80917304843009F51093E9005C
:105820008091E80082FF1BC08091E80085FF0AC0DC
:1058300040E050E060E270E0CE0101960E94F22C60
:1058400091E001C090E08091E8008B778093E800C0
:10585000992329F060E2CE0101960E9487150E94EB
:10586000991D0E949A1DC3CF0C94362C292F3327E3
:1058700023303105C9F064F42130310581F0223044
:10588000310509F046C082E490E022E937E045C0E6
:1058900021323105F1F02232310559F13AC082E16D
:1058A00090E024ED37E039C099278130910541F02F
:1058B0008230910541F0892B61F5EEE8F7E005C0F3
:1058C000ECE7F7E002C0E8E6F7E0849190E09F01A2
:1058D00024C06115710541F061307105D1F489E092
:1058E00090E02DEB37E019C089E090E024EA37E042
:1058F00014C06115710541F06130710551F482E207
:1059000090E026EE37E009C080E490E028E038E03F
:1059100004C080E090E020E030E0FA013183208391
:10592000089580E189BD82E189BD09B400FEFDCF03
:105930008091D8008F7D8093D8008091E0008260B4
:105940008093E0008091E00081FDFCCF0895CF922C
:10595000DF92EF92FF920F931F93CF93DF93EC01AF
:105960008B016A010E94552E811133C0C114D104EC
:1059700039F0F60180819181081B190BC80FD91FDE
:10598000E12CF12C0115110519F18091E80085FD3C
:1059900016C08091E8008E778093E800C114D1048E
:1059A00049F0F60180819181E80EF91EF182E082D2
:1059B00085E00FC00E94552E882321F30AC08991EB
:1059C0008093F10001501109FFEFEF1AFF0ADACFBF
:1059D00080E0DF91CF911F910F91FF90EF90DF90CA
:1059E000CF900895CF92DF92EF92FF920F931F9383
:1059F000CF93DF93EC018B016A010E94552E811138
:105A000033C0C114D10439F0F60180819181081BA3
:105A1000190BC80FD91FE12CF12C0115110519F133
:105A20008091E80085FD16C08091E8008B77809317
:105A3000E800C114D10449F0F60180819181E80E9B
:105A4000F91EF182E08285E00FC00E94552E882366
:105A500021F30AC08091F100899301501109FFEFF1
:105A6000EF1AFF0ADACF80E0DF91CF911F910F91FB
:105A7000FF90EF90DF90CF90089520917A043091BD
:105A80007B042617370748F06115710539F420911A
:105A9000E8002E772093E80001C0B90140E06115CD
:105AA0007105A9F120917304222309F443C0253024
:105AB00009F442C02091E80023FD40C02091E80095
:105AC00022FD32C02091E80020FFE9CF4091F30091
:105AD0002091F20030E0342BFC01CF0161157105FB
