:100000000C94F0030C9437040C9437040C94FF17F1
:100010000C9437040C9437040C9437040C94370474
:100020000C9437040C9437040C94092A0C94DB2AA2
:100030000C9491250C9437040C9437040C943704D9
:100040000C9437040C9437040C9437040C94370444
:100050000C9437040C94DE250C9437040C9437046C
:100060000C9437040C9437040C9437040C94370424
:100070000C9437040C9437040C9437040C94370414
:100080000C9437040C9437040C9437040C94370404
:100090000C9437040C9437040C9437040C943704F4
:1000A0000C9437040C9437040C9437044F135213F8
:1000B00057135E13631368136D13721377137C1356
:1000C0008113861388138B138E1391139413971334
:1000D00099139E13881B881BBA1BBA1B251D251D4F
:1000E000251D251D071CA41CB51CB51C151D251D93
:1000F000251D1E1DB51DB51DC71DC71DBE1DC71D58
:10010000C71DC71DB51DB51DC31DC71DC71DC31DFB
:10011000482B6F2B612C6F2B612CBB2BDE2B612CA2
:10012000342C432C400136012C0100001D0155FFE9
:10013000FFFF00000000010100FFFFFF00000000C2
:1001400000400000002004BFFFFF3201BFFFFF2579
:100150000400FFFF2A0300FFFF2A0300FFFF2F0315
:1001600000FFFFFF0000000029001E001F0020000C
:1001700021002200000000002B0014001A000800DB
:100180001500170000000000E00004001600070042
:1001900009000A0000000000E1001D001B0006002D
:1001A000190005004C000000000000000000504253
:1001B0004F642C42686100000000230024002500E9
:1001C000260027002D00350000001C0018000C0040
:1001D000120013002F002A0000000B000D000E007B
:1001E0000F00330034002800E30011001000360037
:1001F000370038002E00E50028622A43516452443B
:10020000000000003000310029001E001F00200007
:1002100021002200000000002B0014001A0008003A
:100220001500170000000000E000040016000700A1
:1002300009000A0000000000E1001D001B0006008C
:10024000190005004C0000000000000000005042B2
:100250004F642C00E0000000000023002400250073
:10026000260027002D00350000001C0018000C009F
:10027000120013002F002A0000000B000D000E00DA
:100280000F00330034002800E30011001000360096
:10029000370038002E00E50028002A4351645244FC
:1002A00000000000300031000100000000000000EC
:1002B000000000000000000001004E0052004B0052
:1002C00000000000000000000100500051004F003D
:1002D000000000000000000001004A0051004D0035
:1002E00050094F09010000000000000000001050FC
:1002F00001000100010000000000540000000000A7
:10030000000000002D000000000055005F006000AC
:100310006100000026020100000056005C005D0044
:100320005E003600340058005300570059005A0050
:100330005B0063002E00010001000100620001006B
:10034000000000002702025301003A003B003C007D
:100350003D003E0000000000010000000000000021
:100360000000000000000000390000000000000054
:10037000000000000000000001000000000000007C
:10038000000000000100000000000000000012500A
:10039000010001000100000000003F00400041009A
:1003A0004200430044004900000000004E0052009B
:1003B0004B000000500946000000000050005100B2
:1003C0004F00000000000100000000004A00510042
:1003D0004D00000045000100010001000100010086
:1003E000000000004F094604005CC35CC45CC55CAF
:1003F0000000000000000000DF5C0000CB5CCA5C75
:100400001B5C1C5C0000000000000000C95CC85CB4
:10041000175C185C0000000000000000C75CC65CB0
:10042000195C000000520000000000000000010004
:1004300001000100010000000000000000000000B9
:1004400000000000000000000000000000000000AC
:10045000000000000000000000000000000000009C
:100460000000000000000000015200000000000039
:100470000000000000000000010001000100010078
:10048000000000000000000000000000000000006C
:100490002A2B2800000000000000000000000000DF
:1004A00000000029000000002C1E342021222434EA
:1004B0002627252E362D3738271E1F2021222324BC
:1004C00025263333362E37381F0405060708090A58
:1004D0000B0C0D0E0F101112131415161718191AF4
:1004E0001B1C1D2F3130232D350405060708090A72
:1004F0000B0C0D0E0F101112131415161718191AD4
:100500001B1C1D2F3130354C000000000000000086
:100510000000000000000000000000007E0F00D47A
:10052000FFFFFFC70000007832190A00047F3F1F59
:10053000643214643214783C1E1E140A05222325EA
:100540002628292A2C2D2F3032333536383A3B3D98
:100550003E4042434547494A4C4E505153555759E6
:100560005A5C5E6062646668696B6D6F7173757703
:10057000797B7D7F81838587898A8C8E9092949602
:10058000989A9C9E9FA1A3A5A7A8AAACAEAFB1B311
:10059000B4B6B8B9BBBCBEBFC1C2C3C5C6C7C9CA61
:1005A000CBCCCDCED0D1D2D2D3D4D5D6D7D7D8D923
:1005B000D9DADADBDBDBDCDCDCDCDCDDDDDDDDDC81
:1005C000DCDCDCDCDBDBDBDADAD9D9D8D7D7D6D593
:1005D000D4D3D2D2D1D0CECDCCCBCAC9C7C6C5C355
:1005E000C2C1BFBEBCBBB9B8B6B4B3B1AFAEACAAA2
:1005F000A8A7A5A3A19F9E9C9A98969492908E8C52
:100600008A89878583817F7D7B79777573716F6D2B
:100610006B6968666462605E5C5A59575553515005
:100620004E4C4A4947454342403E3D3B3A383635B9
:100630003332302F2D2C2A292826252322FFAA7F6A
:100640005540000101010101010101010202020204
:10065000020202020203030303030303030404046C
:100660000404040405050505050606060606070735
:1006700007070708080808090909090A0A0A0B0BED
:100680000B0C0C0C0D0D0D0E0E0E0F0F0F1010118C
:100690001111121213131414151516161717181812
:1006A00019191A1A1B1B1C1D1D1E1E1F202021227A
:1006B00022232424252626272829292A2B2C2D2DC0
:1006C0002E2F30313232333435363738393A3B3CDD
:1006D0003D3E3F404142434445464748494A4C4DD0
:1006E0004E4F50515354555658595A5B5D5E5F6199
:1006F0006264656668696B6C6D6F7072737577782C
:100700007A7B7D7E8082838587888A8C8E8F919389
:100710009596989A9C9EA0A2A3A5A7A9ABADAFB1B0
:10072000B3B5B7BABCBEC0C2C4C6C9CBCDCFD1D495
:10073000D6D8DBDDDFE2E4E7E9EBEEF0F3F5F8FA3B
:10074000FDFF1203570069006C006C006F0077001A
:100750003600340000001003480061006E006100A4
:100760006300680069000000040309040902220014
:10077000010100A0FA0904000001030101000921A0
:10078000110100012240000705810308000A12013F
:1007900010010000000801BB01000200010200017D
:1007A00005010906A101050719E029E71500250142
:1007B00095087501810295017508810105071900E9
:1007C00029FF150026FF0095067508810005081908
:1007D000012905950575019102950175039101C0E7
:1007E00011241FBECFEFDAE0DEBFCDBF04B603FE9B
:1007F00027C080917C0490917D04A0917E04B091EB
:100800007F048730904BA740B04BD1F410927C040A
:1008100010927D0410927E0410927F0414BE84B75F
:10082000877F84BF0FB6F894A89580916000886197
:1008300080936000109260000FBEE0E0F8E309953D
:1008400011E0A0E0B1E0E4ECF1E602C005900D9209
:10085000AA37B107D9F724E0AAE7B1E001C01D9299
:10086000AC37B207E1F70E9456270C94E0300C94A5
:10087000000081E00895CF92DF92EF92FF926B012A
:100880007C010E94E80590E090937B0180937A01BF
:1008900042E0C701B6010E94E621682F80E00E9475
:1008A0009D11C701B601FF90EF90DF90CF900895A2
:1008B00080917A0190917B01029729F40E94171987
:1008C000682F617001C060E082E00E949D110E946B
:1008D000171981FB662760F981E00E949D1181E074
:1008E000089584E291E09093D8028093D7020E9409
:1008F000851189E00C944A1181E008950C94390423
:1009000008950C9480041F93CF93DF9300D000D000
:100910001F92CDB7DEB749835A8330910203898194
:100920009A81311114C0662359F0222349F00E94A4
:100930000923182F682F89819A810E94AE2203C053
:100940000E94DD22182F69817A81812F04C00E94C4
:10095000092369817A810F900F900F900F900F906B
:10096000DF91CF911F910C944A06FC01262F408104
:1009700051816281738184810C948304CF93DF93CE
:10098000EC0160E00E94B504BE01DF91CF910C94B0
:100990008104FF920F931F93CF93DF93E82FF0E032
:1009A000E857FB4FF490C82FC695C695C695D0E082
:1009B000FE01E85EFA4F0491877010E0082E02C035
:1009C000159507950A94E2F701701127FE01E85F7B
:1009D000FA4FC491D0E002C0D595C7958A95E2F749
:1009E000C170DD270115110519F081EE0E944A1A28
:1009F000209719F086EE0E944A1A8F2D0E94311B13
:100A0000CD2B19F086EE0E94D21A012B41F081EE17
:100A1000DF91CF911F910F91FF900C94D21ADF912B
:100A2000CF911F910F91FF900895EF92FF920F9336
:100A30001F93CF93DF93EC01162F0AE08881882360
:100A400009F455C0813009F043C08981813041F4F7
:100A50007E0182E0E80EF11C8A810E94311B09C0F0
:100A6000823049F47E01E2E0EE0EF11C8A810E94A0
:100A70004A1AE7012FC0833041F47E01F2E0EF0E05
:100A8000F11C8A810E94D21AF4CF843011F0219691
:100A900021C02A81229680E090E030E02053310985
:100AA0002A30310558F4089FA001099F500D1124E8
:100AB000CA01820F931F21962881EFCF009751F032
:100AC000EFE9FFE03197F1F700C000000197F6CFA2
:100AD0000E94C9042196812F882309F4AFCFEFE942
:100AE000FFE03197F1F700C000008150F5CFDF91B2
:100AF000CF911F910F91FF90EF90089560E00C94BB
:100B000015050E9417260E943F24811102C00E94F1
:100B1000E6240C943D080E943A160C94400808956F
:100B20000E94A51D0E948F052FEF84E39CE02150B9
:100B300080409040E1F700C000000C9404260F9321
:100B40001F93CF93DF93EC0161E00E94B5048C0109
:100B5000BE010E947E048823A9F1BE01C8010E9443
:100B60009C16882379F1BE01C8010E943F14882396
:100B700049F1BE01C8010E949114882319F1BE01F8
:100B8000C8010E94BC158823E9F0BE01C8010E947B
:100B900039138823B9F08A81882369F001158CE51F
:100BA000180731F00F3D1C4531F40E94E6240AC0BD
:100BB0000E94900507C0CE01DF91CF911F910F9148
:100BC0000C947C0480E0DF91CF911F910F910895E8
:100BD000CF92DF92EF92FF926C01EE24FF24C114BA
:100BE000D104E104F10421F0C701B60120E101C004
:100BF00020E0C72ED82EE92EFF24C114D104E10431
:100C0000F10419F0285FC701B6016B017C0154E0C3
:100C1000F694E794D794C7945A95D1F7C114D104A8
:100C2000E104F10419F02C5FC701B6016B017C01EE
:100C300042E0F694E794D794C7944A95D1F7C1144B
:100C4000D104E104F10419F02E5FC701B601DC0103
:100C5000CB01B695A79597958795892B8A2B8B2BDA
:100C600009F02F5F822FFF90EF90DF90CF900895D3
:100C700008950C9438060C945804CF93C82F0E9402
:100C800039068C2F0E943B06CF91089580E090E0BA
:100C900008950895E72FF0E09AE0899FE00DF11D97
:100CA000112483E0EE0FFF1F8A95E1F7E60FF11D97
:100CB000EE0FFF1FE859FE4F859194910895880F1C
:100CC000991FFC01E85DFA4F859194910895CF93A7
:100CD000DF930E944A060E946507EC01811521E519
:100CE0009207A0F5811560E5960708F087C0C11549
:100CF00080E2D807F0F4C11591E0D90708F0E1C00F
:100D0000C03ED10588F4C03CD10508F063C0C130B5
:100D1000D10509F4D6C008F4D2C0CE010497813AB7
:100D2000910508F4CEC0CBC0C83ED10508F4C9C0B7
:100D3000C6C0C11520E4D20708F05DC0C11560E34C
:100D4000D60708F04EC0CE019F7047C0C11585E59B
:100D5000D807A0F4C11594E5D90708F096C0C115CD
:100D600023E5D20708F07BC0C11562E5D60708F07D
:100D700060C0DC2FCC27C16FD06AA3C0C11589E544
:100D8000D807A0F4C11598E5D90708F083C0C115AC
:100D900026E5D20708F093C08C2F0E94F9078F71C7
:100DA000C82FD0E0DC2FCC27D0628BC0C1156AE5FC
:100DB000D60708F474C0CE0190568115904208F011
:100DC0007EC08D2F8F710E94F907DD27D0628F7151
:100DD000D82B77C0CE01805C91090E945F06EC01A0
:100DE00070C0CE019927D3FF03C0EC01D86C69C055
:100DF000EC01D06C66C0DF70D06A63C0837021E004
:100E000030E002C0220F331F8A95E2F73C68CE0122
:100E100074E0969587957A95E1F78370382BCF70BB
:100E2000C695C69560E2C69FE0011124C22BD32B64
:100E300048C04C2F4695469580E2489FA00111245A
:100E4000C370DD2721E030E0C90102C0880F991F7F
:100E5000CA95E2F7EC01C42BD52BDC6832C04C2FCD
:100E60004695469580E2489FA0011124C370DD2776
:100E700021E030E0C90102C0880F991FCA95E2F74E
:100E8000EC01C42BD52BDA681CC0DC2FCC27C46F37
:100E9000D06A17C0DC2FCC27C06FD06A12C08C2F4D
:100EA0008F700E94F90794E0D695C7959A95E1F75F
:100EB000CF70D0E0DC2FCC27D069C82B02C0C0E0B7
:100EC000D0E0CE01DF91CF9108958238910569F18C
:100ED000B0F48133910509F46DC048F4893291056D
:100EE00009F463C08A32910509F469C00895853315
:100EF000910509F455C089339105B9F00895833EF1
:100F0000910569F138F4803E9105B1F0823E91057A
:100F100009F10895863E9105A9F1873E9105B9F141
:100F2000843E910509F064C023C020916D0420FD2A
:100F30004FC021FD4DC0089580916D0480FD44C0D7
:100F400080916E0480FF44C080916D0484FD42C096
:100F500083EE4DC080916D0482FF38C0F5CF809143
:100F60006D0482FD33C080916E0480FD31C0ECCFF2
:100F700080916E0481FF32C080916D0484FD2AC08F
:100F800087EE35C080916D0483FF26C0F5CF809138
:100F90006D0483FD21C080916E0481FD1FC0ECCFE4
:100FA00080916D0485FD1CC01DC080916D0485FD80
:100FB00019C016C080916D0486FD16C017C08091BF
:100FC0006D0486FD13C010C089E311C082EE0FC00E
:100FD00080EE0DC080E00BC086EE09C084EE07C035
:100FE00089E205C085E303C08AE201C081E390E0A5
:100FF000089590916D0492FF0DC0282F287128301C
:1010000019F4877F846006C0282F2471243011F4DE
:101010008B7F886093FF0DC0282F2871283119F429
:10102000877E846106C0282F2471243111F48B7EC1
:10103000886120916E0420FF0DC0382F3871383040
:1010400019F4877F816006C0382F3171313011F477
:101050008E7F886021FF0DC0282F2871283119F458
:10106000877E816106C0282F2171213111F48E7E87
:10107000886194FD877E089508950C943C08089536
:101080000C943F08E82FF0E0E856FC4F808108956B
:10109000089580EA8A95F1F70895F894E82FE2958B
:1010A000EF70F0E031A1282F2F7081E090E001C0B7
:1010B000880F2A95EAF7982F9095932391A392A1F0
:1010C000892B82A37894089508951F93CF93DF937B
:1010D0000E94AB098091040180910401811102C03A
:1010E00095E001C090E09093A30385E0891B809375
:1010F000A20384E90E944D0886E60E944D0887E914
:101100000E944D0886EC0E944D0884E30E944D0821
:10111000C8E3D1E01C2F185F89910E944D081C1371
:10112000FBCFA8E9B3E0EEE8F3E08AE08E0F11927E
:101130001D928E13FCCF85E00E9455090E94810507
:10114000DF91CF911F910C94C0090E948C098823D4
:1011500021F18091A20390E088569C4F0E94F009F3
:10116000811117C080917C018F5F80937C01863054
:1011700090F02091A20380E090E030E0FC01E20FCB
:10118000F31FE856FC4F1082019685309105B1F7A8
:1011900002C010927C010C948B058091A30390E017
:1011A00088569C4F0E940F0A0C9464089F92AF923D
:1011B000BF92CF92DF92EF92FF920F931F93CF9344
:1011C000DF938EE8C82E83E0D82EC0E4D1E0B12CA6
:1011D00001E010E0AC2E85E0A80E7E018881F89435
:1011E000E82FE295EF70F0E091A18F70A80101C0A7
:1011F000440F8A95EAF7892F842B81A382A1409519
:10120000482342A378940E944908E8E3F1E020E0F3
:1012100030E0912C4191A42FA295AF70B0E0909650
:101220008C9190E04F7002C0959587954A95E2F7B2
:1012300080FD07C0802F022E01C0880F0A94EAF7B4
:1012400001C080E0982A2F5F3F4F2830310511F709
:101250002196F70180810E944D08F6018081891551
:1012600019F0908281E001C080E0B82AFFEFCF1A28
:10127000DF0AAC12B2CF6091A30370E068567C4FD6
:101280002B2D45E08EE893E00E9456090E94A508A8
:101290008B2DDF91CF911F910F91FF90EF90DF90F9
:1012A000CF90BF90AF909F9008950895FF920F93B5
:1012B0001F93CF93DF938C01F62ED72FC42F2223B9
:1012C00049F081E080937F010E94C32590937E01C5
:1012D00080937D0180917F018823C1F080917D0101
:1012E00090917E010E94CF25069780F0EF2DFD2F73
:1012F000D8014C2F50E0CD01801B910B841795072E
:101300001CF48D918193F7CF10927F01DF91CF91E3
:101310001F910F91FF90089580918001811112C05B
:101320008091D80080618093D8008AE18A95F1F796
:1013300000C08091D90080FD02C082E001C081E040
:101340008093800181E090918001913009F080E0EC
:1013500008950C948C090E94A9098093040180913E
:101360000401882319F06DE180E002C063E28DE1A1
:101370000E94C40A0E948C0981110C94C709089527
:101380000E948C09811102C00C94CD09089562E07D
:1013900070E085E091E00C94A41762E070E085E0D5
:1013A00091E00C94AD170E94A010882361F088E8AA
:1013B00091E00E94A61081E090E00E948F18892B96
:1013C00011F40C94A310089580918701883039F4AA
:1013D00060E088E891E00E94101210928701089561
:1013E000CF93DF93D82FC92F0E94D30980E090E0DC
:1013F0000E948F18892B79F4ED2FFC2F80E090E06C
:10140000DC01AE57BE4F2C9121930196853091059A
:10141000B9F781E001C080E0DF91CF910895CF93CB
:10142000DF9300D0CDB7DEB789839A830E94E409A9
:101430008981E82F9A81F92F80E090E02191DC01E9
:10144000AE57BE4F2C93019685309105B9F70F909A
:101450000F90DF91CF910895CF92DF92EF92FF929C
:101460000F931F93CF93DF938B01982F11110BC014
:10147000442329F0E82FF0E0EE5BF94F9491692FB7
:10148000792F892F73C0212F30E0E82FF0E044231B
:1014900021F0EE5BF94FE491F0E046E0049FC001DB
:1014A0001124CFEFD0E0BE010E94A12CDB014BEA5A
:1014B0004603C001479F900D1124800F911D800F9E
:1014C000911D982F990F890FAE01421B530BE49F7A
:1014D0007001E59FF00CF49FF00C11244F2D819FBB
:1014E000B0011124672F77278E01061B170BB80157
:1014F000E69F8001E79F100DF69F100D1124712FBC
:101500006E01C81AD108C29EC001C39E900DD29E22
:10151000900D1124892F9927C81BD90BEC9F90019E
:10152000ED9F300DFC9F300D1124932FA230B1059B
:1015300069F02CF41097B9F0119751F012C0A43053
:10154000B10559F03CF0169761F40DC07F2D432F83
:101550009E2F0AC0912F7F2D02C0732F9F2D4E2FDB
:1015600003C09F2D412F7E2F692F842FDF91CF91B4
:101570001F910F91FF90EF90DF90CF90089541E081
:101580000E942C0A08950895E8E1F1E080836183C8
:1015900008950E94BF0A0895CF93DF93762FE90143
:1015A000682F842F0E94C90A798368838A83DF9118
:1015B000CF910895453608F044E60C94CC0A80910A
:1015C000A403282F269530E02115310519F48170E8
:1015D000826005C02B32310524F0817084658093D0
:1015E000A4038091A703853618F084E68093A703AF
:1015F000089588E090E00C944A30CF93DF9300D0B8
:1016000000D0CDB7DEB7AB01BC0149835A836B83F1
:101610007C830E94DF0A49815A816B817C8188E04A
:1016200090E00F900F900F900F90DF91CF910C945E
:101630006830E4EAF3E083E0808311828FEF8283F5
:1016400084E683831482A2EEB2E012968C91129704
:10165000836012968C9360817181828193810C9456
:10166000FD0A8091A40380FF02C08695089580E062
:1016700008959091A803933018F49F5F9093A80366
:10168000882351F06091A4037091A5038091A60373
:101690009091A7030C94FD0A089581E00C94390BF6
:1016A0009091A803992319F091509093A80388234F
:1016B00051F06091A4037091A5038091A6039091CD
:1016C000A7030C94FD0A089581E00C94500B21E0CF
:1016D00030E001C0220F8A95EAF78091E5022823C5
:1016E00081E009F480E0089570E00C94A8138F92D3
:1016F0009F92AF92BF92CF92DF92EF92FF920F93A1
:101700001F93CF93DF9300D000D01F92CDB7DEB7E9
:10171000909019018091A40380FF08C0E090D70247
:10172000F090D802E114F104A9F425C080911A01C7
:1017300090911B01891790F7E82FF0E09F01220F8D
:10174000331FE20FF31FE755FC4F11821082128204
:101750008F5FF0CF8091E00281110DC0812C882D28
:101760000E94670B882309F456C0F701C590D490F6
:10177000C114D10401F58091180123E0829FC001BA
:101780001124692D87559C4F0E94740B0F900F9068
:101790000F900F900F90DF91CF911F910F91FF90BD
:1017A000EF90DF90CF90BF90AF909F908F90089573
:1017B00095E0C90ED11C45E050E0B601CE0101967E
:1017C0000E947E2D09810F3F31F110E08A8198013E
:1017D000280F311D2134310514F020E430E0590187
:1017E000AA0CBB1C2A0D3B1DC90187559C4F5C01EF
:1017F000C801880F991F080F191F07551C4F0A159C
:101800001B05B0F698014D816C818B810E94DA0A2C
:101810000D5F1F4FF4CF22E0E20EF11C839488E0AD
:1018200088129DCFA8CF9091A40390FF16C09091ED
:101830001A0120911B01921770F4E92FF0E0DF01EB
:10184000AA0FBB1FEA0FFB1FE755FC4F8183608384
:1018500042839F5FF0CF0C94770B0895CF93DF9373
:1018600000D01F92CDB7DEB79091A40390FF0AC0BD
:101870009E012F5F3F4F0E94DA0A4B8169818A8166
:101880000E94130C0F900F900F90DF91CF9108954D
:10189000CF93DF93EC01EC81F0E0E35CFA4F4491ED
:1018A000E4EAF3E0628181810E942E0C8C818F5FDB
:1018B0008C83DF91CF910895CF93DF93EC01E4EA1D
:1018C000F3E0438162818C810E942E0C8C818F5FBA
:1018D0008C83DF91CF9108950F931F93CF93DF9364
:1018E00000D01F92CDB7DEB78C018091910181119C
:1018F0000AC09E012F5F3F4F44E66FEF0E94DA0A55
:101900008A8180939101F8018481813051F028F01F
:10191000823061F4409191010AC08091910140E0D0
:1019200007C06091910140E080E003C040E080E0AA
:1019300060E00E94130CF801248130E0C901019697
:1019400063E070E00E94B52C84830F900F900F909D
:10195000DF91CF911F910F910895AF92BF92CF92D7
:10196000DF92EF92FF920F931F93CF93DF9300D0FC
:101970001F92CDB7DEB7182FF62E042FE22E9091CE
:10198000A40390FF7FC0E92FE695AE2FB0E0A65BE1
:10199000BE4F8C918093E2029E7F923061F49E0153
:1019A0002F5F3F4F812F0E94DA0A4B8169818A8124
:1019B0000E94130C44C0823019F40091A7033FC069
:1019C000863019F41091A5033AC08930D9F38931D2
:1019D000B1F5E9518E2F8170D82EE695F0E0E35CE9
:1019E000F94FA590B490C12CBB2460911C01C61680
:1019F00020F5EC2DF0E0EA9DC001EB9D900DFA9DE5
:101A0000900D112470E00E94A12C812FD11002C0F2
:101A1000860F01C0861B90911A01E90FF11D9F01ED
:101A2000220F331FE20FF31F9F0127553C4F402F1A
:101A30006F2D0E94DA0AC394D8CF0E94770B809151
:101A4000A503811308C08091A6038F1104C0809163
:101A5000A703801729F08091E40282608093E4025A
:101A60001093A503F092A6030093A703EE2051F074
:101A70006091A4037091A5038091A6039091A703A0
:101A80000E94FD0A0F900F900F90DF91CF911F9150
:101A90000F91FF90EF90DF90CF90BF90AF9008959F
:101AA000E4EAF3E09181282F4381628188E0890F85
:101AB0000C94AD0C81E00C94500DE4EAF3E09181BC
:101AC000282F4381628188EF890F0C94AD0C81E04F
:101AD0000C945D0DE4EAF3E0628128E0620F08F403
:101AE0006FEF282F438181810C94AD0C81E00C9421
:101AF0006A0DE4EAF3E0628128E0621B08F460E02A
:101B0000282F438181810C94AD0C81E00C94790DD8
:101B1000E4EAF3E0438128E0420F08F44FEF282F76
:101B2000628181810C94AD0C81E00C94880DE4EA13
:101B3000F3E0438128E0421B08F440E0282F628153
:101B400081810C94AD0C81E00C94970D20E00C94F5
:101B5000AD0CFF920F931F93CF93DF93EC01F12C09
:101B60000FEF10E060911C01F616E8F420911A01C5
:101B700030E02F0D311DC901880F991F280F391F23
:101B800027553C4F70E0C8010E94B52C962F8C81E0
:101B90004091A7036091A603F99E800D11240E9435
:101BA000DA0AF394DFCF0E94770B9A818C8190FF41
:101BB00002C08F5F01C081508C83DF91CF911F9154
:101BC0000F91FF9008958F929F92AF92BF92CF9204
:101BD000DF92EF92FF920F931F93CF93DF931F92A9
:101BE000CDB7DEB74C01FC01828180FF02C09FEFC0
:101BF00001C091E0F401848181110DC0913031F474
:101C000080911C0181508093930102C01092930136
:101C100081E0F4018483B12C80911C01B81608F096
:101C200043C0CB2CD12C80911A018601080F111DC5
:101C30009801220F331F020F131F07551C4FF80185
:101C400011821082128254E0E52EF12CA12C4091D9
:101C500093014A0D413414F04F7305C047FF03C090
:101C600080911C01480F042E000C550BC416D5069C
:101C7000A1F48091A7038E9DA0018F9D500D11248A
:101C8000559547955595479598016091A603809184
:101C9000A50399830E94DA0A9981A90EF1E0EF1A4F
:101CA000F108A9F6B394B8CF99830E94770B2091DD
:101CB00093019981913081F4211108C080911C0118
:101CC000815080939301F401148212C0215020931B
:101CD0009301F40194830CC030E0C9010196609136
:101CE0001C0170E00E94B52C80939301F401848361
:101CF0000F90DF91CF911F910F91FF90EF90DF90A8
:101D0000CF90BF90AF909F908F9008951F93CF93E7
:101D1000DF93EC018C81811109C081E08C831092EA
:101D2000920192E0909317018093160180911A011D
:101D300090911B01891770F4E82FF0E09F01220FAA
:101D4000331FE20FF31FE755FC4F118210821282FE
:101D50008F5FF0CF10E060911C011617B8F5E12FEE
:101D6000F0E070E0CF010E94B52C40911A01480FBD
:101D700080919201082E000C990B50E0E817F907AA
:101D8000C4F020911701022E000C330B2E173F07D1
:101D900084F09A01220F331F240F351F27553C4F23
:101DA0004091A7036091A6038091A5030E94DA0ADF
:101DB0000BC0FA01EE0FFF1F4E0F5F1FFA01E75530
:101DC000FC4F1182108212821F5FC5CF0E94770BD9
:101DD0008091160120919201280F209392019091F9
:101DE0001701980F9093170119165CF4022E000C3E
:101DF000330B40911C0150E0415051092417350725
:101E000034F0819580931601813009F41C82DF91B2
:101E1000CF911F9108958F929F92AF92BF92CF92D0
:101E2000DF92EF92FF920F931F93CF93DF93EC011A
:101E30004C81042F10E09801D8010E94F92C9B01DD
:101E4000AC010E940F2D6B017C01E0E2F0E0E01B91
:101E5000F10BA5E5B0E09B01AC010E940F2D4B01F9
:101E60005C019F01DF010E94F12C9B01AC010E94EB
:101E70001A2D9B01AC012C0D3D1D4E1D5F1DC50192
:101E8000B4010E94C92C822F022F2A3228F493E039
:101E9000299F900111240DC025E530E0281B310950
:101EA000C901880F991F280F391F37FF02C02F5F04
:101EB0003F4F35952795122F1095F12C85E5E82E8B
:101EC000E01A80911C01F816C0F4F1FC02C08E2DBE
:101ED00001C0802F20911A0130E02F0D311DA90182
:101EE000440F551F240F351F27553C4F412F60913C
:101EF000A6030E94DA0AF394E4CF0E94770B8C8148
:101F0000811102C091E003C0803219F49FEF9093D9
:101F1000150190911501890F8C83DF91CF911F914D
:101F20000F91FF90EF90DF90CF90BF90AF909F9078
:101F30008F9008950F931F93CF93DF93EC0100E0F0
:101F400010E080911C01282F30E00217130724F5C0
:101F500090911A019801290F311DA901440F551FB5
:101F6000240F351F27553C4F869590E04C8108176C
:101F700019071CF4442331F002C0411103C0409101
:101F8000A70301C040E06091A6038091A5030E94D1
:101F9000DA0A0F5F1F4FD5CF0E94770B2C8130E0FC
:101FA0002F5F3F4F217033272C83DF91CF911F91FB
:101FB0000F9108957F928F929F92AF92BF92CF928E
:101FC000DF92EF92FF920F931F93CF93DF93FC0169
:101FD000BB24B3948281833008F4B12C948081E0D7
:101FE000848300E015E05BE4A52E88248394EE242E
:101FF000EA94F12C7BE4C72ED12CECE47E2E809168
:102000001C01081708F08DC0C02FD0E01C9FF00104
:102010001D9FF00D1124E956FE4F911003C013824D
:10202000128265C08381882389F12FEF280F2383D3
:102030003481332321F0972D981B892F01C0822FE3
:102040009091A7031C9FF0011D9FF00D1124E956EC
:10205000FE4F899FC0011124B6010E94A12C62830A
:10206000211104C0332311F01482A382B1103FC0A8
:102070001C9FF0011D9FF00D1124E956FE4F809129
:10208000A50380838091A603818331C00E946E2DB9
:102090008230914064F5BB2031F00E946E2DB70173
:1020A0000E94B52C02C08091A5031C9FF0011D9FCA
:1020B000F00D1124E956FE4F8083BB2059F00E9499
:1020C0006E2D2091A6032695622F70E00E94B52CFC
:1020D000820F02C08091A6031C9FF0011D9FF00D8E
:1020E0001124E956FE4F81831282A382848280915B
:1020F0001A019E01280F311DC901880F991F280F51
:10210000391F27553C4F1C9FF0011D9FF00D1124D6
:10211000E956FE4F4281618180810E94DA0A0F5F99
:102120006ECFDF91CF911F910F91FF90EF90DF90D5
:10213000CF90BF90AF909F908F907F900C94770B33
:102140008091E40208951092E402089525E0E4EA03
:10215000F3E0DC0101900D922A95E1F74091E20253
:102160005091E3026091E4027091E502FC01458325
:102170005683678370870895E2EEF2E011828281D0
:102180008460828308956091A403669570E04BE0BB
:1021900050E08DE191E00E94872D892B19F481E0B8
:1021A0008093E3020E94C3259093DA028093D902C0
:1021B0008091E40284608093E4020895E2EEF2E00C
:1021C000118282818460828308959091A40390FF9C
:1021D0003AC09170811102C0926006C08B3210F03B
:1021E000946502C0880F982B9093A4038091E40219
:1021F00081608093E402662351F06091A4037091A2
:10220000A5038091A6039091A7030E94FD0A609107
:10221000A403669570E04BE050E08DE191E00E94F0
:10222000872D892B19F00E94DE1002C00E94C31076
:1022300081E08093DC024091A7036091A603809126
:10224000A5030C94A60D0895682F9091A40396956C
:1022500081E0890F8B3208F081E00C94E51081E079
:102260000C942411682F9091A40396958FEF890FF9
:1022700009F48AE20C94E51081E00C94321161E0DB
:102280000C94E510E4EAF3E0808181608083869518
:102290000C943F1160E00C94E5108091E1028111F3
:1022A00033C00E943F24811104C00E94E6240E9492
:1022B000190B0E94F90A6093A4037093A5038093FD
:1022C000A6039093A7038091E40283608093E402C5
:1022D0006E7F61F40E94190B0E94F90A6093A403B7
:1022E0007093A5038093A6039093A7030E94DF0A2F
:1022F0000E94BC108091A40380FF03C086950E94B9
:102300004A1181E08093E1020895E4EAF3E08081DC
:102310008160808386950C944A111092E00280912E
:10232000DF02882319F00E94851105C08091E50223
:1023300081110E94770B0C94C31021E030E0A901B9
:1023400002C0440F551F8A95E2F7CA012091E502A9
:10235000662311F0822B02C0809582238093E502D0
:102360008091E40280618093E4028091E302811114
:1023700005C08091A40386950E944A118091A40310
:1023800080FF0C94770B0895E4EAF3E080818E7F60
:10239000808360817181828193810E94FD0A0E9405
:1023A000DE10E2EEF2E08281816082832FEF80E72F
:1023B00092E0215080409040E1F700C000000C9472
:1023C000770B8091A40380FD0C94C4110C944211EE
:1023D000E4EAF3E080818E7F80830E94DE10E2EEEB
:1023E000F2E08281816082832FEF80E792E02150CA
:1023F00080409040E1F700C000000C94770B0E94F1
:10240000DE108091E00281110AC081E08093E00239
:102410008091A40381708093DF020C94E8110895E9
:102420001F93CF93DF93EC01162F8F8184FF03C09E
:1024300098859093E50280FF10C0888180FF0BC0D3
:102440008091A40381608093A4038881612F869585
:102450000E94E51002C00E94E8118F8181FF06C032
:10246000212F4B816A8189810E94AD0C8F8182FF6F
:1024700008C08E81882319F00E94C31002C00E94F8
:10248000DE108F8183FF03C081E08093DC02DF9147
:10249000CF911F910895EF92FF920F931F93CF93C7
:1024A000DF938091E302882309F4C1C08091E202A6
:1024B000E091A403E695E81BE093DB02823049F447
:1024C000F0E0E75CFA4FE491CE2FD0E008E41CE0A6
:1024D00059C0863049F4F0E0EA5CFA4FE491CE2F1F
:1024E000D0E00CE51CE04EC0893051F4E695F0E0F8
:1024F000ED5CFA4FE491CE2FD0E009EA1DE042C036
:102500008F3051F4E695F0E0E05DFA4FE491CE2F84
:10251000D0E003EE1DE036C0853149F4F0E0E35D24
:10252000FA4FE491CE2FD0E006E81EE02BC08831B0
:10253000D9F0833239F4EBE2F5E0C591D4910CE6A1
:102540001CE020C08432A9F08532C1F48E2F63E0F4
:102550000E94952CE92FF0E0E85DFA4FE491CE2F30
:10256000D0E00AED1FE00EC0C8E2D0E00BE01FE0B3
:1025700009C0C4EFD1E00AE91FE004C0C0EDD7E014
:1025800003EC1AE08091DC02882389F01092DC02CF
:102590000E94C3259E0120953095820F931F909332
:1025A000DA028093D9021092DE021092DD0280914D
:1025B000D9029091DA020E94CF258C179D07B8F1BD
:1025C000809196018823B1F0109296018091940138
:1025D000909195010E94CF258033954758F00E9435
:1025E000C32590939501809394018091E4028860C3
:1025F0008093E402E090DD02F090DE02E091D902E7
:10260000F091DA02CE0FDF1FD093DA02C093D90225
:1026100089ED92E0F80109958091DD029091DE024A
:10262000892B29F4EF2819F081E080939601DF913E
:10263000CF911F910F91FF90EF900895882311F093
:10264000FA0101C0FB010994CF93DF93C82FD62F65
:102650000E94310B8C1740F00E94310B8D1720F433
:10266000DF91CF910C942F118C2FDF91CF910C948F
:102670003F111F93CF93DF93FB011281111163C0B0
:10268000EC010E9489238272FE01E35CFC45E43187
:10269000F10508F057C0EA5AFF4F0C94EB2C0E944A
:1026A000E11151C04CE351E16FE271E104C04FE22E
:1026B00051E16CE371E10E941E1345C047E65DE005
:1026C0006AE57DE0F8CF4AE55DE067E67DE0F3CFBF
:1026D00045E85DE066E77DE0EECF46E75DE065E872
:1026E0007DE0E9CF43EA5DE064E97DE0E4CF44E9E1
:1026F0005DE063EA7DE0DFCF44E65BE06DE47BE034
:10270000DACF4DE45BE064E67BE0D5CF81E017C033
:1027100065E082E010C068E086E00DC06EE089E010
:102720000AC064E18FE007C067E185E104C088E189
:1027300006C062E289E10E94241305C083E20E9480
:102740003F1101C011E0812FDF91CF911F910895BA
:10275000539A2BB1277F3BB138604FB7F894FC01F7
:10276000CB01880F991F680F791F6E0F7F1FE61727
:10277000F70789F0819198E03BB9000000C087FF1E
:102780002BB9880F000000C000C000C02BB900C0EA
:102790009A9591F7ECCF4FBF8FE594E00197F1F751
:1027A00000C0000008950F931F93CF93DF93C42FB1
:1027B000D22FFC0182818823C9F04093E8020E9455
:1027C000C3259093E7028093E60280E28C0F883065
:1027D00008F050C0C77081E001C0880FCA95EAF7C1
:1027E000DF91CF911F910F910C94441B1091E8023F
:1027F000141330C08091E6029091E7020E94CF2529
:10280000883C910538F5C0E2CD0F1D17B9F080E284
:10281000810F883040F4177081E001C0880F1A954D
:10282000EAF70E944B1BC83048F481E09D2F977057
:1028300001C0880F9A95EAF70E94441B802F0E94DE
:10284000311BC830B8F4D77081E001C0880FDA9529
:10285000EAF70AC080E28C0F883060F4C77081E02C
:1028600001C0880FCA95EAF7DF91CF911F910F91B0
:102870000C944B1BDF91CF911F910F9108950F93F3
:102880009C01CB01243F4CE5340731F188F4293D0C
:10289000FCE53F07D9F02A3D4CE5340779F1283DA6
:1028A0003C45A9F506E221EE41EE68ED7CE52BC042
:1028B000263FFCE53F07E1F0A8F0273F3C4539F50E
:1028C00007E225EE46EE67EF7CE51DC007E225EE48
:1028D00045EE69ED7CE517C006E221EE40EE64EFBF
:1028E0007CE511C007E225EE44EE65EF7CE50BC008
:1028F00006E221EE42EE66EF7CE505C008E221E04B
:1029000045EE6AED7CE50E94D31380E008C0FC012F
:102910008281882319F01092E80201C081E00F91B2
:102920000895CF93DF93EC01FB018281882309F4A2
:102930001FC1C230FCE5DF0708F41BC1C6319CE5AE
:10294000D90738F09E012B5F3C452930310508F04E
:1029500010C10E94522490936E0480936D04C03184
:10296000ECE5DE0709F4C3C008F041C0C8308CE5CF
:10297000D80709F49AC0F0F4C430ECE5DE0709F496
:1029800087C068F4C2308CE5D80709F477C0C3303B
:10299000DC4509F0E3C080916D04826076C0C630EA
:1029A000ECE5DE0709F46EC008F07BC080916D0491
:1029B00088606BC0CC308CE5D80709F485C068F41A
:1029C000CA30ECE5DE0709F474C008F079C00E9453
:1029D000A51D80916D04806858C0CE308CE5D80765
:1029E00009F476C008F07FC080916D048BC0CC3FA5
:1029F000ECE5DE0709F44FC018F5C3318CE5D807C4
:102A000009F47DC078F4C131ECE5DE0709F473C048
:102A1000C231DC4509F0A2C00E94A51D80916D0461
:102A20008F7733C0C5318CE5D80709F472C008F43C
:102A300086C0CB3FDC4509F091C080916E043EC05A
:102A4000C115FDE5DF0709F45FC058F4CE3F9CE5F2
:102A5000D90709F444C008F43FC080916E04826035
:102A60002DC0C230FDE5DF0709F475C008F45DC074
:102A7000C330DD4509F072C080E06EC080916D0406
:102A8000816003C080916D04806180936D0466C095
:102A900080916D0411C080916E04826080936E04F9
:102AA0005DC080916D048062F0CF80916D04806480
:102AB000ECCF80916D0488608460E7CF8160EECFB9
:102AC00080916D048E7FE1CF80916D048D7FDDCF8D
:102AD00080916D04877FD9CF80916E0418C080915A
:102AE0006E048D7FDBCF80916D048F7ECECF809181
:102AF0006D048F7DCACF80916D048F7BC6CF80918E
:102B00006D04877F8B7FC1CF80916E048D7F8E7F18
:102B1000C5CF80916D0482FB222720F991E0922796
:102B200090FB82F990FB83F9B0CF80916E04982FCF
:102B3000909591708E7F892B90FB81F9AFCF0E9489
:102B4000A51D80916D0487FB222720F991E0922733
:102B500090FB87F99ACF81E00E94E82480916D0470
:102B600090916E040E9463240E94A51D80E001C024
:102B700081E0DF91CF910895CF93DF9386319C451B
:102B800041F5EB010E948923282F8A8140912B0176
:102B900050912C01882379F02A7A91E009F490E091
:102BA0009093E902911102C069E201C065E3CA0194
:102BB0000E942E250AC08091E902811102C069E2BB
:102BC00001C065E3CA010E9430250E94D52380E040
:102BD00001C081E0DF91CF9108950F931F93CF93B0
:102BE000DF938C01EB019091280192FF2BC0892F7C
:102BF0008B7F809328018091EC029091ED029B01E4
:102C0000281B390B8091290190912A012817390737
:102C100040F48091EA020E944A1A809128018D7F37
:102C20000AC082E00E949C238091EA020E944A1A14
:102C3000809128018260809328018091EA020E949D
:102C4000D21A0AC0802F0E94D21A8091EA02909173
:102C5000EB020817190719F482E00E94A2230E94D0
:102C6000D523D093ED02C093EC02DF91CF911F9159
:102C70000F9108958091280182FF17C00E94C325FB
:102C80002091EC023091ED02AC01421B530B2091DC
:102C9000290130912A014217530738F0BC01809175
:102CA000EA029091EB020C94ED15089580912801B1
:102CB000982F909590FB80F98093280182E00C94E6
:102CC000A223809128018E7F8093280182E00C94BA
:102CD000A2230F931F93CF93DF93CDB7DEB728972F
:102CE0000FB6F894DEBF0FBECDBF80912A018F933F
:102CF000809129018F9385E791E09F938F931F9295
:102D000088E08F938E010F5F1F4F1F930F930E94D8
:102D1000942DC8010E947E050FB6F894DEBF0FBE49
:102D2000CDBF28960FB6F894DEBF0FBECDBFDF91A2
:102D3000CF911F910F910895CF92DF92EF92FF9262
:102D40001F93CF93DF93EC016B010E94C3257C019D
:102D5000F6011281112309F472C08091280182FFCB
:102D600005C0B70180E090E00E94ED1582E00E946E
:102D7000A223C931FCE5DF0771F170F4C731ECE53E
:102D8000DE07F9F0C831FCE5DF0741F58091290144
:102D900090912A0105971AC0CB318CE5D80759F0DC
:102DA00038F0CC31FCE5DF07C9F40E94611663C03E
:102DB0000E94561660C0809128018160809328018E
:102DC0005AC08091290190912A01059690932A0179
:102DD0008093290150C00E9469164DC0CB32D105A5
:102DE00089F030F4CE010497849708F044C00AC0FB
:102DF000CD32D10508F43FC0C933D10518F0C4362F
:102E0000D105C9F5F60112811123E1F08091280165
:102E100080FF31C00E9489238D7F69F5D093EB023A
:102E2000C093EA02F092ED02E092EC028091280158
:102E300084608093280182E00E94202407C0CB3266
:102E4000D10531F4B701CE010E94ED1510E013C099
:102E5000CC32D10530F4CE010497849798F311E079
:102E60000AC0CD32D105D8F3C933D10558F3C436E1
:102E7000D10541F3F4CF812FDF91CF911F91FF90C6
:102E8000EF90DF90CF9008958EE14A9B02C0815071
:102E9000E1F74A9BFECF08955A9880E28A95F1F7B0
:102EA0005A9A0895FC014AE04A95F1F730E090E023
:102EB00080E021E0961779F040E14A95F1F7880F1C
:102EC0004A9B02C08160322700C0000040E14A9561
:102ED000F1F79F5FEFCF90E19A95F1F729B100C02C
:102EE000000040E14A95F1F722FB992790F99327DA
:102EF0002081920F90830895EF92FF920F931F937A
:102F0000CF93DF931F92CDB7DEB7F62E1982E82E4E
:102F10008C01802F8E198F1558F40E94441768E099
:102F2000CE0101960E945217F80181938F01F1CFD3
:102F300081E09981911180E00F90DF91CF911F91F5
:102F40000F91FF90EF9008959093F0028093EF021D
:102F50006093EE02529A5A9A08959093F0028093E9
:102F6000EF026093EE0252985A9AEA9AE9E6F0E08C
:102F700080818F7C80830895615091E001C0990F1A
:102F80006A95EAF720E031E0992361F0492F482360
:102F900019F05A9A232701C05A9840E24A95F1F74E
:102FA0009695F2CF222311F05A9A01C05A9880E2E6
:102FB0008A95F1F75A980895EF92FF920F931F9315
:102FC000CF93DF931F92CDB7DEB7162F082F7C016A
:102FD0008E2D801B811758F4F70181917F01898321
:102FE0000E944C1768E089810E94BC17F1CF0F90B6
:102FF000DF91CF911F910F91FF90EF9008951F9255
:103000000F920FB60F9211240F931F932F933F939C
:103010004F935F936F937F938F939F93AF93BF93E0
:10302000EF93FF93CF93DF931F92CDB7DEB7198253
:103030000E94441767E0CE0101960E945217382F74
:10304000369536953695932F96959570232F257046
:10305000920F292F2370969596958770920F89135A
:1030600048C08981811145C08091EE02831708F420
:1030700040C080E18A95F1F75A9A529AA2E0AA9547
:10308000F1F700C00091EF021091F002B8E03B9F11
:10309000000D111D11245A98F8016581662321F055
:1030A000868197810E94DC170E944C17F0E1FA9507
:1030B000F1F75A9852985A9A80E18A95F1F7D80117
:1030C00012966C911297662369F013968D919C91DC
:1030D00014970E947C17D801ED91FC91811105C0D5
:1030E00082E004C0D801ED91FC9188E080830E94C9
:1030F00044170F90DF91CF91FF91EF91BF91AF9166
:103100009F918F917F916F915F914F913F912F91FF
:103110001F910F910F900FBE0F901F9018950F9356
:103120001F93CF93DF932091EE0230E028173907E9
:103130000CF471C09C0193E0220F331F9A95E1F7C4
:10314000C091EF02D091F002C20FD31FF894529AAF
:103150005A9845E04A95F1F70000982F969595709A
:103160008570890F982F937086958695890F8901B0
:10317000082B0E944C1784E08A95F1F700C067E0A5
:10318000802F0E94BC1740E14A95F1F752985A9A55
:103190004A9902C000C0FCCF87E090E04A9B0EC075
:1031A000019751F4529A5A9AE881F98181E080831B
:1031B000789481E090E031C000C0F0CF6D8166234B
:1031C00081F08E819F810E947C1781110AC0529AE2
:1031D0005A9AE881F98182E08083789482E090E0D5
:1031E0001CC00E94441780E28A95F1F75A98529ABF
:1031F00040E14A95F1F76A81662321F08B819C8139
:103200000E94DC170E944C17E881F98110827894A3
:1032100080E090E002C084E090E0DF91CF911F91C8
:103220000F9108959093F6028093F5020895E0912E
:10323000F502F091F602309721F00190F081E02D37
:10324000099480E00895E091F502F091F60230973C
:1032500021F00280F381E02D099408952091F3027A
:103260003091F4028217930771F09093F4028093E7
:10327000F302E091F502F091F602309721F006801A
:10328000F781E02D099408952091F1023091F20226
:103290008217930771F09093F2028093F102E0910C
:1032A000F502F091F602309721F00084F185E02DCF
:1032B0000994089585B7806885BF85B7806885BF04
:1032C0000895089508950C9462190C9471040E9455
:1032D0005A190E9461190C9463190C948C09089571
:1032E00008950E94BA250E9465080E942B260E941C
:1032F0004D110C946519BF92CF92DF92EF92FF921D
:103300000F931F93CF93DF93CDB7DEB72B970FB6F5
:10331000F894DEBF0FBECDBF0E946F190E947019D6
:103320000E94D6080E946D19811111C08FEF898308
:103330008A831B820E94C3258160782F9D838C83A2
:1033400049815A816B818D810E94161A42C088EF93
:10335000C82E82E0D82E00E010E0B02E802F0E9410
:103360004208F601E1906F01E82631F40F5F1F4F2C
:103370000A30110591F7DACF9091820391FF04C0D2
:103380008B870E9448088B8590E0FF24F3942F2DB3
:103390002E21D1F09E83BF828F2191E009F490E02D
:1033A00098870E94C3258160782F9A8789874E81EC
:1033B0005F8168858A850E94161AF801E850FD4FE2
:1033C0008081F826F08205C09F5FFF0C9830F9F6E7
:1033D000CDCF0E944B121091F7020E9417191817B7
:1033E000A9F00E9417198093F7022B960FB6F89454
:1033F000DEBF0FBECDBFDF91CF911F910F91FF9028
:10340000EF90DF90CF90BF900C943D062B960FB6B7
:10341000F894DEBF0FBECDBFDF91CF911F910F910A
:10342000FF90EF90DF90CF90BF900895CF93DF9300
:10343000CDB7DEB72B970FB6F894DEBF0FBECDBF6A
:103440004F83588769877A878B87DE01119686E0DC
:10345000FD0111928A95E9F785E0FE01379601900A
:103460000D928A95E1F749815A816B817C818D812A
:103470009E810E946A202B960FB6F894DEBF0FBE85
:10348000CDBFDF91CF910895FC01808191810E9491
:103490004A230895CF93882309F482C0C82F823825
:1034A000C1F40E94171981FD7BC069E380912B0153
:1034B00090912C010E942E250E94D5232FEF81EEA2
:1034C00094E0215080409040E1F700C0000069E3A3
:1034D00019C08338F1F40E94171980FD61C063E5BB
:1034E00080912B0190912C010E942E250E94D523C2
:1034F0002FEF81EE94E0215080409040E1F700C032
:10350000000063E580912B0190912C010E943025F1
:1035100044C08438C1F40E94171982FD41C067E499
:1035200080912B0190912C010E942E250E94D52381
:103530002FEF81EE94E0215080409040E1F700C0F1
:10354000000067E4DFCF8CEF8C0F813AD0F46C2F52
:1035500080912B0190912C010E94F924882349F03D
:103560006C2F80912B0190912C010E9430250E949C
:10357000D5236C2F80912B0190912C010E942E2538
:103580000CC080E28C0F883058F4C77081E001C015
:10359000880FCA95EAF70E948C23CF910C94D5230B
:1035A000CF910895882309F45BC0682F823879F49D
:1035B0000E94171981FF54C069E380912B019091FB
:1035C0002C010E942E250E94D52369E310C0833868
:1035D000B1F40E94171980FF43C063E580912B016D
:1035E00090912C010E942E250E94D52363E58091A5
:1035F0002B0190912C010E9430250C94D523843806
:1036000079F40E94171982FF2BC067E480912B0187
:1036100090912C010E942E250E94D52367E4E7CFCC
:103620008CEF860F813A18F380E2860F883048F4D9
:10363000677081E001C0880F6A95EAF70E949223C3
:10364000DCCF8BE5860F833020F480E090E00C9493
:103650002E19685A673120F480E090E00C944419E8
:103660000895CF93C82F0E944A1AC93349F42FEF07
:1036700087EE93E0215080409040E1F700C00000C9
:103680008C2FCF910C94D21A882321F00E948C2386
:103690000C94D5230895882321F00E9492230C9442
:1036A000D5230895BF92CF92DF92EF92FF920F93AE
:1036B0001F93CF93DF937C01062FC72FFC01D58189
:1036C000D295DF70128111110E94A9230E948223DA
:1036D000882399F0112389F08C2F807F803421F08A
:1036E00080E2800F883048F082E00E9420240E940F
:1036F000822391E0B82EB92601C0B12CCC2EC29401
:103700008FE0C822D12CF601E659FF4F0C94EB2C28
:103710008C2F807FCF70882311F0C295C07F11233A
:1037200099F0CC2309F46CC180E2800F883010F04E
:10373000011104C08C2F0E948C2303C08C2F0E9487
:103740009C230E94D5235CC1802F0E94D21ACC23D7
:1037500009F47BC180E2800F883010F0011104C0B1
:103760008C2F0E94922303C08C2F0E94A2230E94C0
:10377000D5236BC18C2F807FCF70803211F0C29522
:10378000C07F002319F00130C9F022C0112371F06D
:10379000DD2341F0D13031F40E94BC238C2B0E94F8
:1037A000C22353C10E94BC238C2B1DC0DD2319F002
:1037B000D13009F44AC10E94CB2325C0112321F046
:1037C000D63008F042C10EC0D53008F03EC11BC053
:1037D000112361F0DD2331F0F701858180FF10C1F5
:1037E0008F7085838C2F0E94441B2FC1DD2359F0DD
:1037F000093309F016C1FFEF27EE83E0F1502040B6
:103800008040E1F70CC18C2F0E944B1B1EC18C2FF6
:10381000837009F049C011111FC1402F4295469590
:103820004770440F440F602F6F70862F90E0A0E028
:10383000B0E0042E04C0880F991FAA1FBB1F0A9472
:10384000D2F704FF10C00FE010E020E030E004C029
:10385000000F111F221F331F4A95D2F700951095B4
:103860002095309503C000E010E09801C695C695FC
:10387000C370D0E0BC01CD01602B712B822B932B48
:10388000C230D10559F0C330D10559F0219719F054
:103890000E94AF21E1C00E949D21DEC00E94C12193
:1038A000DBC00E949B21D8C0112319F08C2F81709E
:1038B00001C08695882309F4CFC0402F42954695D4
:1038C0004770440F440F602F6F70862F90E0A0E088
:1038D000B0E0042E04C0880F991FAA1FBB1F0A94D2
:1038E000D2F704FF10C00FE010E020E030E004C089
:1038F000000F111F221F331F4A95D2F70095109514
:103900002095309503C000E010E09801C695C6955B
:10391000C370D0E0BC01CD01602B712B822B932BA7
:10392000C230D10559F0C330D10559F0219719F0B3
:103930000E94892291C00E9477228EC00E949B2201
:103940008BC00E94D52188C0CF70112339F08C2FF5
:103950000E941022802F0E94441B7EC0802F0E9454
:103960004B1B8C2F0E94312277C0023F01F128F4BB
:10397000003F41F0013FA1F03FC0033FF9F0043F99
:1039800039F13AC0112341F0D53008F05EC08C2FD8
:103990008F710E94562259C0D63008F056C0F7CF1A
:1039A000112339F08C2F8F710E9410224EC01123E9
:1039B000C9F38C2F8F710E94312247C0112329F047
:1039C0008C2F8F710E94FB2140C00E94E1213DC0DD
:1039D000112349F0CF718C2F0E94102263E08C2FAD
:1039E0000E940B2432C081E00E942024D23068F172
:1039F00082E00E94202429C0112331F0DD2391F2BE
:103A0000802F0E944A1A21C0DD2399F2093349F41C
:103A10009FEFE7EEF3E09150E040F040E1F700C0A7
:103A20000000802F0E94D21A10C04C2F4F70602FC0
:103A3000C7010E9446060E940E2112C04C2F4F70F3
:103A4000602FC7010E9449060BC028E0C21AD108A6
:103A500084E0C816D10420F40E9417190E943D0684
:103A6000BB20D1F00E947E2380FD16C0F701128298
:103A70000E9478230E941022C7010E946E1D0E949E
:103A80007823DF91CF911F910F91FF90EF90DF90FE
:103A9000CF90BF900C943122DF91CF911F910F9165
:103AA000FF90EF90DF90CF90BF9008950F931F93FA
:103AB000CF93DF93EC01688179818A810E9455233D
:103AC0008C010E94AD220E949A21B801CE010E9471
:103AD000521BDF91CF911F910F910895CF93DF93E8
:103AE000EC01888199812B813C81232BE9F09F3F58
:103AF00011F48F3FC9F0CE010E949F0581110CC0C7
:103B00000E948223882381F08A81882369F082E0E1
:103B1000DF91CF910C942024CE010E94561DCE013E
:103B2000DF91CF910C94BE04DF91CF9108950E9454
:103B3000A9230E94B9230C94D52380912B01909145
:103B40002C010E9432250C94971D0E9499230C94FD
:103B50009D1DE92FE295EF70F0E03297EE30F10510
:103B6000B0F4E658FF4F0C94EB2C803F91F018F422
:103B7000883E68F40EC0843F51F40BC0883E48F084
:103B8000813F29F406C093FB882780F9089580E0DF
:103B9000089581E008950E944A230E94A91D089576
:103BA000CF93DF9300D000D01F92CDB7DEB70F9038
:103BB0000F900F900F900F90DF91CF910895CF93BA
:103BC000DF9300D000D000D0CDB7DEB726960FB679
:103BD000F894DEBF0FBECDBFDF91CF9108951F9344
:103BE000CF93DF93C091030316E080910403C817BD
:103BF00099F0D0E01C9FF0011D9FF00D1124EB5FA8
:103C0000FC4F4081518162817381848195810E9442
:103C1000DF1D2196C770E9CFDF91CF911F910895E5
:103C2000409135035091360360913703709138030A
:103C30008091390390913A030C94DF1D2091030386
:103C40009091040356E02917A9F030E0529FF0014B
:103C5000539FF00D1124EB5FFC4F7181671306C079
:103C60007081871303C07281471306C02F5F3F4FD7
:103C70002770E9CF80E0089581E00895CF93DF9326
:103C800080913A0382958F7009F051C0809137037B
:103C9000882309F44CC080910303C0910403409130
:103CA0003503509136036091380370913903D6E0A3
:103CB0008C17E9F190E061157105B1F15F3F11F4E6
:103CC0004F3F91F1D89FF001D99FF00D1124DF01F2
:103CD000AB5FBC4F11962C911197521325C02C91BC
:103CE000421322C012962C91129721111DC01396D7
:103CF0002D913C911497261B370B283C3105A0F4DD
:103D000080913A038F70806180933A03E65FFC4FA5
:103D100080818F708061808385E393E00E946E1DB7
:103D2000DF91CF910C94EF1D01968770C1CFDF9189
:103D3000CF9108958F929F92AF92BF92DF92EF92B0
:103D4000FF920F931F93CF93DF93CDB7DEB76297A8
:103D50000FB6F894DEBF0FBECDBF8C0185E0F80131
:103D6000DE011D9601900D928A95E1F7D801EC9045
:103D700011965C9111971296DC90129713968D9084
:103D80009C901497909135032091360360913803ED
:103D9000709139036115710509F46CC12F3F19F455
:103DA0009F3F09F467C185E3A82E83E0B82EF09009
:103DB0003703F401E61BF70BFF2009F404C18091DF
:103DC0003A03382F307FE83CF10508F0C0C03111CC
:103DD00079C0251313C09E1111C0D1100FC08F7070
:103DE000806180933A030E94101EC5010E946E1DDF
:103DF00080913A03D80115968C9321C0892809F443
:103E000057C05F3F21F4BFEFEB1609F451C0D1104A
:103E100018C040E0652F8E2D5A8B0E941E1E5A89B5
:103E2000882379F085E393E00E946E1DE5E3F3E0DB
:103E300086E0DF011D928A95E9F70E94101EF12CA1
:103E400036C15F3F19F4BFEFEB1691F1D11030C0CE
:103E500040E0652F8E2D5A8B0E941E1EB82E5A8967
:103E6000811126C0ED865E878D859E850E944A233E
:103E7000292F22952F7030E02230310524F0243094
:103E8000310534F00FC09F7049F0811107C00EC09A
:103E90009F7021F0F8019581907F41F090E2980F9A
:103EA000983020F0C8010E946E1DBF2CFB2CFFC073
:103EB000FD2CDD2009F4FBC080913A0381608093E2
:103EC0003A03BDCF251306C09E1104C0D11002C015
:103ED000D8019AC0ED865E878D859E850E94CB1D98
:103EE000882379F1DD2069F120913A03822F8295B0
:103EF0008F7090E0029774F08091350390913603B3
:103F000098878F8319869B868A862C87CE01079691
:103F10000E946E1D86E0F801A5E3B3E001900D92CA
:103F20008A95E1F70E943E1E0E94101E0DC02517C3
:103F300011F1ED865E878D859E850E94CB1D8111D6
:103F40002AC0C8010E946E1DFF24F394B0C0311135
:103F5000EECF782D998A888A4E2D6D2D89890E9401
:103F6000D01D85E393E00E946E1D86E0F50111925D
:103F70008A95E9F762CF9E11DCCFD110DACFD80154
:103F800015968C93C8010E946E1D86E0F501119272
:103F90008A95E9F78CC0DD20A1F220913A03822FA7
:103FA00082958F7090E002970CF4B4CF8091350326
:103FB000909136039A8389831B829D828C822E8303
:103FC000CE010196A5CFE83CF10508F045C0FD2CD7
:103FD000DD2009F4B6CF25132EC09E112CC02091F0
:103FE0003A0320FD1FC0822F82958F70D9F0D8012F
:103FF00015962C9315978F3049F08F5F982F9295D7
:10400000907F822F8F70892B15968C93C8010E9408
:104010006E1D86E0F801A5E3B3E001900D928A954C
:10402000E1F743C086E0F801A5E3B3E001900D920B
:104030008A95E1F73CC0ED865E878D859E850E945E
:10404000CB1D811167CF80913A03816080933A0341
:10405000C8010E946E1D2BC0782D998A888A4E2D2A
:104060006D2D89890E94D01D86E0F50111928A95F7
:10407000E9F71BC0DD2009F464CFED865E878D85EE
:104080009E850E94CB1DF82E882309F45ACF86E026
:10409000F801A5E3B3E001900D928A95E1F785E37D
:1040A00093E00E94441A0E943E1E0E94101E8F2D13
:1040B00062960FB6F894DEBF0FBECDBFDF91CF91F1
:1040C0001F910F91FF90EF90DF90BF90AF909F9066
:1040D0008F9008951F93CF93DF93CDB7DEB72C97C2
:1040E0000FB6F894DEBF0FBECDBF4F8358876987E8
:1040F0007A878B879C87CE0107960E949A1E882319
:1041000069F08F8198852A853B85232BF1F19F3FAC
:1041100009F063C08F3F09F060C037C086E0FE0140
:104120003796DE01119601900D928A95E1F76F8125
:104130007885EA85FB85309741F17F3F11F46F3F29
:1041400021F12091040330E0C9010196877099277D
:104150004091030350E08417950709F447C0698331
:104160007A83FD83EC8396E0929FD001939FB00DFC
:104170001124AB5FBC4FFE01319601900D929A95D0
:10418000E1F7809304030E94EF1D16E08091030382
:10419000909104038917C1F1189FC00111248B5F0E
:1041A0009C4F0E949A1E882379F1E09103031E9F81
:1041B000F0011124EB5FFC4F4081518162817381DA
:1041C000848195810E94DF1D8091030390E0019618
:1041D0008770992780930303D9CF4F8158856985CC
:1041E0007A858B859C850E94DF1DCFCF0E94A51DFF
:1041F0001092040310920303E5E3F3E086E0DF018D
:104200001D928A95E9F7C1CF2C960FB6F894DEBFC0
:104210000FBECDBFDF91CF911F910895EF92FF9216
:104220000F931F93CF93DF938C01892B09F46CC0FC
:10423000F12CEE24E394E8012196F801849184376F
:1042400040F4843008F051C0813081F0823019F19F
:104250005BC0853709F444C0A8F19CE7980F9037FC
:1042600008F052C08F770E94D21A41C00E5F1F4FD4
:10427000FE01C49180E28C0F883048F4C7708E2D07
:1042800001C0880FCA95EAF70E94AC2314C08C2F96
:104290000E944A1A2DC00E5F1F4FFE01C49180E29A
:1042A0008C0F883058F4C7708E2D01C0880FCA95C6
:1042B000EAF70E94B2230E94D5231AC08C2F0E94D5
:1042C000D21A16C00E5F1F4FFE01C491CC2381F09D
:1042D0008FE99FE00197F1F700C00000C150F6CFD1
:1042E0000E5F1F4FFE01F49003C00E944A1A8E0118
:1042F0008F2D882309F49FCFEFE9FFE03197F1F785
:1043000000C000008150F5CFDF91CF911F910F9138
:10431000FF90EF90089508950C948B210E948C21BA
:10432000609371037093720380937303909374038B
:104330000C94971D08950C948E210F931F93009158
:104340007103109172032091730330917403602BF9
:10435000712B822B932B1F910F910C948E210F9315
:104360001F93009171031091720320917303309198
:10437000740360237123822393231F910F910C9464
:104380008E210F931F93009171031091720320915E
:1043900073033091740360277127822793271F913D
:1043A0000F910C948E210C943B040E94D3216093B6
:1043B0006D0370936E0380936F03909370030C945E
:1043C000971D60E070E0CB010C94D521611571055B
:1043D0008105910529F481E0442361F080E008958E
:1043E000DC01CB0104C0B695A795979587954A95B2
:1043F000D2F7817008950F931F9341E050E060E081
:1044000070E08A019B0104C0000F111F221F331F9F
:104410008A95D2F7C901B8011F910F910C94D5214B
:104420000F931F9341E050E060E070E004C0440F40
:10443000551F661F771F8A95D2F780916D03909163
:104440006E03A0916F03B09170038A019B01082B4A
:10445000192B2A2B3B2BC901B8011F910F910C94EA
:10446000D5210F931F9341E050E060E070E004C05D
:10447000440F551F661F771F8A95D2F740955095B8
:104480006095709580916D0390916E03A0916F037C
:10449000B09170038A019B01082319232A233B232F
:1044A000C901B8011F910F910C94D5210F931F934F
:1044B00041E050E060E070E004C0440F551F661F0B
:1044C000771F8A95D2F780916D0390916E03A0912A
:1044D0006F03B09170038A019B01082719272A27CF
:1044E0003B27C901B8011F910F910C94D5210F935F
:1044F0001F9300916D0310916E0320916F03309113
:104500007003602B712B822B932B1F910F910C94B6
:10451000D5210F931F9300916D0310916E0320918D
:104520006F033091700360237123822393231F91C3
:104530000F910C94D5210F931F9300916D0310914F
:104540006E0320916F0330917003602771278227DB
:1045500093271F910F910C94D521089528E0929FE5
:10456000800D1124A82FA695A695A695877051E0D9
:1045700001C0550F8A95EAF785E0A89FD001112464
:1045800020E030E070E0F901EA0FFB1FE55CFC4F32
:104590004081CB01022E02C0969587950A94E2F7DE
:1045A00081709927819584278523842780832F5FB5
:1045B0003F4F2530310539F7089528E0929F800D4F
:1045C0001124682F669566956695982F977085E0FB
:1045D000689FB001112440E050E080E0FA01E60F4E
:1045E000F71FE55CFC4F208130E0092E02C03695B4
:1045F00027950A94E2F721703327042E01C0220F79
:104600000A94EAF7822B4F5F5F4F4530510531F72F
:104610000895BF92CF92DF92EF92FF920F931F9374
:10462000CF93DF938C01C0907103D0907203E09020
:104630007303F090740380916D0390916E03A091C9
:104640006F03B0917003C82AD92AEA2AFB2ACFE166
:10465000D0E0D701C6010C2E04C0B695A79597955A
:1046600087950A94D2F780FF07C0BC2EB8018C2F23
:104670000E946706019719F4219758F7B12C8B2DEA
:10468000DF91CF911F910F91FF90EF90DF90CF902E
:10469000BF900895CF93DF93EC010E940923BE01E0
:1046A0000E946706DF91CF9108951F93CF93DF9308
:1046B000EB0190910203992321F0CB010E944A2340
:1046C00013C0882349F0CB010E940923182F682FBB
:1046D000CE010E94AE2204C0CB010E94DD22182F21
:1046E000BE01812F0E946706DF91CF911F9108952F
:1046F00080917503859585958595089580917503BD
:104700008770089590917503977081E009F480E0B7
:10471000089580918103089590918103892B80935E
:10472000810308958095909181038923809381036B
:10473000089510928103089590918003892B8093AE
:10474000800308958095909180038923809380034E
:10475000089510928003089590917F03892B809390
:104760007F030895809590917F03892380937F0331
:10477000089510927F030895809176030895089517
:104780000C94BF2390917603981721F080937603C1
:104790000C94C023089580917603882329F0109209
:1047A000760380E00C94C0230895E0912B01F091F2
:1047B0002C01809181038083E0912B01F0912C01E9
:1047C000908180918003892B8083E0912B01F0916F
:1047D0002C01908180917F03892B808380917603C7
:1047E000882381F0E0912B01F0912C019081892B9D
:1047F000808380912B0190912C010E94ED248111E6
:104800000E94CB2380912B0190912C010C942319B1
:1048100008950C94082498E0899F90011124262B78
:10482000209375030E9410228091750385958595CC
:1048300085950C9409241092750380E00C9409244A
:10484000209175038095822380937503982F97702C
:1048500079F430E0482F082E000C550B241735074B
:1048600039F08595859585950E9431220C941B24FD
:1048700008956FEF7FEF80E090E00C94743080E05B
:1048800090E00E94503021E08C3E9E4F09F020E0E5
:10489000822F089582E090E00C94423083E090E013
:1048A0000C944230CF9384E090E00E944230C82FB5
:1048B00081E290E00E9442302C2F30E0A901582B79
:1048C000CA01CF910895CF93C92F682F84E090E05B
:1048D0000E9456306C2F81E290E0CF910C945630BC
:1048E000AB01BC018FE090E00C946830AB01BC01DF
:1048F00083E190E00C94683060E070E0CB010C94B0
:10490000762460E070E0CB010E9470240C947C243B
:104910006CEE7EEF80E090E00E94743060E082E018
:1049200090E00E94563060E083E090E00E945630B4
:104930001092710310927203109273031092740319
:1049400060E084E090E00E94563060E081E290E018
:104950000E94563060E085E090E00E94563060E0B2
:1049600086E090E00E9456306FEF87E090E00E9472
:10497000563040E050E0BA0188E090E00E94683094
:1049800060E08DE090E00E94563040E050E0BA01D7
:1049900088E190E00E94683060E087E190E00E944A
:1049A000563040E050E0BA018CE190E00E9468305F
:1049B00060E080E290E00E94563040E050E0BA01B2
:1049C00088E190E00E9468300C9481240C94882443
:1049D000682F8EE090E00C945630FC01329697E000
:1049E00080E0915029F021912223D9F38F5FF9CFF4
:1049F0000895662349F0FC01329608962191261706
:104A000029F0E817F907D1F780E0089581E00895CB
:104A10009C01FC0132969FEF80E04191461789F09E
:104A20009F3F19F4411101C0982F8F5F8630A9F77D
:104A30009F3F39F0F901E90FF11D97FDFA95628367
:104A400008950895FC01329608962081261301C02E
:104A500010823196E817F907C1F708950C940825DC
:104A60000C942225029626E0FC0111922A95E9F782
:104A7000089508950C9439250E943A258091730475
:104A8000843059F11092830320E488E190E00FB65E
:104A9000F894A895809360000FBE2093600080E09A
:104AA0000E943D060E94FF110E943A2583B7817F34
:104AB000846083BF83B7816083BF7894889583B710
:104AC0008E7F83BF0FB6F894A895809160008861AF
:104AD00080936000109260000FBE089508950895BD
:104AE000CF930E946E250E94D6080E946F25C0E0D9
:104AF0008C2F0E944208811104C0CF5FCA30C1F7D9
:104B000001C081E0CF91089508950C9484250E94FE
:104B1000A51D0E9417190E943D060E948D110C943C
:104B200085251F920F920FB60F9211248F939F939A
:104B3000AF93BF9380918303811113C08091690467
:104B400090916A04A0916B04B0916C044196A11DF0
:104B5000B11D8093690490936A04A0936B04B09391
:104B60006C04BF91AF919F918F910F900FBE0F90EA
:104B70001F90189582E084BD93E095BD9AEF97BD94
:104B800080936E0008952FB7F894809169049091F6
:104B90006A04A0916B04B0916C042FBF08959C012E
:104BA0004FB7F8948091690490916A04A0916B04C6
:104BB000B0916C044FBF821B930B089578941F92A1
:104BC0000F920FB60F9211248F939F93AF93BF93C1
:104BD0008091690490916A04A0916B04B0916C0477
:104BE0000196A11DB11D8093690490936A04A0935E
:104BF0006B04B0936C04BF91AF919F918F910F9014
:104C00000FBE0F901F90189587E797E790930108C4
:104C1000809300089AE088E10FB6F894A8958093F5
:104C200060000FBE90936000FFCF0C9439240E9467
:104C3000D6088FE39CE90197F1F700C000000E94BD
:104C4000D60880E00E94420880FF04C00E9415261A
:104C50000C94042608950E943F24811102C00E94F2
:104C6000E6240E944A24809382030E945224909357
:104C70006E0480936D040E944E24682F70E080E0E3
:104C800090E00E949B2160916D0370916E03809172
:104C90006F03909170030C94D32180918C0308953D
:104CA000089508950895CF93DF9321E02093E900BC
:104CB0002FEF3091E800215035FD06C035ED3A95D3
:104CC000F1F700002111F5CF2091E80025FF14C075
:104CD000EC0140E050E068E070E00E94F92780912C
:104CE000E8008E778093E80088E0FE01A4E8B3E056
:104CF00001900D928A95E1F7DF91CF91089580910F
:104D00007204811109C00E948E290E94EB298091B2
:104D1000E20084608093E200089510927204089586
:104D2000089508950C94872542E061EC81E00C948D
:104D3000082980917504833009F460C030F4813013
:104D400071F0823009F499C008958A3009F485C061
:104D50008B3009F46BC0893009F0A7C020C0809166
:104D60007404813A09F0A1C08091E800877F8093A4
:104D7000E8008091780490917904892B21F468E00F
:104D800084E893E003C060E080E090E070E00E947F
:104D900044288091E8008B778093E8000895809103
:104DA0007404813209F081C0809178049091790473
:104DB000892B09F07AC08091E800877F8093E80012
:104DC0008091E80082FD05C0809173048111F8CFC5
:104DD0006CC02091F3008091F20090E0922B02973A
:104DE00029F48091F1008B7F813021F48091F100D2
:104DF00080938C038091E8008B7753C0809174047A
:104E0000813A09F052C08091780490917904892BFD
:104E100009F04BC08091E800877F8093E800809183
:104E2000E80080FFFCCF8091370136C08091740488
:104E30008132D9F58091780490917904892BA9F574
:104E40008091E800877F8093E8000E943D2980914F
:104E50007604809337010C94A51D809174048132EF
:104E600021F58091E800877F8093E8000E943D292A
:104E70008091770480938D03089580917404813A22
:104E8000A1F48091E800877F8093E8008091E8009A
:104E900080FFFCCF80918D038093F1008091E8002A
:104EA0008E778093E8000C943D29089584B7877F1E
:104EB00084BF0FB6F894A8958091600088618093B4
:104EC0006000109260000FBE90E080E80FB6F8948A
:104ED00080936100909361000FBE0E9467190E9449
:104EE0008E290E94EB298091E20084608093E20089
:104EF00078940E947A2C0E9471198DE291E00E94B0
:104F0000121980917304853069F40E943C258091C8
:104F100071048823B1F30E947025882391F30E94C5
:104F2000E327EFCF0E947B190E946F190E9470192E
:104F3000E8CF0C949B27292F332723303105C1F06C
:104F40005CF42130310579F022303105A1F582E29F
:104F500090E02CE637E033C021323105F1F0223207
:104F6000310511F128C082E190E02EE837E027C03A
:104F700099278130910541F08230910541F0892BCC
:104F8000D1F4E8E6F7E005C0E6E5F7E002C0E2E4C8
:104F9000F7E0849190E09F0112C0672B61F489E0F3
:104FA00090E02EE737E00BC0672B29F480E490E017
:104FB00020EA37E004C080E090E020E030E0FA0131
:104FC00031832083089580E189BD82E189BD09B4E0
:104FD00000FEFDCF8091D8008F7D8093D800809116
:104FE000E00082608093E0008091E00081FDFCCFD2
:104FF0000895CF92DF92EF92FF920F931F93CF937A
:10500000DF93EC018B016A010E945C29811133C09E
:10501000C114D10439F0F60180819181081B190B6C
:10502000C80FD91FE12CF12C0115110519F1809140
:10503000E80085FD16C08091E8008E778093E80037
:10504000C114D10449F0F60180819181E80EF91E66
:10505000F182E08285E00FC00E945C29882321F361
:105060000AC089918093F10001501109FFEFEF1AF6
:10507000FF0ADACF80E0DF91CF911F910F91FF906F
:10508000EF90DF90CF90089520917A0430917B04C7
:105090002617370748F06115710539F42091E800AB
:1050A0002E772093E80001C0B90140E06115710539
:1050B000A9F120917304222309F443C0253009F497
:1050C00042C02091E80023FD40C02091E80022FD6D
:1050D00032C02091E80020FFE9CF4091F3002091F9
:1050E000F20030E0342BFC01CF016115710559F05D
:1050F0002830310540F481918093F10061507109AD
:105100002F5F3F4FF1CF41E02830310509F040E0FB
:105110002091E8002E772093E800C8CF4111C9CF35
:105120000AC080917304882361F0853061F080911A
:10513000E80083FD0AC08091E80082FFF2CF80E0A2
:10514000089582E0089583E0089581E00895209114
:105150007A0430917B042617370748F061157105F2
:1051600039F42091E8002E772093E80001C0B901BE
:10517000FC0120E06115710591F180917304882391
:1051800009F440C0853009F43FC08091E80083FDF8
:105190003DC08091E80082FD2FC08091E80080FF33
:1051A000E9CF2091F3008091F20090E0922B6115FD
:1051B000710559F08830910540F424912093F10055
:1051C0003196615071090196F2CF21E0089709F0FC
:1051D00020E08091E8008E778093E800CBCF21110A
:1051E000CCCF0AC080917304882361F0853061F0D0
:1051F0008091E80083FD0AC08091E80082FFF2CF31
:1052000080E0089582E0089583E0089581E00895A4
:10521000982F973058F59093E900981739F07091CE
:10522000EC002091ED005091F00003C0242F762F68
:1052300050E021FF19C03091EB003E7F3093EB002E
:105240003091ED003D7F3093ED003091EB00316007
:105250003093EB007093EC002093ED005093F0003E
:105260002091EE0027FF07C09F5FD3CF8F70809300
:10527000E90081E0089580E008958091740487FF3B
:1052800011C08091E80082FD05C0809173048111F6
:10529000F8CF11C08091E8008B770BC08091730428
:1052A000882349F08091E80080FFF8CF8091E800E2
:1052B0008E778093E80008952091E4003091E50016
:1052C00095E64091EC00842F817040FF22C08091D0
:1052D000E80080FD1CC080917304882391F0853024
:1052E00091F08091EB0085FD10C04091E400509159
:1052F000E5004217530729F39A01915011F784E012
:10530000089582E0089583E0089581E0089580E0A3
:1053100008954091E80042FFDECF08950E94FC29E5
:105320000E94042AE0EEF0E0808181608083E8ED55
:10533000F0E080818F77808319BCA7EDB0E08C917D
:105340008E7F8C9380818F7E80831092720408956B
:105350000F931F93CF93DF930E94FC290E94042A8E
:10536000C8EDD0E088818F778883888180688883C2
:1053700088818F7D888319BC1092730410926F040A
:10538000109271041092700400EE10E0F801808118
:105390008B7F808388818160888342E060E080E049
:1053A0000E940829E1EEF0E080818E7F8083E2EEAA
:1053B000F0E0808181608083808188608083F80153
:1053C00080818E7F8083888180618883DF91CF9107
:1053D0001F910F910895E8EDF0E080818F7E80832A
:1053E000E7EDF0E080818160808384E082BF81E02E
:1053F000809372040C94A829E8EDF0E080818E7F00
:1054000080831092E20008951092DA001092E10079
:1054100008951F920F920FB60F9211242F933F936E
:105420004F935F936F937F938F939F93AF93BF93AC
:10543000EF93FF938091E10082FF0BC08091E20027
:1054400082FF07C08091E1008B7F8093E1000E9482
:10545000792C8091DA0080FF1FC08091D80080FFF6
:105460001BC08091DA008E7F8093DA008091D90092
:1054700080FF0DC080E189BD82E189BD09B400FED5
:10548000FDCF81E0809373040E947F2605C019BC84
:10549000109273040E948D268091E10080FF19C054
:1054A0008091E20080FF15C08091E2008E7F8093A2
:1054B000E2008091E20080618093E2008091D80058
:1054C00080628093D80019BC85E0809373040E94A9
:1054D00091268091E10084FF30C08091E20084FF3A
:1054E0002CC080E189BD82E189BD09B400FEFDCFF9
:1054F0008091D8008F7D8093D8008091E1008F7ECD
:105500008093E1008091E2008F7E8093E2008091A1
:10551000E20081608093E20080916F04882311F0A3
:1055200084E007C08091E30087FD02C081E001C0F4
:1055300083E0809373040E9492268091E10083FFB0
:1055400029C08091E20083FF25C08091E100877F20
:105550008093E10082E08093730410926F04809145
:10556000E1008E7F8093E1008091E2008E7F809346
:10557000E2008091E20080618093E20042E060E01E
:1055800080E00E9408298091F00088608093F000FC
:105590000E949026FF91EF91BF91AF919F918F91C3
:1055A0007F916F915F914F913F912F910F900FBE1F
:1055B0000F901F9018951F920F920FB60F92112403
:1055C0002F933F934F935F936F937F938F939F930B
:1055D000AF93BF93CF93DF93EF93FF93C091E90015
:1055E000CF708091EC00D82FD17080FDD0E8109260
:1055F000E9008091F000877F8093F00078940E940A
:105600001F2B1092E9008091F00088608093F000D9
:10561000CD2BCF70C093E900FF91EF91DF91CF9137
:10562000BF91AF919F918F917F916F915F914F91BA
:105630003F912F910F900FBE0F901F9018951F93C1
:10564000CF93DF93CDB7DEB7AA970FB6F894DEBF3E
:105650000FBECDBFE4E7F4E088E08E0F9091F1003B
:1056600091938E13FBCF0E9499268091E80083FFCF
:1056700028C18091740490917504492F50E04A30FC
:10568000510508F01EC1FA01E857FF4F0C94EB2CAE
:10569000803821F0823809F014C108C0809170046C
:1056A00090917104992389F082600FC080917804F1
:1056B0008F70873008F005C18093E9008091EB007E
:1056C00085FB882780F91092E9009091E800977F88
:1056D0009093E8008093F1001092F100D0C0282F41
:1056E0002D7F09F0EEC0882319F0823061F0E9C007
:1056F00080917604813009F0E4C0933009F080E0B5
:10570000809371042EC08091760481112AC080910B
:1057100078048F702FEF280F263008F0D2C08093C6
:10572000E9002091EB0020FF1CC0933021F4809110
:10573000EB00806214C09091EB0090619093EB00BD
:1057400021E030E0A90102C0440F551F8A95E2F71D
:105750004093EA001092EA008091EB008860809309
:10576000EB001092E9008091E800877F8093E800C9
:105770000E943D29A6C08111A4C0109176041F7714
:105780008091E3008078812B8093E3008091E80092
:10579000877F8093E8000E943D298091E80080FF88
:1057A000FCCF8091E30080688093E300111102C078
:1057B00082E001C083E08093730483C0805882300C
:1057C00008F07FC080917604909177048C3D53E07F
:1057D000950779F583E08A838AE289834FB7F89445
:1057E000DE01139620E03EE051E2E32FF0E050931B
:1057F0005700E49120FF03C0E295EF703F5FEF7028
:105800008E2F90E0EA3010F0C79601C0C0968D93BD
:105810009D932F5F243149F74FBF8091E800877F28
:105820008093E8006AE270E0CE0101960E9444286D
:1058300015C06091780470917904AE014F5F5F4F9D
:105840000E949927BC01892BE1F19091E800977F94
:105850009093E80089819A810E94A7288091E800AE
:105860008B778093E8002DC0803859F58091E8004F
:10587000877F8093E80080916F048093F10080918E
:10588000E8008E7773CF81111CC09091760492301E
:10589000C0F48091E800877F8093E80090936F04C4
:1058A0000E943D2980916F04811106C08091E30020
:1058B00087FD02C081E001C084E0809373040E94F0
:1058C00094268091E80083FF0AC08091E800877FDA
:1058D0008093E8008091EB0080628093EB00AA96B1
:1058E0000FB6F894DEBF0FBECDBFDF91CF911F91F1
:1058F00008950895CF93809173048823A1F0C091F7
:10590000E900CF709091EC00892F817090FD80E8C4
:10591000C82B1092E9008091E80083FD0E941F2BA4
:10592000CF70C093E900CF910895991B79E004C02E
:10593000991F961708F0961B881F7A95C9F78095CE
:105940000895AA1BBB1B51E107C0AA1FBB1FA617C6
:10595000B70710F0A61BB70B881F991F5A95A9F718
:1059600080959095BC01CD01089597FB072E16F404
:10597000009407D077FD09D00E94A12C07FC05D028
:105980003EF4909581959F4F0895709561957F4F56
:105990000895A1E21A2EAA1BBB1BFD010DC0AA1F70
:1059A000BB1FEE1FFF1FA217B307E407F50720F088
:1059B000A21BB30BE40BF50B661F771F881F991F03
:1059C0001A9469F760957095809590959B01AC014C
:1059D000BD01CF010895EE0FFF1F0590F491E02D5A
:1059E00009940E94F92C332312F48A1B9B0B0C940C
:1059F0000A2DA29FB001B39FC001A39F700D811D0E
:105A00001124911DB29F700D811D1124911D0895C7
:105A10000E94F92CB7FF0895821B930B08950E94F2
:105A2000F92CA59F900DB49F900DA49F800D911D02
:105A300011240895B7FF0C940F2D0E940F2D821B87
:105A4000930B08958F929F92AF92BF92CF92DF9265
:105A5000EF92FF92CF93DF93EC01688179818A8185
:105A60009B81611571058105910521F464E279ED51
:105A70008BE597E02DE133EF41E050E00E948A3062
:105A800049015A019B01AC01A7EAB1E40E940F2D24
:105A90006B017C01ACEEB4EFA50194010E941D2DB9
:105AA000DC01CB018C0D9D1DAE1DBF1DB7FF03C0DA
:105AB0000197A109B04888839983AA83BB839F7704
:105AC000DF91CF91FF90EF90DF90CF90BF90AF909C
:105AD0009F908F9008950E94222D089580E091E07C
