:100000000C94B2030C94F9030C94F9030C940F199B
:100010000C94F9030C94F9030C94F9030C94F90370
:100020000C94F9030C94F9030C94A02B0C94722CEF
:100030000C945B260C94F9030C94F9030C94F903CB
:100040000C94F9030C94F9030C94F9030C94F90340
:100050000C94F9030C94B4260C94F9030C94F90352
:100060000C94F9030C94F9030C94F9030C94F90320
:100070000C94F9030C94F9030C94F9030C94F90310
:100080000C94F9030C94F9030C94F9030C94F90300
:100090000C94F9030C94F9030C94F9030C94F903F0
:1000A0000C94F9030C94F9030C94F9032E123112F9
:1000B00036123D12421247124C12511256125B1266
:1000C0006012651267126A126D1270127312761244
:1000D00078127D12D813DB13FB1316141E142A1486
:1000E0002D14301433147D148014361439143E1436
:1000F0004C145A145D1461146F149B1C9B1CCD1C72
:10010000CD1C381E381E381E381E1A1DB71DC81DBE
:10011000C81D281E381E381E311EC81EC81EDA1EF5
:10012000DA1ED11EDA1EDA1EDA1EC81EC81ED61E40
:10013000DA1EDA1ED61EDF2C062DF82D062DF82D20
:10014000522D752DF82DCB2DDA2D29001E001F0004
:10015000200021002200000000002B0014001A00E3
:1001600008001500170000000000E0000400160061
:10017000070009000A0000000000E1001D001B004C
:100180000600190005004C000000000000000000FF
:1001900050414F642C00E0000000000023002400C8
:1001A0002500260027002D00350000001C00180047
:1001B0000C00120013002F00310000000B000D0096
:1001C0000E000F00330034002800E300110010007F
:1001D0003600370038002E00E50028002A00514282
:1001E00052430000000030002A000100000000001F
:1001F00000000000000000000000010000000000FE
:1002000000000000000000000000010000000000ED
:1002100000000000000000000000010000000000DD
:1002200000000000000001000000000000000000CD
:100230000100010001000100000000005300000067
:100240000000260227020100010000005F0060009C
:1002500061002D002E000100010000005C005D0027
:100260005E002E02250236000100620059005A008D
:100270005B003700380001000100010001000100AF
:100280000100000000000100010001003A003B00F5
:100290003C003D003E0000000000010000000000A6
:1002A000000000000000000000000100000000004D
:1002B000000000000000000000000100000000003D
:1002C000000000000000000000000000000000002E
:1002D0000100010001000100000000003F0040009B
:1002E00041004200430044004900000000004E006D
:1002F00052004B0000000000010000000000500010
:1003000051004F00000000000100000000004A0002
:1003100051004D00000045000100010001000100F6
:1003200001000000000000004600005CC35CC45CEB
:10033000C55C000000000000000000000000CB5C75
:10034000CA5C000000000000000000000000C95C62
:10035000C85C000000000000000000000000C75C56
:10036000C65C00000000000000000000000000006B
:100370000100010001000100000000000000000079
:10038000000000000000000000000000000000006D
:10039000000000000000000000000000000000005D
:1003A000000000000000000000000000000000004D
:1003B000000000000000000000000100010001003A
:1003C000010000000000000000000000000000002C
:1003D00000002A2B280000000000000000000000A0
:1003E000000000000029000000002C1E3420212203
:1003F00024342627252E362D3738271E1F2021226C
:10040000232425263333362E37381F0405060708E4
:10041000090A0B0C0D0E0F101112131415161718D4
:10042000191A1B1C1D2F3130232D35040506070812
:10043000090A0B0C0D0E0F101112131415161718B4
:10044000191A1B1C1D2F3130354C00000000000014
:1004500000000000000000000000000000007E0F0F
:1004600000D4FFFFFFC70000007832190A00047FA4
:100470003F1F643214643214783C1E1E140A052295
:1004800023252628292A2C2D2F3032333536383A89
:100490003B3D3E4042434547494A4C4E50515355DF
:1004A00057595A5C5E6062646668696B6D6F717300
:1004B0007577797B7D7F81838587898A8C8E909201
:1004C0009496989A9C9E9FA1A3A5A7A8AAACAEAF0C
:1004D000B1B3B4B6B8B9BBBCBEBFC1C2C3C5C6C751
:1004E000C9CACBCCCDCED0D1D2D2D3D4D5D6D7D702
:1004F000D8D9D9DADADBDBDBDCDCDCDCDCDDDDDD4A
:10050000DDDCDCDCDCDCDBDBDBDADAD9D9D8D7D745
:10051000D6D5D4D3D2D2D1D0CECDCCCBCAC9C7C6F2
:10052000C5C3C2C1BFBEBCBBB9B8B6B4B3B1AFAE30
:10053000ACAAA8A7A5A3A19F9E9C9A9896949290D6
:100540008E8C8A89878583817F7D7B7977757371AE
:100550006F6D6B6968666462605E5C5A595755538B
:1005600051504E4C4A4947454342403E3D3B3A3844
:1005700036353332302F2D2C2A292826252322FFE9
:10058000AA7F5540000101010101010101010202A0
:100590000202020202020203030303030303030431
:1005A00004040404040405050505050606060606FC
:1005B000070707070708080808090909090A0A0AB6
:1005C0000B0B0B0C0C0C0D0D0D0E0E0E0F0F0F1058
:1005D00010111111121213131414151516161717E2
:1005E000181819191A1A1B1B1C1D1D1E1E1F20204E
:1005F000212222232424252626272829292A2B2C98
:100600002D2D2E2F30313232333435363738393ABA
:100610003B3C3D3E3F404142434445464748494AB2
:100620004C4D4E4F50515354555658595A5B5D5E80
:100630005F616264656668696B6C6D6F707273751B
:1006400077787A7B7D7E8082838587888A8C8E8F7F
:1006500091939596989A9C9EA0A2A3A5A7A9ABADAD
:10066000AFB1B3B5B7BABCBEC0C2C4C6C9CBCDCF9B
:10067000D1D4D6D8DBDDDFE2E4E7E9EBEEF0F3F549
:10068000F8FAFDFF1203570069006C006C006F0060
:1006900077003600340000001003480061006E004F
:1006A0006100630068006900000004030904090296
:1006B0004200020100A0FA09040000010301010048
:1006C0000921110100012240000705810308000AE9
:1006D00009040100020300000009211101000122A8
:1006E0002200070582032000010705030320000103
:1006F000120110010000000801BB0100020001020C
:1007000000010660FF0961A1010962150026FF00D2
:100710009520750881020963150026FF0095207554
:10072000089102C005010906A101050719E029E7A2
:100730001500250195087501810295017508810153
:100740000507190029FF150026FF00950675088189
:100750000005081901290595057501910295017596
:10076000039101C011241FBECFEFDAE0DEBFCDBF81
:1007700004B603FE27C080916A0490916B04A09197
:100780006C04B0916D048730904BA740B04BD1F40E
:1007900010926A0410926B0410926C0410926D0413
:1007A00014BE84B7877F84BF0FB6F894A895809154
:1007B0006000886180936000109260000FBEE0E0EE
:1007C000F8E3099511E0A0E0B1E0E6E1FFE502C041
:1007D00005900D92A237B107D9F724E0A2E7B1E066
:1007E00001C01D92AA36B207E1F70E945E280C9460
:1007F000892F0C94000081E0089581E008950C9405
:10080000FD0308950C9401041F93CF93DF9300D050
:1008100000D01F92CDB7DEB749835A833091F002E2
:1008200089819A81311114C0662359F0222349F03D
:100830000E94D323182F682F89819A810E947823E0
:1008400003C00E94A723182F69817A81812F04C0D9
:100850000E94D32369817A810F900F900F900F909F
:100860000F90DF91CF911F910C947015FC01262FF2
:10087000408151816281738184810C940404CF93FF
:10088000DF93EC0160E00E943604BE01DF91CF915E
:100890000C940204FF920F931F93CF93DF93E82FE2
:1008A000F0E0E653FC4FF490C82FC695C695C69568
:1008B000D0E0FE01E65AFB4F0491877010E0082E4D
:1008C00002C0159507950A94E2F701701127FE0101
:1008D000E65BFB4FC491D0E002C0D595C7958A95E1
:1008E000E2F7C170DD270115110519F081EE0E94B4
:1008F0005D1B209719F086EE0E945D1B8F2D0E94D4
:10090000441CCD2B19F086EE0E94E51B012B41F013
:1009100081EEDF91CF911F910F91FF900C94E51B19
:10092000DF91CF911F910F91FF900895EF92FF9269
:100930000F931F93CF93DF93EC01162F0AE088816A
:10094000882309F455C0813009F043C08981813082
:1009500041F47E0182E0E80EF11C8A810E94441C71
:1009600009C0823049F47E01E2E0EE0EF11C8A817A
:100970000E945D1BE7012FC0833041F47E01F2E04D
:10098000EF0EF11C8A810E94E51BF4CF843011F038
:10099000219621C02A81229680E090E030E0205309
:1009A00031092A30310558F4089FA001099F500DE4
:1009B0001124CA01820F931F21962881EFCF00973F
:1009C00051F0EFE9FFE03197F1F700C00000019727
:1009D000F6CF0E944A042196812F882309F4AFCFD5
:1009E000EFE9FFE03197F1F700C000008150F5CF4B
:1009F000DF91CF911F910F91FF90EF90089560E0EC
:100A00000C9496048F929F92AF92BF92CF92DF92F6
:100A1000EF92FF920F931F936B017C0181E090E0B6
:100A2000A0E0B0E04C015D0104C0880C991CAA1C38
:100A3000BB1C4A95D2F7AC01BD0104C0440F551F41
:100A4000661F771F2A95D2F7482959296A297B29D9
:100A500004C0880F991FAA1FBB1F0A95D2F78A01ED
:100A60009B010C211D212E213F210417150726076C
:100A7000370739F4BC01CD016C297D298E299F29C6
:100A80000AC080959095A095B095BC01CD016C21D0
:100A90007D218E219F211F910F91FF90EF90DF907C
:100AA000CF90BF90AF909F908F9008950F93382F65
:100AB000262F60915B0370915C0380915D039091A0
:100AC0005E03042F432F0E9402050F910C94B42261
:100AD0000E94ED260E940925811102C00E94B025C6
:100AE0000C94BF070C94C20708950E94B81E0E9480
:100AF00074052FEF84E39CE0215080409040E1F7A3
:100B000000C000000C94DA260F931F93CF93DF935D
:100B1000EC0161E00E9436048C01BE010E940F13BB
:100B20008823A9F1BE01C8010E94FF03882379F13F
:100B3000BE01C8010E94A616882349F1BE01C80162
:100B40000E94F816882319F1BE01C8010E942318DB
:100B50008823E9F0BE01C8010E9418128823B9F069
:100B60008A81882369F001158CE5180731F00F3D63
:100B70001C4531F40E94B0250AC00E94750507C0CB
:100B8000CE01DF91CF911F910F910C94FB0380E078
:100B9000DF91CF911F910F91089508950C94CD0589
:100BA00081E008950C94D005CF93C82F0E94CE0504
:100BB0008C2F0E94D205CF91089580E090E0089597
:100BC0000895880F991FFC01E659FB4F8591949178
:100BD0000895CF93DF930E9470150E94E706EC0101
:100BE000811521E59207A0F5811560E5960708F0CB
:100BF00087C0C11580E2D807F0F4C11591E0D9078C
:100C000008F0E1C0C03ED10588F4C03CD10508F031
:100C100063C0C130D10509F4D6C008F4D2C0CE01FA
:100C20000497813A910508F4CEC0CBC0C83ED105E7
:100C300008F4C9C0C6C0C11520E4D20708F05DC0E1
:100C4000C11560E3D60708F04EC0CE019F7047C0C3
:100C5000C11585E5D807A0F4C11594E5D90708F0BA
:100C600096C0C11523E5D20708F07BC0C11562E527
:100C7000D60708F060C0DC2FCC27C16FD06AA3C0B4
:100C8000C11589E5D807A0F4C11598E5D90708F082
:100C900083C0C11526E5D20708F093C08C2F0E94AF
:100CA0007B078F71C82FD0E0DC2FCC27D0628BC0A0
:100CB000C1156AE5D60708F474C0CE0190568115B7
:100CC000904208F07EC08D2F8F710E947B07DD2738
:100CD000D0628F71D82B77C0CE01805C91090E94C1
:100CE000E105EC0170C0CE019927D3FF03C0EC01F0
:100CF000D86C69C0EC01D06C66C0DF70D06A63C08C
:100D0000837021E030E002C0220F331F8A95E2F7A2
:100D10003C68CE0174E0969587957A95E1F78370EB
:100D2000382BCF70C695C69560E2C69FE0011124AE
:100D3000C22BD32B48C04C2F4695469580E2489F46
:100D4000A0011124C370DD2721E030E0C90102C0F9
:100D5000880F991FCA95E2F7EC01C42BD52BDC68EC
:100D600032C04C2F4695469580E2489FA001112441
:100D7000C370DD2721E030E0C90102C0880F991F50
:100D8000CA95E2F7EC01C42BD52BDA681CC0DC2F26
:100D9000CC27C46FD06A17C0DC2FCC27C06FD06AB5
:100DA00012C08C2F8F700E947B0794E0D695C79558
:100DB0009A95E1F7CF70D0E0DC2FCC27D069C82B13
:100DC00002C0C0E0D0E0CE01DF91CF91089582381B
:100DD000910569F1B0F48133910509F46DC048F4CF
:100DE0008932910509F463C08A32910509F469C01A
:100DF00008958533910509F455C089339105B9F0FB
:100E00000895833E910569F138F4803E9105B1F073
:100E1000823E910509F10895863E9105A9F1873E2C
:100E20009105B9F1843E910509F064C023C0209179
:100E30005B0420FD4FC021FD4DC0089580915B04EF
:100E400080FD44C080915C0480FF44C080915B04BD
:100E500084FD42C083EE4DC080915B0482FF38C0A8
:100E6000F5CF80915B0482FD33C080915C0480FDEE
:100E700031C0ECCF80915C0481FF32C080915B0473
:100E800084FD2AC087EE35C080915B0483FF26C0B5
:100E9000F5CF80915B0483FD21C080915C0481FDCE
:100EA0001FC0ECCF80915B0485FD1CC01DC08091EC
:100EB0005B0485FD19C016C080915B0486FD16C0D9
:100EC00017C080915B0486FD13C010C089E311C078
:100ED00082EE0FC080EE0DC080E00BC086EE09C030
:100EE00084EE07C089E205C085E303C08AE201C041
:100EF00081E390E0089590915B0492FF0DC0282F4C
:100F00002871283019F4877F846006C0282F247147
:100F1000243011F48B7F886093FF0DC0282F287137
:100F2000283119F4877E846106C0282F247124316A
:100F300011F48B7E886120915C0420FF0DC0382F56
:100F40003871383019F4877F816006C0382F3171CD
:100F5000313011F48E7F886021FF0DC0282F287159
:100F6000283119F4877E816106C0282F2171213133
:100F700011F48E7E886194FD877E089508950C9407
:100F8000BE0708950C94C107E82FF0E0EA57FC4F24
:100F900080810895089580EA8A95F1F70895F8947C
:100FA000E82FE295EF70F0E031A1282F2F7081E05B
:100FB00090E001C0880F2A95EAF7982F9095932327
:100FC00091A392A1892B82A37894089508951F93E9
:100FD000CF93DF930E942D09809104018091040139
:100FE000811102C095E001C090E09093910385E0EB
:100FF000891B8093900384E90E94CF0786E60E94B4
:10100000CF0787E90E94CF0786EC0E94CF0784E3D1
:101010000E94CF07C5E3D1E01C2F185F89910E9481
:10102000CF071C13FBCFA6E8B3E0ECE7F3E08AE0C0
:101030008E0F11921D928E13FCCF85E00E94D7086F
:101040000E946805DF91CF911F910C9442090E9484
:101050000E09882321F18091900390E08A579C4FDC
:101060000E947209811117C0809172018F5F809375
:101070007201863090F02091900380E090E030E0A3
:10108000FC01E20FF31FEA57FC4F108201968530F6
:101090009105B1F702C0109272010C947205809113
:1010A000910390E08A579C4F0E9491090C94E607A7
:1010B0009F92AF92BF92CF92DF92EF92FF920F93E7
:1010C0001F93CF93DF938CE7C82E83E0D82ECDE318
:1010D000D1E0B12C01E010E0AC2E85E0A80E7E013D
:1010E0008881F894E82FE295EF70F0E091A18F707D
:1010F000A80101C0440F8A95EAF7892F842B81A3A8
:1011000082A14095482342A378940E94CB07E5E34F
:10111000F1E020E030E0912C4191A42FA295AF7036
:10112000B0E090968C9190E04F7002C095958795B5
:101130004A95E2F780FD07C0802F022E01C0880F7C
:101140000A94EAF701C080E0982A2F5F3F4F2830C9
:10115000310511F72196F70180810E94CF07F60132
:101160008081891519F0908281E001C080E0B82A61
:10117000FFEFCF1ADF0AAC12B2CF6091910370E09B
:101180006A577C4F2B2D45E08CE793E00E94D808EE
:101190000E9427088B2DDF91CF911F910F91FF9017
:1011A000EF90DF90CF90BF90AF909F9008950895FB
:1011B000FF920F931F93CF93DF938C01F62ED72FBF
:1011C000C42F222349F081E0809375010E948D266F
:1011D0009093740180937301809175018823C1F00D
:1011E00080917301909174010E94A526069780F06A
:1011F000EF2DFD2FD8014C2F50E0CD01801B910B1E
:10120000841795071CF48D918193F7CF1092750187
:10121000DF91CF911F910F91FF90089580917601FA
:10122000811112C08091D80080618093D8008AE13A
:101230008A95F1F700C08091D90080FD02C082E05C
:1012400001C081E08093760181E090917601913038
:1012500009F080E008950C940E090E942B098093F8
:10126000040180910401882319F06DE180E002C03F
:1012700063E28DE10E94460A0E940E0981110C94DE
:10128000490908950E940E09811102C00C944F096A
:10129000089562E070E085E091E00C94B41862E09B
:1012A00070E085E091E00C94BD180E94B60F882391
:1012B00061F08EE791E00E94BC0F81E090E00E9417
:1012C0009F19892B11F40C94B90F089580917D0119
:1012D000883039F460E08EE791E00E94F5101092BA
:1012E0007D010895CF93DF93D82FC92F0E94550910
:1012F00080E090E00E949F19892B79F4ED2FFC2F5C
:1013000080E090E0DC01A858BE4F2C91219301961B
:1013100085309105B9F781E001C080E0DF91CF9180
:101320000895CF93DF9300D0CDB7DEB789839A833A
:101330000E9466098981E82F9A81F92F80E090E068
:101340002191DC01A858BE4F2C9301968530910560
:10135000B9F70F900F90DF91CF910895CF92DF9260
:10136000EF92FF920F931F93CF93DF938B01982FF0
:1013700011110BC0442329F0E82FF0E0EC57FA4F8D
:101380009491692F792F892F73C0212F30E0E82F96
:10139000F0E0442321F0EC57FA4FE491F0E046E00E
:1013A000049FC0011124CFEFD0E0BE010E94382E6F
:1013B000DB014BEA4603C001479F900D1124800FCB
:1013C000911D800F911D982F990F890FAE01421B1F
:1013D000530BE49F7001E59FF00CF49FF00C112477
:1013E0004F2D819FB0011124672F77278E01061B97
:1013F000170BB801E69F8001E79F100DF69F100DB7
:101400001124712F6E01C81AD108C29EC001C39E5B
:10141000900DD29E900D1124892F9927C81BD90BAE
:10142000EC9F9001ED9F300DFC9F300D1124932F08
:10143000A230B10569F02CF41097B9F0119751F072
:1014400012C0A430B10559F03CF0169761F40DC0FC
:101450007F2D432F9E2F0AC0912F7F2D02C0732F07
:101460009F2D4E2F03C09F2D412F7E2F692F842F3C
:10147000DF91CF911F910F91FF90EF90DF90CF9070
:10148000089541E00E94AE0908950895E8E1F1E071
:101490008083618308950E94410A0895CF93DF936A
:1014A000762FE901682F842F0E944B0A7983688385
:1014B0008A83DF91CF910895453608F044E60C9475
:1014C0004E0A80919203282F269530E02115310590
:1014D00019F48170826005C02B32310524F08170CF
:1014E00084658093920380919503853618F084E695
:1014F00080939503089588E090E00C942A2FCF9371
:10150000DF9300D000D0CDB7DEB7AB01BC0149837B
:101510005A836B837C830E94610A49815A816B8163
:101520007C8188E090E00F900F900F900F90DF91FA
:10153000CF910C94482F6091920370919303809106
:101540009403909195030C947F0AE2E9F3E083E021
:10155000808311828FEF828384E683831482A5EDDA
:10156000B2E012968C911297836012968C936081F0
:101570007181828193810C947F0A8091920380FF14
:1015800002C08695089580E0089590919603933067
:1015900018F49F5F90939603882351F06091920313
:1015A0007091930380919403909195030C947F0A1A
:1015B000089581E00C94C50A90919603992319F03F
:1015C000915090939603882351F06091920370910B
:1015D000930380919403909195030C947F0A08954E
:1015E00081E00C94DC0A8091960308958093960321
:1015F00008958091930308958091940308958091B4
:101600009503089570E00C94871260911901809100
:10161000920380FF0AC08091180123E0829FC001DD
:10162000112489569C4F0C94020B80911A019091C1
:101630001B01891780F7E82FF0E09F01220F331F6D
:10164000E20FF31FE956FC4F1182108212828F5F66
:10165000F0CF9091920390FF16C090911A012091C3
:101660001B01921770F4E92FF0E0DF01AA0FBB1FF6
:10167000EA0FFB1FE956FC4F8183608342839F5F23
:10168000F0CF0C94050B0895CF93DF9300D01F92F9
:10169000CDB7DEB79091920390FF0AC09E012F5FF5
:1016A0003F4F0E945C0A4B8169818A810E94290B0D
:1016B0000F900F900F90DF91CF910895CF93DF930C
:1016C000EC01EC81F0E0E158FB4F4491E2E9F3E0FA
:1016D000628181810E94440B8C818F5F8C83DF91BA
:1016E000CF910895CF93DF93EC01E2E9F3E04381DA
:1016F00062818C810E94440B8C818F5F8C83DF918F
:10170000CF9108950F931F93CF93DF9300D01F9233
:10171000CDB7DEB78C018091860181110AC09E0190
:101720002F5F3F4F44E66FEF0E945C0A8A818093EF
:101730008601F8018481813051F028F0823061F413
:10174000409186010AC08091860140E007C0609107
:10175000860140E080E003C040E080E060E00E945D
:10176000290BF801248130E0C901019663E070E0A3
:101770000E944C2E84830F900F900F90DF91CF9199
:101780001F910F910895AF92BF92CF92DF92EF9287
:10179000FF920F931F93CF93DF9300D01F92CDB78B
:1017A000DEB7182FF62E042FE22E9091920390FFB1
:1017B0007FC0E92FE695AE2FB0E0A95BBE4F8C91BC
:1017C0008093D5029E7F923061F49E012F5F3F4F40
:1017D000812F0E945C0A4B8169818A810E94290BBA
:1017E00044C0823019F4009195033FC0863019F44B
:1017F000109193033AC08930D9F38931B1F5E95199
:101800008E2F8170D82EE695F0E0E158FA4FA59022
:10181000B490C12CBB2460911C01C61620F5EC2DA0
:10182000F0E0EA9DC001EB9D900DFA9D900D112412
:1018300070E00E94382E812FD11002C0860F01C0A7
:10184000861B90911A01E90FF11D9F01220F331F92
:10185000E20FF31F9F0129563C4F402F6F2D0E942E
:101860005C0AC394D8CF0E94050B80919303811327
:1018700008C0809194038F1104C080919503801754
:1018800029F08091D70282608093D702109393034E
:10189000F092940300939503EE2051F0609192032F
:1018A0007091930380919403909195030E947F0A15
:1018B0000F900F900F90DF91CF911F910F91FF909C
:1018C000EF90DF90CF90BF90AF900895E2E9F3E002
:1018D0009181282F4381628188E0890F0C94C30B8A
:1018E00081E00C94660CE2E9F3E09181282F4381BA
:1018F000628188EF890F0C94C30B81E00C94730C08
:10190000E2E9F3E0628128E0620F08F46FEF282F2C
:10191000438181810C94C30B81E00C94800CE2E93B
:10192000F3E0628128E0621B08F460E0282F438125
:1019300081810C94C30B81E00C948F0CE2E9F3E0FD
:10194000438128E0420F08F44FEF282F6281818104
:101950000C94C30B81E00C949E0CE2E9F3E043810C
:1019600028E0421B08F440E0282F628181810C941A
:10197000C30B81E00C94AD0C20E00C94C30BFF92E0
:101980000F931F93CF93DF93EC01F12C0FEF10E037
:1019900060911C01F616E8F420911A0130E02F0D39
:1019A000311DC901880F991F280F391F29563C4F37
:1019B00070E0C8010E944C2E962F8C8140919503B7
:1019C00060919403F99E800D11240E945C0AF394A7
:1019D000DFCF0E94050B9A818C8190FF02C08F5F40
:1019E00001C081508C83DF91CF911F910F91FF90A7
:1019F00008958F929F92AF92BF92CF92DF92EF9213
:101A0000FF920F931F93CF93DF931F92CDB7DEB753
:101A10004C01FC01828180FF02C09FEF01C091E078
:101A2000F401848181110DC0913031F480911C0149
:101A300081508093880102C01092880181E0F401F6
:101A40008483B12C80911C01B81608F043C0CB2CC4
:101A5000D12C80911A018601080F111D9801220FC7
:101A6000331F020F131F09561C4FF80111821082F9
:101A7000128254E0E52EF12CA12C409188014A0DF0
:101A8000413414F04F7305C047FF03C080911C011F
:101A9000480F042E000C550BC416D506A1F48091F6
:101AA00095038E9DA0018F9D500D1124559547954E
:101AB000559547959801609194038091930399837C
:101AC0000E945C0A9981A90EF1E0EF1AF108A9F6CB
:101AD000B394B8CF99830E94050B20918801998116
:101AE000913081F4211108C080911C0181508093B4
:101AF0008801F401148212C0215020938801F4015E
:101B000094830CC030E0C901019660911C0170E023
:101B10000E944C2E80938801F40184830F90DF9102
:101B2000CF911F910F91FF90EF90DF90CF90BF90DA
:101B3000AF909F908F9008951F93CF93DF93EC0108
:101B40008C81811109C081E08C831092870192E021
:101B5000909317018093160180911A0190911B01B7
:101B6000891770F4E82FF0E09F01220F331FE20F76
:101B7000F31FE956FC4F1182108212828F5FF0CF63
:101B800010E060911C011617B8F5E12FF0E070E04D
:101B9000CF010E944C2E40911A01480F809187017D
:101BA000082E000C990B50E0E817F907C4F02091BB
:101BB0001701022E000C330B2E173F0784F09A01F9
:101BC000220F331F240F351F29563C4F4091950398
:101BD00060919403809193030E945C0A0BC0FA0108
:101BE000EE0FFF1F4E0F5F1FFA01E956FC4F1182E7
:101BF000108212821F5FC5CF0E94050B80911601D3
:101C000020918701280F2093870190911701980F49
:101C10009093170119165CF4022E000C330B4091BF
:101C20001C0150E0415051092417350734F08195CB
:101C300080931601813009F41C82DF91CF911F91AE
:101C400008958F929F92AF92BF92CF92DF92EF92C0
:101C5000FF920F931F93CF93DF93EC014C81042FDE
:101C600010E09801D8010E94902E9B01AC010E94C7
:101C7000A62E6B017C01E0E2F0E0E01BF10BA5E594
:101C8000B0E09B01AC010E94A62E4B015C019F01BC
:101C9000DF010E94882E9B01AC010E94B12E9B01A6
:101CA000AC012C0D3D1D4E1D5F1DC501B4010E94F0
:101CB000602E822F022F2A3228F493E0299F900170
:101CC00011240DC025E530E0281B3109C901880F1A
:101CD000991F280F391F37FF02C02F5F3F4F3595DF
:101CE0002795122F1095F12C85E5E82EE01A8091AA
:101CF0001C01F816C0F4F1FC02C08E2D01C0802F2B
:101D000020911A0130E02F0D311DA901440F551FFC
:101D1000240F351F29563C4F412F609194030E9498
:101D20005C0AF394E4CF0E94050B8C81811102C000
:101D300091E003C0803219F49FEF909315019091C8
:101D40001501890F8C83DF91CF911F910F91FF9027
:101D5000EF90DF90CF90BF90AF909F908F900895BD
:101D60000F931F93CF93DF93EC0100E010E080917D
:101D70001C01282F30E00217130724F590911A0157
:101D80009801290F311DA901440F551F240F351F3C
:101D900029563C4F869590E04C81081719071CF492
:101DA000442331F002C0411103C04091950301C0AA
:101DB00040E060919403809193030E945C0A0F5F5E
:101DC0001F4FD5CF0E94050B2C8130E02F5F3F4F76
:101DD000217033272C83DF91CF911F910F910895AC
:101DE0007F928F929F92AF92BF92CF92DF92EF92AB
:101DF000FF920F931F93CF93DF93FC01BB24B39407
:101E00008281833008F4B12C948081E0848300E0E7
:101E100015E05BE4A52E88248394EE24EA94F12C4B
:101E20007BE4C72ED12CECE47E2E80911C01081798
:101E300008F08DC0C02FD0E01C9FF0011D9FF00D59
:101E40001124E457FE4F911003C01382128265C023
:101E50008381882389F12FEF280F23833481332353
:101E600021F0972D981B892F01C0822F9091950307
:101E70001C9FF0011D9FF00D1124E457FE4F899F18
:101E8000C0011124B6010E94382E6283211104C0C2
:101E9000332311F01482A382B1103FC01C9FF001C4
:101EA0001D9FF00D1124E457FE4F80919303808312
:101EB00080919403818331C00E94052F823091402C
:101EC00064F5BB2031F00E94052FB7010E944C2E13
:101ED00002C0809193031C9FF0011D9FF00D1124FF
:101EE000E457FE4F8083BB2059F00E94052F2091BC
:101EF00094032695622F70E00E944C2E820F02C040
:101F0000809194031C9FF0011D9FF00D1124E45754
:101F1000FE4F81831282A382848280911A019E01E6
:101F2000280F311DC901880F991F280F391F295605
:101F30003C4F1C9FF0011D9FF00D1124E457FE4FF4
:101F40004281618180810E945C0A0F5F6ECFDF91C8
:101F5000CF911F910F91FF90EF90DF90CF90BF90A6
:101F6000AF909F908F907F900C94050B8091D7023B
:101F700008951092D702089525E0E2E9F3E0DC012C
:101F800001900D922A95E1F72091D5023091D60269
:101F90004091D702FC012583368347830895E5ED00
:101FA000F2E01182828184608283089560919203BD
:101FB000669570E04BE050E08DE191E00E94152FB6
:101FC000892B19F481E08093D6020E948D2690938C
:101FD000CD028093CC028091D70284608093D70297
:101FE0000895E5EDF2E01182828184608283089594
:101FF0009091920390FF3AC09170811102C092605B
:1020000006C08B3210F0946502C0880F982B909315
:1020100092038091D70281608093D702662351F0AA
:102020006091920370919303809194039091950332
:102030000E947F0A60919203669570E04BE050E049
:102040008DE191E00E94152F892B19F00E94F10F6C
:1020500002C00E94D60F81E08093CF024091950389
:1020600060919403809193030C94BC0C0895682FA5
:1020700090919203969581E0890F8B3208F081E070
:102080000C94F80F81E00C943710682F9091920314
:1020900096958FEF890F09F48AE20C94F80F81E08E
:1020A0000C94451061E00C94F80FE2E9F3E08081B4
:1020B0008160808386950C94521060E00C94F80F38
:1020C0008091D402811133C00E940925811104C07E
:1020D0000E94B0250E94A50A0E947B0A6093920389
:1020E0007093930380939403909395038091D70208
:1020F00083608093D7026E7F61F40E94A50A0E94DC
:102100007B0A60939203709393038093940390935C
:1021100095030E94610A0E94CF0F8091920380FF75
:1021200003C086950E945D1081E08093D4020895DB
:10213000E2E9F3E080818160808386950C945D10F4
:102140001092D3028091D20281110E9498100C94B7
:10215000D60FE2E9F3E080818E7F80836081718118
:10216000828193810E947F0A0E94F10FE5EDF2E0E7
:102170008281816082832FEF80E792E0215080404E
:102180009040E1F700C000000C94050B8091920391
:1021900080FD0C94A9100C945510E2E9F3E08081C5
:1021A0008E7F80830E94F10FE5EDF2E082818160F5
:1021B00082832FEF80E792E0215080409040E1F74A
:1021C00000C000000C94050B0E94F10F8091D30217
:1021D00081110AC081E08093D302809192038170C3
:1021E0008093D2020C94CD1008951F93CF93DF9368
:1021F000EC01162F8F8180FF0FC0888180FF0AC0FD
:1022000080919203816080939203888186950E94D9
:10221000F80F02C00E94CD108F8181FF06C0212FD0
:102220004B816A8189810E94C30B8F8182FF08C024
:102230008E81882319F00E94D60F02C00E94F10FF0
:102240008F8183FF03C081E08093CF02DF91CF9124
:102250001F910895EF92FF920F931F93CF93DF93F7
:102260008091D602882309F4C1C08091D502E09103
:102270009203E695E81BE093CE02823049F4F0E049
:10228000E558FB4FE491CE2FD0E00EE51BE059C09E
:10229000863049F4F0E0E858FB4FE491CE2FD0E0CF
:1022A00002E71BE04EC0893051F4E695F0E0EB58B0
:1022B000FB4FE491CE2FD0E00FEB1CE042C08F30FB
:1022C00051F4E695F0E0EE58FB4FE491CE2FD0E0CC
:1022D00009EF1CE036C0853149F4F0E0E159FB4FCD
:1022E000E491CE2FD0E00CE91DE02BC08831D9F06D
:1022F000833239F4EDE6F4E0C591D49102E81BE0B5
:1023000020C08432A9F08532C1F48E2F63E00E9490
:102310002C2EE92FF0E0E659FB4FE491CE2FD0E0D0
:1023200000EF1EE00EC0C8E2D0E001E21EE009C0EE
:10233000C4EFD1E000EB1EE004C0C0EDD7E005E43F
:102340001AE08091CF02882389F01092CF020E9478
:102350008D269E0120953095820F931F9093CD027C
:102360008093CC021092D1021092D0028091CC02C4
:102370009091CD020E94A5268C179D07B8F18091FF
:102380008B018823B1F010928B018091890190918B
:102390008A010E94A5268033954758F00E948D2619
:1023A00090938A01809389018091D70288608093FD
:1023B000D702E090D002F090D102E091CC02F091EF
:1023C000CD02CE0FDF1FD093CD02C093CC028CEC98
:1023D00092E0F80109958091D0029091D102892B69
:1023E00029F4EF2819F081E080938B01DF91CF91E0
:1023F0001F910F91FF90EF900895882311F0FA013B
:1024000001C0FB010994CF93DF93C82FD62F0E9400
:10241000BD0A8C1740F00E94BD0A8D1720F4DF9191
:10242000CF910C9442108C2FDF91CF910C945210CD
:102430001F93CF93DF93FB011281111163C0EC0155
:102440000E9453248272FE01E35CFC45E431F105F5
:1024500008F057C0EA5AFF4F0C94822E0E94C61013
:1024600051C04FE450E162E470E104C042E450E145
:102470006FE470E10E94FD1145C04DE75CE060E74C
:102480007CE0F8CF40E75CE06DE77CE0F3CF4BE920
:102490005CE06CE87CE0EECF4CE85CE06BE97CE073
:1024A000E9CF49EB5CE06AEA7CE0E4CF4AEA5CE031
:1024B00069EB7CE0DFCF40EF5AE069ED7AE0DACFFC
:1024C00049ED5AE060EF7AE0D5CF81E017C065E0D2
:1024D00082E010C068E086E00DC06EE089E00AC0CE
:1024E00064E18FE007C067E185E104C088E106C0D0
:1024F00062E289E10E94031205C083E20E94521049
:1025000001C011E0812FDF91CF911F910895539A5F
:102510002BB1277F3BB138604FB7F894FC01CB015A
:10252000880F991F680F791F6E0F7F1FE617F70737
:1025300089F0819198E03BB9000000C087FF2BB97A
:10254000880F000000C000C000C02BB900C09A95E1
:1025500091F7ECCF4FBF8FE594E00197F1F700C002
:102560000000089582E290E00E94222F813281F4DF
:1025700083E290E00E94222F823051F484E290E0C6
:102580000E94222F91E0873109F090E0892F01C04D
:1025900080E081700895CF93C82F811102C06FEF42
:1025A00001C061E282E290E00E94362FC11102C0B8
:1025B0006FEF01C062E083E290E00E94362FC1110C
:1025C00002C06FEF01C067E184E290E0CF910C940C
:1025D000362F80E00E94CB120C940325089585E2EB
:1025E00090E00E94222F682F70E080E090E0089534
:1025F00085E290E00C94362F0E94EE120E94B212F7
:1026000081110CC060E070E0CB010E94F8120E94C2
:10261000E3140E94D21581E00C94CB120895CF935D
:10262000FB01C281CC23E9F09C0122513F452031BE
:10263000310520F482510E94E2150CC08031FFE583
:102640009F0751F481E00E94DA2243E062E081E0DA
:102650000E945605C0E018C081319F45A9F482E070
:10266000F2CF8031EFE59E0711F481E004C08131A3
:102670009F4549F482E00E94FB2243E062E081E052
:102680000E94560501C0C1E08C2FCF9108952FEF15
:10269000FC0120830895CF93DF93EC01888181387A
:1026A00089F028F48038A1F40E94FF0A10C0823813
:1026B00061F0833869F40E94F90A89830E94FC0A58
:1026C0008A8306C00E94BD0A02C00E94F30A898361
:1026D000DF91CF9108950F931F93CF93DF9300D095
:1026E000CDB7DEB78C01FC0180818138D1F070F468
:1026F000803809F040C0F80141814A830E94FC0AF9
:1027000089830E94F90A4A8169812DC0823809F1C2
:10271000833889F50E94FF0A482FF8016281818180
:1027200022C0F80181810E945D10F8018181811130
:1027300008C00F900F90DF91CF911F910F910C94D3
:10274000CD100F900F90DF91CF911F910F910C94AE
:102750009810F80181810F900F90DF91CF911F9118
:102760000F910C94F60A0F900F90DF91CF911F916B
:102770000F910C94BC0C0F900F90DF91CF911F9193
:102780000F910895EF92FF920F931F93CF93DF93D2
:10279000EC01162F0196E8814E2F50E0FA01319797
:1027A000E331F10508F0BBC0E659FF4F0C94822ECF
:1027B000198289E061C08981823039F0833061F00B
:1027C000813079F50E94992602C00E94EF129A8307
:1027D0008B837C836D83A5C07E0122E0E20EF11C19
:1027E00000E0802F0E94C407F70181937F010F5FF3
:1027F0000A30B9F796C08981823099F42A816B81B9
:10280000862F90E0A0E0B0E0DC0199278827B22B6A
:102810002D81822B2C81BC01CD01722B0E94F812DC
:1028200080C0612FCE010E9447137BC04B816A811B
:1028300089810E94AE149C838D8373C02C8130E00B
:10284000322F22278D81282B4B816A8189810E941A
:10285000C71467C00E94E31464C00E946B1361C078
:102860000E944B135EC00E949B0A5BC00E947D15B4
:1028700026C00E947F1599838A8353C06B8170E0C4
:10288000898190E0982F88272A81AE014C5F5F4FA5
:10289000822B0E94821545C06B8170E0898190E097
:1028A000982F88272A81AE014C5F5F4F822B0E94B0
:1028B000A71537C00E94D21534C00E949B1489838B
:1028C00030C06B8170E0898190E0982F88272A8141
:1028D000AE014C5F5F4F822B0E94221522C06B819C
:1028E00070E0898190E0982F88272A81AE014C5FA3
:1028F0005F4F822B0E94461514C00E94E91211C03E
:10290000CE010E945527FFEF21EE84E0F1502040D8
:102910008040E1F700C000000E94DA2602C08FEF7D
:102920008883612FCE01DF91CF911F910F91FF908E
:10293000EF900C94552784E0089550E0440F551F04
:1029400020E1629F400D511D11249A0160EA869F8B
:10295000200D311D1124C901869608950F931F93F0
:10296000CF93DF930E949D148C010E94222FC82FC9
:10297000D0E0DC2FCC27C80101960E94222F9E01B7
:10298000282BC901DF91CF911F910F9108950F93CB
:102990001F93CF93DF9300D0CDB7DEB72A8339835F
:1029A0000E949D148C013981632F0E94362F2A8149
:1029B000622FC80101960F900F90DF91CF911F9168
:1029C0000F910C94362FAF92BF92CF92DF92EF927D
:1029D000FF920F931F93CF93DF93A12CE12CF12C47
:1029E000B12C00E010E0C0E0D0E06801CE0CDF1CAC
:1029F000FE01EC0DFD1DEE0FFF1FE65BFE4F259166
:102A000034914C2F6B2D8A2D0E94C7142196C8300B
:102A1000D10571F7085F1F4FB3948AE0B812E3CF76
:102A200080E5E80EF11CA39484E0A812D9CFDF91D1
:102A3000CF911F910F91FF90EF90DF90CF90BF90BB
:102A4000AF900895EF92FF920F931F93CF93DF9370
:102A5000EA017A01E60EF71E8C01C8018696CE15B2
:102A6000DF0569F0003822E0120720F40E94222FCF
:102A7000888301C0188221960F5F1F4FEECFDF9130
:102A8000CF911F910F91FF90EF900895CF92DF9219
:102A9000EF92FF920F931F93CF93DF937C016A0114
:102AA0008C01060F171FEC01CE018696C017D107C7
:102AB00071F0C03822E0D20740F4FE01EE19FF09A0
:102AC000EC0DFD1D60810E94362F2196EDCFDF9128
:102AD000CF911F910F91FF90EF90DF90CF900895CD
:102AE000462F843038F47A3028F4683018F4672F91
:102AF0000C94AE1480E090E0089580E108958AE59A
:102B000091E00895EF92FF920F931F93CF93DF937D
:102B1000EA017A01E60EF71E8C01C8018A559D4F25
:102B2000CE15DF0569F00A3521E0120720F40E9476
:102B3000222F888301C0188221960F5F1F4FEDCF8F
:102B4000DF91CF911F910F91FF90EF900895CF9259
:102B5000DF92EF92FF920F931F93CF93DF937C014D
:102B60006A018C01060F171FEC01CE018A559D4F9B
:102B7000C017D10771F0CA3521E0D20740F4FE0139
:102B8000EE19FF09EC0DFD1D60810E94362F219684
:102B9000ECCFDF91CF911F910F91FF90EF90DF90DD
:102BA000CF900895CF93DF93C6EAD2E060E0CE01E4
:102BB0000E94362F2196C11584E0D807B9F7DF911E
:102BC000CF910895DF92EF92FF920F931F93CF93CF
:102BD000DF9300D000D0CDB7DEB7F82E8FE08F1591
:102BE000E8F18FEF93E00E94222F811137C006EAAF
:102BF00012E0FF2069F0011584E0180779F1C8019F
:102C00000E94222F811101C0FA940F5F1F4FF1CF54
:102C100019821A821B821C82DD24D39478018FEFE3
:102C2000E81AF80AC8010E94222F89831A82882391
:102C3000A9F09FEF980F933058F48A83D9820E5FE2
:102C40001F4FC7010E94222F8B83882339F0780100
:102C5000CE0101960E94FF048701E0CF0F900F90F4
:102C60000F900F90DF91CF911F910F91FF90EF90F8
:102C7000DF9008950F931F93CF93DF93C42FD22F2C
:102C8000FC0182818823C9F04093DA020E948D26DC
:102C90009093D9028093D80280E28C0F883008F09C
:102CA00050C0C77081E001C0880FCA95EAF7DF9174
:102CB000CF911F910F910C94571C1091DA021413AD
:102CC00030C08091D8029091D9020E94A526883CFC
:102CD000910538F5C0E2CD0F1D17B9F080E2810FE4
:102CE000883040F4177081E001C0880F1A95EAF728
:102CF0000E945E1CC83048F481E09D2F977001C08F
:102D0000880F9A95EAF70E94571C802F0E94441C56
:102D1000C830B8F4D77081E001C0880FDA95EAF7BF
:102D20000AC080E28C0F883060F4C77081E001C077
:102D3000880FCA95EAF7DF91CF911F910F910C94FC
:102D40005E1CDF91CF911F910F9108950F939C010D
:102D5000CB01243F4CE5340731F188F4293DFCE5F3
:102D60003F07D9F02A3D4CE5340779F1283D3C4531
:102D7000A9F506E221EE41EE68ED7CE52BC0263F89
:102D8000FCE53F07E1F0A8F0273F3C4539F507E2B5
:102D900025EE46EE67EF7CE51DC007E225EE45EE29
:102DA00069ED7CE517C006E221EE40EE64EF7CE5BC
:102DB00011C007E225EE44EE65EF7CE50BC006E2AC
:102DC00021EE42EE66EF7CE505C008E221E045EE2B
:102DD0006AED7CE50E943A1680E008C0FC01828121
:102DE000882319F01092DA0201C081E00F91089552
:102DF000CF93DF93EC01FB018281882309F41FC18B
:102E0000C230FCE5DF0708F41BC1C6319CE5D907D9
:102E100038F09E012B5F3C452930310508F010C188
:102E20000E941C2590935C0480935B04C031ECE508
:102E3000DE0709F4C3C008F041C0C8308CE5D807EC
:102E400009F49AC0F0F4C430ECE5DE0709F487C059
:102E500068F4C2308CE5D80709F477C0C330DC458C
:102E600009F0E3C080915B04826076C0C630ECE577
:102E7000DE0709F46EC008F07BC080915B048860B7
:102E80006BC0CC308CE5D80709F485C068F4CA3033
:102E9000ECE5DE0709F474C008F079C00E94B81EA2
:102EA00080915B04806858C0CE308CE5D80709F467
:102EB00076C008F07FC080915B048BC0CC3FECE50E
:102EC000DE0709F44FC018F5C3318CE5D80709F4C3
:102ED0007DC078F4C131ECE5DE0709F473C0C2317E
:102EE000DC4509F0A2C00E94B81E80915B048F7778
:102EF00033C0C5318CE5D80709F472C008F486C028
:102F0000CB3FDC4509F091C080915C043EC0C11507
:102F1000FDE5DF0709F45FC058F4CE3F9CE5D90713
:102F200009F444C008F43FC080915C0482602DC065
:102F3000C230FDE5DF0709F475C008F45DC0C33099
:102F4000DD4509F072C080E06EC080915B04816055
:102F500003C080915B04806180935B0466C08091B4
:102F60005B0411C080915C04826080935C045DC04E
:102F700080915B048062F0CF80915B048064ECCF31
:102F800080915B0488608460E7CF8160EECF8091A0
:102F90005B048E7FE1CF80915B048D7FDDCF8091DC
:102FA0005B04877FD9CF80915C0418C080915C045A
:102FB0008D7FDBCF80915B048F7ECECF80915B04D1
:102FC0008F7DCACF80915B048F7BC6CF80915B04DD
:102FD000877F8B7FC1CF80915C048D7F8E7FC5CF33
:102FE00080915B0482FB222720F991E0922790FBDD
:102FF00082F990FB83F9B0CF80915C04982F909573
:1030000091708E7F892B90FB81F9AFCF0E94B81E03
:1030100080915B0487FB222720F991E0922790FBA7
:1030200087F99ACF81E00E94B22580915B0490914C
:103030005C040E942D250E94B81E80E001C081E042
:10304000DF91CF910895CF93DF9386319C4541F571
:10305000EB010E945324282F8A814091280150912E
:103060002901882379F02A7A91E009F490E090937D
:10307000DB02911102C069E201C065E3CA010E944E
:10308000F8250AC08091DB02811102C069E201C00B
:1030900065E3CA010E94FA250E949F2480E001C0D6
:1030A00081E0DF91CF9108958EE14A9B02C081506B
:1030B000E1F74A9BFECF08955A9880E28A95F1F78E
:1030C0005A9A0895FC014AE04A95F1F730E090E001
:1030D00080E021E0961779F040E14A95F1F7880FFA
:1030E0004A9B02C08160322700C0000040E14A953F
:1030F000F1F79F5FEFCF90E19A95F1F729B100C00A
:10310000000040E14A95F1F722FB992790F99327B7
:103110002081920F90830895EF92FF920F931F9357
:10312000CF93DF931F92CDB7DEB7F62E1982E82E2C
:103130008C01802F8E198F1558F40E94541868E066
:10314000CE0101960E946218F80181938F01F1CFA0
:1031500081E09981911180E00F90DF91CF911F91D3
:103160000F91FF90EF9008959093DE028093DD021F
:103170006093DC02529A5A9A08959093DE028093EB
:10318000DD026093DC0252985A9AEA9AE9E6F0E08E
:1031900080818F7C80830895615091E001C0990FF8
:1031A0006A95EAF720E031E0992361F0492F48233E
:1031B00019F05A9A232701C05A9840E24A95F1F72C
:1031C0009695F2CF222311F05A9A01C05A9880E2C4
:1031D0008A95F1F75A980895EF92FF920F931F93F3
:1031E000CF93DF931F92CDB7DEB7162F082F7C0148
:1031F0008E2D801B811758F4F70181917F018983FF
:103200000E945C1868E089810E94CC18F1CF0F9071
:10321000DF91CF911F910F91FF90EF9008951F9232
:103220000F920FB60F9211240F931F932F933F937A
:103230004F935F936F937F938F939F93AF93BF93BE
:10324000EF93FF93CF93DF931F92CDB7DEB7198231
:103250000E94541867E0CE0101960E946218382F30
:10326000369536953695932F96959570232F257024
:10327000920F292F2370969596958770920F891338
:1032800048C08981811145C08091DC02831708F410
:1032900040C080E18A95F1F75A9A529AA2E0AA9525
:1032A000F1F700C00091DD021091DE02B8E03B9F13
:1032B000000D111D11245A98F8016581662321F033
:1032C000868197810E94EC180E945C18F0E1FA95C3
:1032D000F1F75A9852985A9A80E18A95F1F7D801F5
:1032E00012966C911297662369F013968D919C91BA
:1032F00014970E948C18D801ED91FC91811105C0A2
:1033000082E004C0D801ED91FC9188E080830E94A6
:1033100054180F90DF91CF91FF91EF91BF91AF9132
:103320009F918F917F916F915F914F913F912F91DD
:103330001F910F910F900FBE0F901F9018950F9334
:103340001F93CF93DF932091DC0230E028173907D9
:103350000CF471C09C0193E0220F331F9A95E1F7A2
:10336000C091DD02D091DE02C20FD31FF894529AB1
:103370005A9845E04A95F1F70000982F9695957078
:103380008570890F982F937086958695890F89018E
:10339000082B0E945C1884E08A95F1F700C067E072
:1033A000802F0E94CC1840E14A95F1F752985A9A22
:1033B0004A9902C000C0FCCF87E090E04A9B0EC053
:1033C000019751F4529A5A9AE881F98181E08083F9
:1033D000789481E090E031C000C0F0CF6D81662329
:1033E00081F08E819F810E948C1881110AC0529AAF
:1033F0005A9AE881F98182E08083789482E090E0B3
:103400001CC00E94541880E28A95F1F75A98529A8B
:1034100040E14A95F1F76A81662321F08B819C8116
:103420000E94EC180E945C18E881F981108278945F
:1034300080E090E002C084E090E0DF91CF911F91A6
:103440000F9108959093E4028093E3020895E09130
:10345000E302F091E402309721F00190F081E02D39
:10346000099480E00895E091E302F091E40230973E
:1034700021F00280F381E02D099408952091E1026A
:103480003091E2028217930771F09093E2028093E9
:10349000E102E091E302F091E402309721F006802E
:1034A000F781E02D099408952091DF023091E00228
:1034B0008217930771F09093E0028093DF02E0910E
:1034C000E302F091E402309721F00084F185E02DD1
:1034D0000994089585B7806885BF85B7806885BFE2
:1034E0000895089508950C94721A08950C94751A0D
:1034F0000E946A1A0E94711A0C94731A0C940E0995
:10350000089508950E9484260E94E7070E94FC12F5
:103510000E9401270E9460100C94761ABF92CF92ED
:10352000DF92EF92FF920F931F93CF93DF93CDB76C
:10353000DEB72B970FB6F894DEBF0FBECDBF0E944B
:10354000801A0E94811A0E9458080E947E1A8111D6
:1035500011C08FEF89838A831B820E948D26816030
:10356000782F9D838C8349815A816B818D810E9444
:10357000291B42C086EEC82E82E0D82E00E010E063
:10358000B02E802F0E94C407F601E1906F01E8265B
:1035900031F40F5F1F4F0A30110591F7DACF909188
:1035A000700391FF04C08B870E94CA078B8590E04F
:1035B000FF24F3942F2D2E21D1F09E83BF828F21E3
:1035C00091E009F490E098870E948D268160782F21
:1035D0009A8789874E815F8168858A850E94291B29
:1035E000F801EA51FD4F8081F826F08205C09F5F07
:1035F000FF0C9830F9F6CDCF0E942A111091E50208
:103600000E94271A1817A9F00E94271A8093E50232
:103610002B960FB6F894DEBF0FBECDBFDF91CF91D2
:103620001F910F91FF90EF90DF90CF90BF900C947F
:10363000D4052B960FB6F894DEBF0FBECDBFDF9139
:10364000CF911F910F91FF90EF90DF90CF90BF909F
:103650000895CF93DF93CDB7DEB72B970FB6F894CD
:10366000DEBF0FBECDBF4F83588769877A878B87B0
:10367000DE01119686E0FD0111928A95E9F785E059
:10368000FE01379601900D928A95E1F749815A81A2
:103690006B817C818D819E810E9448212B960FB683
:1036A000F894DEBF0FBECDBFDF91CF910895FC012E
:1036B000808191810E9414240895CF93882309F476
:1036C00082C0C82F8238C1F40E94271A81FD7BC0B6
:1036D00069E380912801909129010E94F8250E94B8
:1036E0009F242FEF81EE94E0215080409040E1F73D
:1036F00000C0000069E319C08338F1F40E94271A62
:1037000080FD61C063E580912801909129010E94AC
:10371000F8250E949F242FEF81EE94E021508040F5
:103720009040E1F700C0000063E58091280190918E
:1037300029010E94FA2544C08438C1F40E94271A46
:1037400082FD41C067E480912801909129010E9487
:10375000F8250E949F242FEF81EE94E021508040B5
:103760009040E1F700C0000067E4DFCF8CEF8C0FE2
:10377000813AD0F46C2F80912801909129010E9408
:10378000C325882349F06C2F80912801909129014D
:103790000E94FA250E949F246C2F8091280190910D
:1037A00029010E94F8250CC080E28C0F883058F463
:1037B000C77081E001C0880FCA95EAF70E945624BD
:1037C000CF910C949F24CF910895882309F45BC076
:1037D000682F823879F40E94271A81FF54C069E368
:1037E00080912801909129010E94F8250E949F2430
:1037F00069E310C08338B1F40E94271A80FF43C0E8
:1038000063E580912801909129010E94F8250E948A
:103810009F2463E580912801909129010E94FA2557
:103820000C949F24843879F40E94271A82FF2BC0BD
:1038300067E480912801909129010E94F8250E9457
:103840009F2467E4E7CF8CEF860F813A18F380E27C
:10385000860F883048F4677081E001C0880F6A9550
:10386000EAF70E945C24DCCF8BE5860F833020F4DE
:1038700080E090E00C943E1A685A673120F480E0B2
:1038800090E00C94541A0895CF93C82F0E945D1BAA
:10389000C93349F42FEF87EE93E0215080409040E8
:1038A000E1F700C000008C2FCF910C94E51B88231A
:1038B00021F00E9456240C949F240895882321F01F
:1038C0000E945C240C949F240895BF92CF92DF92B3
:1038D000EF92FF920F931F93CF93DF937C01062FFC
:1038E000C72FFC01D581D295DF70128111110E9482
:1038F00073240E944C24882399F0112389F08C2F83
:10390000807F803421F080E2800F883048F082E0B0
:103910000E94EA240E944C2491E0B82EB92601C0EE
:10392000B12CCC2EC2948FE0C822D12CF601E358E2
:10393000FF4F0C94822E8C2F807FCF70882311F044
:10394000C295C07F112399F0CC2309F46CC180E2A9
:10395000800F883010F0011104C08C2F0E94562473
:1039600003C08C2F0E9466240E949F245CC1802F7C
:103970000E94E51BCC2309F47BC180E2800F8830D4
:1039800010F0011104C08C2F0E945C2403C08C2F06
:103990000E946C240E949F246BC18C2F807FCF706B
:1039A000803211F0C295C07F002319F00130C9F0B8
:1039B00022C0112371F0DD2341F0D13031F40E9497
:1039C00086248C2B0E948C2453C10E9486248C2B2D
:1039D0001DC0DD2319F0D13009F44AC10E9495249D
:1039E00025C0112321F0D63008F042C10EC0D530D9
:1039F00008F03EC11BC0112361F0DD2331F0F70157
:103A0000858180FF10C18F7085838C2F0E94571C89
:103A10002FC1DD2359F0093309F016C1FFEF27EE5E
:103A200083E0F15020408040E1F70CC18C2F0E94D0
:103A30005E1C1EC18C2F837009F049C011111FC17B
:103A4000402F429546954770440F440F602F6F708A
:103A5000862F90E0A0E0B0E0042E04C0880F991FEC
:103A6000AA1FBB1F0A94D2F704FF10C00FE010E09A
:103A700020E030E004C0000F111F221F331F4A95C1
:103A8000D2F7009510952095309503C000E010E026
:103A90009801C695C695C370D0E0BC01CD01602BDE
:103AA000712B822B932BC230D10559F0C330D10535
:103AB00059F0219719F00E948D22E1C00E947B22CB
:103AC000DEC00E949F22DBC00E947922D8C0112351
:103AD00019F08C2F817001C08695882309F4CFC01E
:103AE000402F429546954770440F440F602F6F70EA
:103AF000862F90E0A0E0B0E0042E04C0880F991F4C
:103B0000AA1FBB1F0A94D2F704FF10C00FE010E0F9
:103B100020E030E004C0000F111F221F331F4A9520
:103B2000D2F7009510952095309503C000E010E085
:103B30009801C695C695C370D0E0BC01CD01602B3D
:103B4000712B822B932BC230D10559F0C330D10594
:103B500059F0219719F00E94532391C00E944123EC
:103B60008EC00E9465238BC00E94B42288C0CF7093
:103B7000112339F08C2F0E94DA22802F0E94571CCB
:103B80007EC0802F0E945E1C8C2F0E94FB2277C07B
:103B9000023F01F128F4003F41F0013FA1F03FC096
:103BA000033FF9F0043F39F13AC0112341F0D53019
:103BB00008F05EC08C2F8F710E94202359C0D63030
:103BC00008F056C0F7CF112339F08C2F8F710E9467
:103BD000DA224EC01123C9F38C2F8F710E94FB2271
:103BE00047C0112329F08C2F8F710E94C52240C03D
:103BF0000E94C0223DC0112349F0CF718C2F0E943A
:103C0000DA2263E08C2F0E94D52432C081E00E942A
:103C1000EA24D23068F182E00E94EA2429C011230C
:103C200031F0DD2391F2802F0E945D1B21C0DD2346
:103C300099F2093349F49FEFE7EEF3E09150E04049
:103C4000F040E1F700C00000802F0E94E51B10C08B
:103C50004C2F4F70602FC7010E94DD050E94EC21A0
:103C600012C04C2F4F70602FC7010E94E0050BC09F
:103C700028E0C21AD10884E0C816D10420F40E94BA
:103C8000271A0E94D405BB20D1F00E94482480FD51
:103C900016C0F70112820E9442240E94DA22C70154
:103CA0000E94811E0E944224DF91CF911F910F91AB
:103CB000FF90EF90DF90CF90BF900C94FB22DF91AC
:103CC000CF911F910F91FF90EF90DF90CF90BF9019
:103CD00008950F931F93CF93DF93EC01688179814F
:103CE0008A810E941F248C010E9477230E947822DF
:103CF000B801CE010E94651CDF91CF911F910F91F9
:103D00000895CF93DF93EC01888199812B813C81C9
:103D1000232BE9F09F3F11F48F3FC9F0CE010E94A1
:103D2000840581110CC00E944C24882381F08A8173
:103D3000882369F082E0DF91CF910C94EA24CE01D0
:103D40000E94691ECE01DF91CF910C943F04DF9158
:103D5000CF9108950E9473240E9483240C949F2481
:103D600080912801909129010E94FC250C94AA1EA3
:103D70000E9463240C94B01EE92FE295EF70F0E0EE
:103D80003297EE30F105B0F4E357FF4F0C94822EDA
:103D9000803F91F018F4883E68F40EC0843F51F4DF
:103DA0000BC0883E48F0813F29F406C093FB88276A
:103DB00080F9089580E0089581E008950E94142418
:103DC0000E94BC1E0895CF93DF9300D000D01F92B5
:103DD000CDB7DEB70F900F900F900F900F90DF913F
:103DE000CF910895CF93DF9300D000D000D0CDB70E
:103DF000DEB726960FB6F894DEBF0FBECDBFDF91BB
:103E0000CF9108951F93CF93DF93C091F10216E0F5
:103E10008091F202C81799F0D0E01C9FF0011D9F1D
:103E2000F00D1124ED50FD4F40815181628173816D
:103E3000848195810E94F21E2196C770E9CFDF919F
:103E4000CF911F91089540912303509124036091D5
:103E500025037091260380912703909128030C94E9
:103E6000F21ECF93DF938091280382958F7009F023
:103E700051C080912503882309F44CC08091F10240
:103E8000C091F202409123035091240360912603D4
:103E900070912703D6E08C17E9F190E06115710568
:103EA000B1F15F3F11F44F3F91F1D89FF001D99FDD
:103EB000F00D1124DF01AD50BD4F11962C911197DB
:103EC000521325C02C91421322C012962C911297A6
:103ED00021111DC013962D913C911497261B370B71
:103EE000283C3105A0F4809128038F708061809375
:103EF0002803E850FD4F80818F708061808383E2CA
:103F000093E00E94811EDF91CF910C94021F0196D5
:103F10008770C1CFDF91CF910895AF92BF92CF92BA
:103F2000DF92FF920F931F93CF93DF93CDB7DEB74E
:103F300062970FB6F894DEBF0FBECDBF8C0185E04F
:103F4000F801DE011D9601900D928A95E1F7D801E6
:103F50004C9111965C91119712966C911297139651
:103F6000AD90BC9014979091230320912403E0918D
:103F70002603F0912703309709F435C12F3F19F438
:103F80009F3F09F430C183E2C82E83E0D82EF09021
:103F90002503D501AE1BBF0BFF2009F4D2C08091D1
:103FA0002803382F307FA83CB10508F08FC03111AD
:103FB00044C0251312C0941310C061110EC08F703D
:103FC0008061809328030E94231FC6010E94811EE6
:103FD00080912803F80185832EC0AB2819F15F3F3B
:103FE00011F44F3FF9F0D62E61111CC08091F102FF
:103FF0002091F20236E0821709F413C190E0389F55
:10400000F001399FF00D1124ED50FD4F71815713D0
:1040100006C07081471303C07281711103C00196FD
:104020008770E9CFF62E662309F421C18091280319
:10403000816080932803F12C1AC1251306C09413C4
:1040400004C0611102C0F8019BC04D875E878D8559
:104050009E856A8B0E94DE1E6A89882389F1662309
:1040600079F120912803822F82958F7090E002973A
:1040700074F0809123039091240398878F8319868D
:10408000BB86AA862C87CE0107960E94811E86E0F9
:10409000F801A3E2B3E001900D928A95E1F70E9446
:1040A000311F0E94231F0FC0251721F14D875E8706
:1040B0008D859E856A8B0E94DE1E6A89811129C0CA
:1040C000C8010E94811EFF24F394D1C03111ECCFAE
:1040D0007A2DB98AA88A89890E94E31E83E293E037
:1040E0000E94811E86E0D6011D928A95E9F70E9402
:1040F000231FA1CF9413DACF6111D8CFF8018583A4
:10410000C8010E94811E86E0D6011D928A95E9F7BA
:10411000AEC06623A9F220912803822F82958F706A
:1041200090E002970CF4B3CF809123039091240385
:104130009A8389831B82BD82AC822E83CE01019635
:10414000A4CFA83CB10508F042C0F62E662309F4BE
:10415000B7CF25132BC0941329C02091280320FD2D
:104160001CC0822F82958F70C1F0F80125838F309B
:1041700041F08F5F982F9295907F822F8F70892BBF
:104180008583C8010E94811E86E0F801A3E2B3E0A6
:1041900001900D928A95E1F741C086E0F801A3E213
:1041A000B3E001900D928A95E1F761C04D875E877B
:1041B0008D859E850E94DE1E811169CF8091280326
:1041C000816080932803C8010E94811E50C07A2D0F
:1041D000B98AA88A89890E94E31E86E0D6011D92C9
:1041E0008A95E9F71BC0662309F46ACF4D875E877D
:1041F0008D859E850E94DE1EF82E882309F460CFEF
:1042000086E0F801A3E2B3E001900D928A95E1F710
:1042100083E293E00E94571B0E94311F0E94231FDC
:1042200026C04D875E878D859E850E941424292F88
:1042300022952F7030E0223031052CF49F7041F030
:10424000811106C00CC0243031052CF49F7049F454
:10425000805E883020F0C8010E94811EDF2CFD2C7A
:1042600006C0D80115969C91907F91F7F8CF8F2DBD
:1042700062960FB6F894DEBF0FBECDBFDF91CF912F
:104280001F910F91FF90DF90CF90BF90AF90089556
:104290001F93CF93DF93CDB7DEB72C970FB6F8946B
:1042A000DEBF0FBECDBF4F83588769877A878B8764
:1042B0009C87CE0107960E948D1F882369F08F810D
:1042C00098852A853B85232BF1F19F3F09F063C038
:1042D0008F3F09F060C037C086E0FE013796DE01EF
:1042E000119601900D928A95E1F76F817885EA85A4
:1042F000FB85309741F17F3F11F46F3F21F1209111
:10430000F20230E0C9010196877099274091F102CD
:1043100050E08417950709F447C069837A83FD83C9
:10432000EC8396E0929FD001939FB00D1124AD5085
:10433000BD4FFE01319601900D929A95E1F7809361
:10434000F2020E94021F16E08091F1029091F202A7
:104350008917C1F1189FC00111248D509D4F0E94F3
:104360008D1F882379F1E091F1021E9FF001112445
:10437000ED50FD4F4081518162817381848195812F
:104380000E94F21E8091F10290E0019687709927B9
:104390008093F102D9CF4F81588569857A858B85C5
:1043A0009C850E94F21ECFCF0E94B81E1092F2028E
:1043B0001092F102E3E2F3E086E0DF011D928A95BC
:1043C000E9F7C1CF2C960FB6F894DEBF0FBECDBF74
:1043D000DF91CF911F910895EF92FF920F931F935A
:1043E000CF93DF938C01892B09F46CC0F12CEE2460
:1043F000E394E8012196F8018491843740F48430F5
:1044000008F051C0813081F0823019F15BC08537EE
:1044100009F444C0A8F19CE7980F903708F052C007
:104420008F770E94E51B41C00E5F1F4FFE01C491B4
:1044300080E28C0F883048F4C7708E2D01C0880F41
:10444000CA95EAF70E94762414C08C2F0E945D1B47
:104450002DC00E5F1F4FFE01C49180E28C0F88308B
:1044600058F4C7708E2D01C0880FCA95EAF70E94D4
:104470007C240E949F241AC08C2F0E94E51B16C02A
:104480000E5F1F4FFE01C491CC2381F08FE99FE0A6
:104490000197F1F700C00000C150F6CF0E5F1F4F2B
:1044A000FE01F49003C00E945D1B8E018F2D8823B6
:1044B00009F49FCFEFE9FFE03197F1F700C000006A
:1044C0008150F5CFDF91CF911F910F91FF90EF9029
:1044D000089508950C9469220E946A2260935F03F4
:1044E0007093600380936103909362030C94AA1EFF
:1044F00008950C946C220F931F9300915F03109109
:1045000060032091610330916203602B712B822B39
:10451000932B1F910F910C946C220F931F9300917A
:104520005F03109160032091610330916203602367
:104530007123822393231F910F910C946C220F936C
:104540001F9300915F0310916003209161033091EC
:10455000620360277127822793271F910F910C9484
:104560006C2208950C94B1220E94B22260935B03E6
:1045700070935C0380935D0390935E030C94AA1E7A
:1045800060E070E0CB010C94B4220F931F9341E0E4
:1045900050E060E070E08A019B0104C0000F111F31
:1045A000221F331F8A95D2F7C901B8011F910F91BD
:1045B0000C94B4220F931F9341E050E060E070E050
:1045C00004C0440F551F661F771F8A95D2F780914C
:1045D0005B0390915C03A0915D03B0915E038A013F
:1045E0009B01082B192B2A2B3B2BC901B8011F91CA
:1045F0000F910C94B4220F931F9341E050E060E0C0
:1046000070E004C0440F551F661F771F8A95D2F7CC
:10461000409550956095709580915B0390915C03F7
:10462000A0915D03B0915E038A019B0108231923C9
:104630002A233B23C901B8011F910F910C94B42286
:104640000F931F9341E050E060E070E004C0440F1E
:10465000551F661F771F8A95D2F780915B03909153
:104660005C03A0915D03B0915E038A019B01082762
:1046700019272A273B27C901B8011F910F910C94D4
:10468000B4220F931F9300915B0310915C03209160
:104690005D0330915E03602B712B822B932B1F9156
:1046A0000F910C94B4220F931F9300915B03109110
:1046B0005C0320915D0330915E03602371238223AC
:1046C00093231F910F910C94B4220F931F93009189
:1046D0005B0310915C0320915D0330915E036027C2
:1046E0007127822793271F910F910C94B42208956C
:1046F00028E0929F800D1124A82FA695A695A69537
:10470000877051E001C0550F8A95EAF785E0A89FB0
:10471000D001112420E030E070E0F901EA0FFB1F26
:10472000E75DFC4F4081CB01022E02C09695879534
:104730000A94E2F78170992781958427852384273D
:1047400080832F5F3F4F2530310539F7089528E0EA
:10475000929F800D1124682F669566956695982F17
:10476000977085E0689FB001112440E050E080E040
:10477000FA01E60FF71FE75DFC4F208130E0092EBC
:1047800002C0369527950A94E2F721703327042E4C
:1047900001C0220F0A94EAF7822B4F5F5F4F45302A
:1047A000510531F70895BF92CF92DF92EF92FF92B9
:1047B0000F931F93CF93DF938C01C0905F03D09032
:1047C0006003E0906103F090620380915B0390913D
:1047D0005C03A0915D03B0915E03C82AD92AEA2A3E
:1047E000FB2ACFE1D0E0D701C6010C2E04C0B6955C
:1047F000A795979587950A94D2F780FF07C0BC2E9E
:10480000B8018C2F0E94E905019719F4219758F7F8
:10481000B12C8B2DDF91CF911F910F91FF90EF90D5
:10482000DF90CF90BF900895CF93DF93EC010E946B
:10483000D323BE010E94E905DF91CF9108951F9314
:10484000CF93DF93EB019091F002992321F0CB01FC
:104850000E94142413C0882349F0CB010E94D32363
:10486000182F682FCE010E94782304C0CB010E942C
:10487000A723182FBE01812F0E94E905DF91CF9158
:104880001F91089580916303859585958595089579
:10489000809163038770089590916303977081E01E
:1048A00009F480E0089580916F03089590916F035B
:1048B000892B80936F030895809590916F038923CE
:1048C00080936F03089510926F03089590916E0383
:1048D000892B80936E030895809590916E038923B0
:1048E00080936E03089510926E03089590916D0366
:1048F000892B80936D030895809590916D03892392
:1049000080936D03089510926D0308958091640360
:10491000089508950C94892490916403981721F0C8
:10492000809364030C948A240895809164038823FF
:1049300029F01092640380E00C948A240895E09199
:104940002801F091290180916F038083E091280173
:10495000F0912901908180916E03892B8083E091F1
:104960002801F0912901908180916D03892B80832A
:1049700080916403882381F0E0912801F09129015E
:104980009081892B808380912801909129010E9438
:10499000B72581110E9495248091280190912901C9
:1049A0000C94331A08950C94D22498E0899F9001B6
:1049B0001124262B209363030E94DA228091630343
:1049C0008595859585950C94D3241092630380E09A
:1049D0000C94D324209163038095822380936303F6
:1049E000982F977079F430E0482F082E000C550B63
:1049F0002417350739F08595859585950E94FB220A
:104A00000C94E52408956FEF7FEF80E090E00C9424
:104A1000542F80E090E00E94302F21E08C3E9E4F8A
:104A200009F020E0822F089582E090E00C94222F7C
:104A300083E090E00C94222FCF9384E090E00E94DA
:104A4000222FC82F81E290E00E94222F2C2F30E0ED
:104A5000A901582BCA01CF910895CF93C92F682F70
:104A600084E090E00E94362F6C2F81E290E0CF919D
:104A70000C94362FAB01BC018FE090E00C94482FD2
:104A8000AB01BC0183E190E00C94482F60E070E042
:104A9000CB010C94402560E070E0CB010E943A25E8
:104AA0000C9446256CEE7EEF80E090E00E94542F3F
:104AB00060E082E090E00E94362F60E083E090E0CA
:104AC0000E94362F10925F031092600310926103D0
:104AD0001092620360E084E090E00E94362F60E074
:104AE00081E290E00E94362F60E085E090E00E9435
:104AF000362F60E086E090E00E94362F6FEF87E06F
:104B000090E00E94362F40E050E0BA0188E090E04B
:104B10000E94482F60E08DE090E00E94362F40E038
:104B200050E0BA0188E190E00E94482F60E087E100
:104B300090E00E94362F40E050E0BA018CE190E016
:104B40000E94482F60E080E290E00E94362F40E013
:104B500050E0BA0188E190E00E94482F0C944B2568
:104B60000C945225682F8EE090E00C94362FFC01B7
:104B7000329697E080E0915029F021912223D9F3D9
:104B80008F5FF9CF0895662349F0FC0132960896AD
:104B90002191261729F0E817F907D1F780E0089549
:104BA00081E008959C01FC0132969FEF80E04191E5
:104BB000461789F09F3F19F4411101C0982F8F5F6C
:104BC0008630A9F79F3F39F0F901E90FF11D97FDF4
:104BD000FA95628308950895FC0132960896208123
:104BE000261301C010823196E817F907C1F708951E
:104BF0000C94D2250C94EC25029626E0FC0111922F
:104C00002A95E9F7089508950C9403260E94042636
:104C100080916104843059F11092710320E488E19D
:104C200090E00FB6F894A895809360000FBE209393
:104C3000600080E00E94D4050E94E4100E940426D7
:104C400083B7817F846083BF83B7816083BF78949B
:104C5000889583B78E7F83BF0FB6F894A89580910F
:104C60006000886180936000109260000FBE08951C
:104C700008950895CF930E9438260E9458080E94F4
:104C80003926C0E08C2F0E94C407811104C0CF5F79
:104C9000CA30C1F701C081E0CF91089508950C9406
:104CA0004E260E94B81E0E94271A0E94D4050E9418
:104CB000A0100C944F261F920F920FB60F92112442
:104CC0008F939F93AF93BF9380917103811113C012
:104CD0008091570490915804A0915904B0915A04BE
:104CE0004196A11DB11D8093570490935804A09341
:104CF0005904B0935A04BF91AF919F918F910F9037
:104D00000FBE0F901F90189582E084BD93E095BD73
:104D10009AEF97BD80936E0008952FB7F894809115
:104D2000570490915804A0915904B0915A042FBF90
:104D300008952FB7F89460915704709158048091AA
:104D4000590490915A042FBF08959C014FB7F894CD
:104D50008091570490915804A0915904B0915A043D
:104D60004FBF821B930B089578941F920F920FB63A
:104D70000F9211248F939F93AF93BF938091570409
:104D800090915804A0915904B0915A040196A11D24
:104D9000B11D8093570490935804A0935904B09385
:104DA0005A04BF91AF919F918F910F900FBE0F90BA
:104DB0001F90189587E797E7909301088093000864
:104DC0009AE088E10FB6F894A895809360000FBE32
:104DD00090936000FFCF0C94E9120E9458088FE373
:104DE0009CE90197F1F700C000000E94580880E09C
:104DF0000E94C40780FF04C00E94EB260C94DA26B0
:104E000008950E940925811102C00E94B0250E94C8
:104E10001425809370030E941C2590935C0480935A
:104E20005B040E941825682F70E080E090E00E94EB
:104E3000792260915B0370915C0380915D03909196
:104E40005E030C94B22280917A0308950895089528
:104E50000895CF93DF9321E02093E9002FEF309165
:104E6000E800215035FD06C035ED3A95F1F7000018
:104E70002111F5CF2091E80025FF14C0EC0140E09E
:104E800050E068E070E00E9445298091E8008E774C
:104E90008093E80088E0FE01A2E7B3E001900D9264
:104EA0008A95E1F7DF91CF910895CF93603219F59C
:104EB000209161042430F9F4C091E900CF70309161
:104EC000EC00232F217030FD20E8C22B22E020933C
:104ED000E9002091E80020FF0BC040E050E060E2D4
:104EE00070E00E9445298091E8008E778093E80069
:104EF000CF70C093E900CF91089580916004811133
:104F000009C00E94252B0E94822B8091E2008460C0
:104F10008093E20008951092600408950895089522
:104F20000C94512642E061EC81E00E949F2A42E20B
:104F300061EC82E00E949F2A42E260EC83E00C94E4
:104F40009F2A80916304833009F460C030F481307B
:104F500071F0823009F499C008958A3009F485C04F
:104F60008B3009F46BC0893009F0A7C020C0809154
:104F70006204813A09F0A1C08091E800877F8093A4
:104F8000E8008091660490916704892B21F468E021
:104F900082E793E003C060E080E090E070E00E9470
:104FA000DB298091E8008B778093E8000895809159
:104FB0006204813209F081C0809166049091670497
:104FC000892B09F07AC08091E800877F8093E80000
:104FD0008091E80082FD05C0809161048111F8CFC5
:104FE0006CC02091F3008091F20090E0922B029728
:104FF00029F48091F1008B7F813021F48091F100C0
:1050000080937A038091E8008B7753C0809162048B
:10501000813A09F052C08091660490916704892B0F
:1050200009F04BC08091E800877F8093E800809171
:10503000E80080FFFCCF8091340136C0809162048B
:105040008132D9F58091660490916704892BA9F586
:105050008091E800877F8093E8000E94D42A8091A5
:105060006404809334010C94B81E809162048132F0
:1050700021F58091E800877F8093E8000E94D42A80
:105080008091650480937B03089580916204813A46
:10509000A1F48091E800877F8093E8008091E80088
:1050A00080FFFCCF80917B038093F1008091E8002A
:1050B0008E778093E8000C94D42A08951F93CF93A1
:1050C000DF93CDB7DEB7A0970FB6F894DEBF0FBE63
:1050D000CDBF84B7877F84BF0FB6F894A895809121
:1050E0006000886180936000109260000FBE90E0C5
:1050F00080E80FB6F89480936100909361000FBE32
:105100000E94781A0E94252B0E94822B8091E20037
:1051100084608093E20078940E94112E0E94821A8B
:105120008AE291E00E94221A13E0809161048530A6
:1051300069F40E94062680915F048823B1F30E94DF
:105140003A26882391F30E942F29EFCF0E948E1ACE
:1051500080916104843009F51093E9008091E800A2
:1051600082FF1BC08091E80085FF0AC040E050E04C
:1051700060E270E0CE0101960E94902991E001C0AA
:1051800090E08091E8008B778093E800992329F0E4
:1051900060E2CE0101960E94C2130E94801A0E9412
:1051A000811AC3CF0C94D428292F332723303105FB
:1051B000C9F064F42130310581F02230310509F065
:1051C00046C082E490E02EEA36E045C02132310547
:1051D000F1F02232310559F13AC082E190E020EF3E
:1051E00036E039C099278130910541F08230910530
:1051F00041F0892B61F5EAEAF6E005C0E8E9F6E05E
:1052000002C0E4E8F6E0849190E09F0124C06115BB
:10521000710541F061307105D1F489E090E029ED2C
:1052200036E019C089E090E020EC36E014C061154A
:10523000710541F06130710551F482E290E022E0A5
:1052400037E009C080E490E024E237E004C080E069
:1052500090E020E030E0FA0131832083089580E17E
:1052600089BD82E189BD09B400FEFDCF8091D800DF
:105270008F7D8093D8008091E00082608093E00071
:105280008091E00081FDFCCF0895CF92DF92EF92F4
:10529000FF920F931F93CF93DF93EC018B016A0171
:1052A0000E94F32A811133C0C114D10439F0F601F0
:1052B00080819181081B190BC80FD91FE12CF12C9B
:1052C0000115110519F18091E80085FD16C0809146
:1052D000E8008E778093E800C114D10449F0F6010C
:1052E00080819181E80EF91EF182E08285E00FC095
:1052F0000E94F32A882321F30AC089918093F10048
:1053000001501109FFEFEF1AFF0ADACF80E0DF91B9
:10531000CF911F910F91FF90EF90DF90CF90089564
:10532000CF92DF92EF92FF920F931F93CF93DF9371
:10533000EC018B016A010E94F32A811133C0C11470
:10534000D10439F0F60180819181081B190BC80F37
:10535000D91FE12CF12C0115110519F18091E800FC
:1053600085FD16C08091E8008B778093E800C1141A
:10537000D10449F0F60180819181E80EF91EF18295
:10538000E08285E00FC00E94F32A882321F30AC03F
:105390008091F100899301501109FFEFEF1AFF0A84
:1053A000DACF80E0DF91CF911F910F91FF90EF90C6
:1053B000DF90CF90089520916804309169042617FA
:1053C000370748F06115710539F42091E8002E7710
:1053D0002093E80001C0B90140E061157105A9F111
:1053E00020916104222309F443C0253009F442C00E
:1053F0002091E80023FD40C02091E80022FD32C04A
:105400002091E80020FFE9CF4091F3002091F200C5
:1054100030E0342BFC01CF016115710559F02830C3
:10542000310540F481918093F100615071092F5F43
:105430003F4FF1CF41E02830310509F040E02091A5
:10544000E8002E772093E800C8CF4111C9CF0AC0E9
:1054500080916104882361F0853061F08091E800DB
:1054600083FD0AC08091E80082FFF2CF80E00895BA
:1054700082E0089583E0089581E008952091680412
:10548000309169042617370748F06115710539F422
:105490002091E8002E772093E80001C0B901FC01BB
:1054A00020E06115710591F180916104882309F470
:1054B00040C0853009F43FC08091E80083FD3DC0C5
:1054C0008091E80082FD2FC08091E80080FFE9CF45
:1054D0002091F3008091F20090E0922B611571050C
:1054E00059F08830910540F424912093F1003196D1
:1054F000615071090196F2CF21E0089709F020E090
:105500008091E8008E778093E800CBCF2111CCCF3B
:105510000AC080916104882361F0853061F0809138
:10552000E80083FD0AC08091E80082FFF2CF80E0AE
:10553000089582E0089583E0089581E00895982F0A
:10554000973058F59093E900981739F07091EC0076
:105550002091ED005091F00003C0242F762F50E0F1
:1055600021FF19C03091EB003E7F3093EB0030916A
:10557000ED003D7F3093ED003091EB0031603093D2
:10558000EB007093EC002093ED005093F00020911D
:10559000EE0027FF07C09F5FD3CF8F708093E90095
:1055A00081E0089580E008958091620487FF11C032
:1055B0008091E80082FD05C0809161048111F8CFDF
:1055C00011C08091E8008B770BC080916104882323
:1055D00049F08091E80080FFF8CF8091E8008E7755
:1055E0008093E80008952091E4003091E50095E66D
:1055F0004091EC00842F817040FF22C08091E80030
:1056000080FD1CC080916104882391F0853091F069
:105610008091EB0085FD10C04091E4005091E500C1
:105620004217530729F39A01915011F784E0089526
:1056300082E0089583E0089581E0089580E0089570
:105640004091E80042FFDECF08950E94932B0E9414
:105650009B2BE0EEF0E0808181608083E8EDF0E05C
:1056600080818F77808319BCA7EDB0E08C918E7F0D
:105670008C9380818F7E80831092600408950F93B5
:105680001F93CF93DF930E94932B0E949B2BC8ED17
:10569000D0E088818F77888388818068888388813B
:1056A0008F7D888319BC1092610410925D04109262
:1056B0005F0410925E0400EE10E0F80180818B7FA1
:1056C000808388818160888342E060E080E00E947E
:1056D0009F2AE1EEF0E080818E7F8083E2EEF0E0B1
:1056E000808181608083808188608083F8018081EF
:1056F0008E7F8083888180618883DF91CF911F9125
:105700000F910895E8EDF0E080818F7E8083E7EDD2
:10571000F0E080818160808384E082BF81E08093BB
:1057200060040C943F2BE8EDF0E080818E7F808355
:105730001092E20008951092DA001092E1000895AC
:105740001F920F920FB60F9211242F933F934F93F6
:105750005F936F937F938F939F93AF93BF93EF93D9
:10576000FF938091E10082FF0BC08091E20082FFF5
:1057700007C08091E1008B7F8093E1000E94102E92
:105780008091DA0080FF1FC08091D80080FF1BC08D
:105790008091DA008E7F8093DA008091D90080FFBB
:1057A0000DC080E189BD82E189BD09B400FEFDCF55
:1057B00081E0809361040E947D2705C019BC10928E
:1057C00061040E948B278091E10080FF19C08091C5
:1057D000E20080FF15C08091E2008E7F8093E2009E
:1057E0008091E20080618093E2008091D800806225
:1057F0008093D80019BC85E0809361040E948F27B4
:105800008091E10084FF30C08091E20084FF2CC0D1
:1058100080E189BD82E189BD09B400FEFDCF8091A0
:10582000D8008F7D8093D8008091E1008F7E809397
:10583000E1008091E2008F7E8093E2008091E2009F
:1058400081608093E20080915D04882311F084E000
:1058500007C08091E30087FD02C081E001C083E0C2
:10586000809361040E9490278091E10083FF29C00A
:105870008091E20083FF25C08091E100877F8093C3
:10588000E10082E08093610410925D048091E10068
:105890008E7F8093E1008091E2008E7F8093E20012
:1058A0008091E20080618093E20042E060E080E06D
:1058B0000E949F2A8091F00088608093F0000E94EF
:1058C0008E27FF91EF91BF91AF919F918F917F9123
:1058D0006F915F914F913F912F910F900FBE0F905D
:1058E0001F9018951F920F920FB60F9211242F93AD
:1058F0003F934F935F936F937F938F939F93AF9358
:10590000BF93CF93DF93EF93FF93C091E900CF70E4
:105910008091EC00D82FD17080FDD0E81092E90082
:105920008091F000877F8093F00078940E94B62CDD
:105930001092E9008091F00088608093F000CD2BF8
:10594000CF70C093E900FF91EF91DF91CF91BF91AC
:10595000AF919F918F917F916F915F914F913F9107
:105960002F910F900FBE0F901F9018951F93CF93FC
:10597000DF93CDB7DEB7AA970FB6F894DEBF0FBEA0
:10598000CDBFE2E6F4E088E08E0F9091F1009193B4
:105990008E13FBCF0E94A1278091E80083FF28C1CE
:1059A0008091620490916304492F50E04A30510580
:1059B00008F01EC1FA01E556FF4F0C94822E803884
:1059C00021F0823809F014C108C080915E049091E2
:1059D0005F04992389F082600FC0809166048F7004
:1059E000873008F005C18093E9008091EB0085FBCA
:1059F000882780F91092E9009091E800977F9093B2
:105A0000E8008093F1001092F100D0C0282F2D7F84
:105A100009F0EEC0882319F0823061F0E9C080916E
:105A20006404813009F0E4C0933009F080E0809391
:105A30005F042EC08091640481112AC080916604A5
:105A40008F702FEF280F263008F0D2C08093E90026
:105A50002091EB0020FF1CC0933021F48091EB00DB
:105A6000806214C09091EB0090619093EB0021E074
:105A700030E0A90102C0440F551F8A95E2F7409318
:105A8000EA001092EA008091EB0088608093EB00BE
:105A90001092E9008091E800877F8093E8000E94DF
:105AA000D42AA6C08111A4C0109164041F778091EC
:105AB000E3008078812B8093E3008091E800877F6A
:105AC0008093E8000E94D42A8091E80080FFFCCFF8
:105AD0008091E30080688093E300111102C082E0AE
